{
  "_format": "hh-sol-artifact-1",
  "contractName": "YieldGivers",
  "sourceName": "contracts/YieldGivers.sol",
  "abi": [
    {
      "inputs": [
        {
          "internalType": "address",
          "name": "_tokenAddress",
          "type": "address"
        },
        {
          "internalType": "address payable",
          "name": "dev_",
          "type": "address"
        },
        {
          "internalType": "address payable",
          "name": "ad_",
          "type": "address"
        },
        {
          "internalType": "address payable",
          "name": "team_",
          "type": "address"
        },
        {
          "internalType": "uint256",
          "name": "startTime_",
          "type": "uint256"
        },
        {
          "internalType": "uint256",
          "name": "rankTime_",
          "type": "uint256"
        }
      ],
      "stateMutability": "nonpayable",
      "type": "constructor"
    },
    {
      "anonymous": false,
      "inputs": [
        {
          "indexed": true,
          "internalType": "address",
          "name": "user",
          "type": "address"
        },
        {
          "indexed": false,
          "internalType": "uint256",
          "name": "amount",
          "type": "uint256"
        }
      ],
      "name": "Insurance",
      "type": "event"
    },
    {
      "anonymous": false,
      "inputs": [
        {
          "indexed": false,
          "internalType": "uint256",
          "name": "newLimit",
          "type": "uint256"
        }
      ],
      "name": "MaxInvestmentLimitChanged",
      "type": "event"
    },
    {
      "anonymous": false,
      "inputs": [
        {
          "indexed": true,
          "internalType": "address",
          "name": "user",
          "type": "address"
        },
        {
          "indexed": false,
          "internalType": "uint256",
          "name": "amount",
          "type": "uint256"
        }
      ],
      "name": "Rank",
      "type": "event"
    },
    {
      "anonymous": false,
      "inputs": [
        {
          "indexed": true,
          "internalType": "address",
          "name": "user",
          "type": "address"
        },
        {
          "indexed": false,
          "internalType": "uint256",
          "name": "amount",
          "type": "uint256"
        }
      ],
      "name": "Retake",
      "type": "event"
    },
    {
      "anonymous": false,
      "inputs": [
        {
          "indexed": true,
          "internalType": "address",
          "name": "user",
          "type": "address"
        },
        {
          "indexed": false,
          "internalType": "uint256",
          "name": "amount",
          "type": "uint256"
        }
      ],
      "name": "Stake",
      "type": "event"
    },
    {
      "anonymous": false,
      "inputs": [
        {
          "indexed": true,
          "internalType": "address",
          "name": "user",
          "type": "address"
        },
        {
          "indexed": false,
          "internalType": "uint256",
          "name": "amount",
          "type": "uint256"
        }
      ],
      "name": "Withdraw",
      "type": "event"
    },
    {
      "anonymous": false,
      "inputs": [
        {
          "indexed": true,
          "internalType": "address",
          "name": "user",
          "type": "address"
        },
        {
          "indexed": false,
          "internalType": "uint256",
          "name": "amount",
          "type": "uint256"
        }
      ],
      "name": "WithdrawPrincipal",
      "type": "event"
    },
    {
      "inputs": [],
      "name": "ad",
      "outputs": [
        {
          "internalType": "address payable",
          "name": "",
          "type": "address"
        }
      ],
      "stateMutability": "view",
      "type": "function"
    },
    {
      "inputs": [
        {
          "internalType": "uint256",
          "name": "income",
          "type": "uint256"
        },
        {
          "internalType": "uint256",
          "name": "rate",
          "type": "uint256"
        },
        {
          "internalType": "uint256",
          "name": "period",
          "type": "uint256"
        }
      ],
      "name": "calcReward",
      "outputs": [
        {
          "internalType": "uint256",
          "name": "reward",
          "type": "uint256"
        }
      ],
      "stateMutability": "pure",
      "type": "function"
    },
    {
      "inputs": [
        {
          "internalType": "uint256",
          "name": "income",
          "type": "uint256"
        },
        {
          "internalType": "uint256",
          "name": "rate",
          "type": "uint256"
        },
        {
          "internalType": "uint256",
          "name": "period",
          "type": "uint256"
        }
      ],
      "name": "calcRewardCompound",
      "outputs": [
        {
          "internalType": "uint256",
          "name": "reward",
          "type": "uint256"
        }
      ],
      "stateMutability": "pure",
      "type": "function"
    },
    {
      "inputs": [],
      "name": "coolDownPeriod",
      "outputs": [
        {
          "internalType": "uint256",
          "name": "",
          "type": "uint256"
        }
      ],
      "stateMutability": "view",
      "type": "function"
    },
    {
      "inputs": [],
      "name": "dev",
      "outputs": [
        {
          "internalType": "address payable",
          "name": "",
          "type": "address"
        }
      ],
      "stateMutability": "view",
      "type": "function"
    },
    {
      "inputs": [],
      "name": "getAmount",
      "outputs": [
        {
          "internalType": "uint256",
          "name": "amount",
          "type": "uint256"
        }
      ],
      "stateMutability": "view",
      "type": "function"
    },
    {
      "inputs": [],
      "name": "getIncreasePct",
      "outputs": [
        {
          "internalType": "uint256",
          "name": "increasePct",
          "type": "uint256"
        }
      ],
      "stateMutability": "view",
      "type": "function"
    },
    {
      "inputs": [],
      "name": "getInfo",
      "outputs": [
        {
          "internalType": "uint256",
          "name": "",
          "type": "uint256"
        },
        {
          "internalType": "uint256",
          "name": "",
          "type": "uint256"
        },
        {
          "internalType": "uint256",
          "name": "",
          "type": "uint256"
        },
        {
          "internalType": "uint256",
          "name": "",
          "type": "uint256"
        },
        {
          "internalType": "uint256",
          "name": "",
          "type": "uint256"
        },
        {
          "internalType": "uint256",
          "name": "",
          "type": "uint256"
        },
        {
          "internalType": "uint256",
          "name": "",
          "type": "uint256"
        }
      ],
      "stateMutability": "view",
      "type": "function"
    },
    {
      "inputs": [
        {
          "internalType": "uint256",
          "name": "length",
          "type": "uint256"
        }
      ],
      "name": "getInsurances",
      "outputs": [
        {
          "internalType": "address[]",
          "name": "addresses",
          "type": "address[]"
        },
        {
          "internalType": "uint256[]",
          "name": "values",
          "type": "uint256[]"
        },
        {
          "internalType": "uint256[]",
          "name": "rewards",
          "type": "uint256[]"
        },
        {
          "internalType": "uint256[]",
          "name": "times",
          "type": "uint256[]"
        }
      ],
      "stateMutability": "view",
      "type": "function"
    },
    {
      "inputs": [],
      "name": "getInvestments",
      "outputs": [
        {
          "internalType": "uint256[]",
          "name": "times",
          "type": "uint256[]"
        },
        {
          "internalType": "uint256[]",
          "name": "starts",
          "type": "uint256[]"
        },
        {
          "internalType": "uint256[]",
          "name": "values",
          "type": "uint256[]"
        },
        {
          "internalType": "uint256[]",
          "name": "totalRewards",
          "type": "uint256[]"
        },
        {
          "internalType": "uint256[]",
          "name": "rates",
          "type": "uint256[]"
        },
        {
          "internalType": "uint256[]",
          "name": "typeNums",
          "type": "uint256[]"
        },
        {
          "internalType": "bool[]",
          "name": "isReStakes",
          "type": "bool[]"
        }
      ],
      "stateMutability": "view",
      "type": "function"
    },
    {
      "inputs": [],
      "name": "getInvestmentsEx",
      "outputs": [
        {
          "internalType": "uint256[]",
          "name": "periods",
          "type": "uint256[]"
        }
      ],
      "stateMutability": "view",
      "type": "function"
    },
    {
      "inputs": [
        {
          "internalType": "uint256",
          "name": "typeNum",
          "type": "uint256"
        },
        {
          "internalType": "uint256",
          "name": "income",
          "type": "uint256"
        }
      ],
      "name": "getPeriodAndRate",
      "outputs": [
        {
          "internalType": "uint256",
          "name": "period",
          "type": "uint256"
        },
        {
          "internalType": "uint256",
          "name": "rate",
          "type": "uint256"
        },
        {
          "internalType": "uint256",
          "name": "totalReward",
          "type": "uint256"
        }
      ],
      "stateMutability": "view",
      "type": "function"
    },
    {
      "inputs": [],
      "name": "getPlanFourRate",
      "outputs": [
        {
          "internalType": "uint256",
          "name": "planFourPct",
          "type": "uint256"
        }
      ],
      "stateMutability": "view",
      "type": "function"
    },
    {
      "inputs": [],
      "name": "getPlanOneRate",
      "outputs": [
        {
          "internalType": "uint256",
          "name": "planOnePct",
          "type": "uint256"
        }
      ],
      "stateMutability": "view",
      "type": "function"
    },
    {
      "inputs": [],
      "name": "getPlanThreeRate",
      "outputs": [
        {
          "internalType": "uint256",
          "name": "planThreePct",
          "type": "uint256"
        }
      ],
      "stateMutability": "view",
      "type": "function"
    },
    {
      "inputs": [],
      "name": "getPlanTwoRate",
      "outputs": [
        {
          "internalType": "uint256",
          "name": "planTwoPct",
          "type": "uint256"
        }
      ],
      "stateMutability": "view",
      "type": "function"
    },
    {
      "inputs": [
        {
          "internalType": "uint256",
          "name": "typenum",
          "type": "uint256"
        }
      ],
      "name": "getPoolAllInfo",
      "outputs": [
        {
          "internalType": "uint256",
          "name": "",
          "type": "uint256"
        },
        {
          "internalType": "uint256",
          "name": "",
          "type": "uint256"
        },
        {
          "internalType": "uint256",
          "name": "",
          "type": "uint256"
        },
        {
          "internalType": "uint256",
          "name": "",
          "type": "uint256"
        },
        {
          "internalType": "uint256",
          "name": "",
          "type": "uint256"
        },
        {
          "internalType": "uint256",
          "name": "",
          "type": "uint256"
        },
        {
          "internalType": "uint256",
          "name": "",
          "type": "uint256"
        },
        {
          "internalType": "uint256",
          "name": "",
          "type": "uint256"
        }
      ],
      "stateMutability": "view",
      "type": "function"
    },
    {
      "inputs": [
        {
          "internalType": "uint256",
          "name": "typeNum",
          "type": "uint256"
        }
      ],
      "name": "getPoolMinMax",
      "outputs": [
        {
          "internalType": "uint256",
          "name": "",
          "type": "uint256"
        },
        {
          "internalType": "uint256",
          "name": "",
          "type": "uint256"
        }
      ],
      "stateMutability": "view",
      "type": "function"
    },
    {
      "inputs": [],
      "name": "getRankIndex",
      "outputs": [
        {
          "internalType": "uint256",
          "name": "index",
          "type": "uint256"
        }
      ],
      "stateMutability": "view",
      "type": "function"
    },
    {
      "inputs": [
        {
          "internalType": "uint256",
          "name": "index",
          "type": "uint256"
        }
      ],
      "name": "getRanks",
      "outputs": [
        {
          "internalType": "address[4]",
          "name": "addresses",
          "type": "address[4]"
        },
        {
          "internalType": "uint256[4]",
          "name": "values",
          "type": "uint256[4]"
        },
        {
          "internalType": "uint256[4]",
          "name": "rewards",
          "type": "uint256[4]"
        },
        {
          "internalType": "uint256[4]",
          "name": "times",
          "type": "uint256[4]"
        }
      ],
      "stateMutability": "view",
      "type": "function"
    },
    {
      "inputs": [],
      "name": "getTokenBalance",
      "outputs": [
        {
          "internalType": "uint256",
          "name": "",
          "type": "uint256"
        }
      ],
      "stateMutability": "view",
      "type": "function"
    },
    {
      "inputs": [],
      "name": "insuranceIndex",
      "outputs": [
        {
          "internalType": "uint256",
          "name": "",
          "type": "uint256"
        }
      ],
      "stateMutability": "view",
      "type": "function"
    },
    {
      "inputs": [],
      "name": "insurancePool",
      "outputs": [
        {
          "internalType": "uint256",
          "name": "",
          "type": "uint256"
        }
      ],
      "stateMutability": "view",
      "type": "function"
    },
    {
      "inputs": [],
      "name": "insuranceRewardIndex",
      "outputs": [
        {
          "internalType": "uint256",
          "name": "",
          "type": "uint256"
        }
      ],
      "stateMutability": "view",
      "type": "function"
    },
    {
      "inputs": [],
      "name": "insuranceTime",
      "outputs": [
        {
          "internalType": "uint256",
          "name": "",
          "type": "uint256"
        }
      ],
      "stateMutability": "view",
      "type": "function"
    },
    {
      "inputs": [
        {
          "internalType": "uint256",
          "name": "",
          "type": "uint256"
        }
      ],
      "name": "insurances",
      "outputs": [
        {
          "internalType": "address",
          "name": "addr",
          "type": "address"
        },
        {
          "internalType": "uint256",
          "name": "value",
          "type": "uint256"
        },
        {
          "internalType": "uint256",
          "name": "reward",
          "type": "uint256"
        },
        {
          "internalType": "uint256",
          "name": "time",
          "type": "uint256"
        }
      ],
      "stateMutability": "view",
      "type": "function"
    },
    {
      "inputs": [],
      "name": "maxInvestAmount",
      "outputs": [
        {
          "internalType": "uint256",
          "name": "",
          "type": "uint256"
        }
      ],
      "stateMutability": "view",
      "type": "function"
    },
    {
      "inputs": [],
      "name": "maxInvestmentLimit",
      "outputs": [
        {
          "internalType": "uint256",
          "name": "",
          "type": "uint256"
        }
      ],
      "stateMutability": "view",
      "type": "function"
    },
    {
      "inputs": [],
      "name": "minInvestAmount",
      "outputs": [
        {
          "internalType": "uint256",
          "name": "",
          "type": "uint256"
        }
      ],
      "stateMutability": "view",
      "type": "function"
    },
    {
      "inputs": [],
      "name": "owner",
      "outputs": [
        {
          "internalType": "address",
          "name": "",
          "type": "address"
        }
      ],
      "stateMutability": "view",
      "type": "function"
    },
    {
      "inputs": [],
      "name": "percentMultiplier",
      "outputs": [
        {
          "internalType": "uint256",
          "name": "",
          "type": "uint256"
        }
      ],
      "stateMutability": "view",
      "type": "function"
    },
    {
      "inputs": [],
      "name": "planFourDays",
      "outputs": [
        {
          "internalType": "uint256",
          "name": "",
          "type": "uint256"
        }
      ],
      "stateMutability": "view",
      "type": "function"
    },
    {
      "inputs": [],
      "name": "planFourMultiplier",
      "outputs": [
        {
          "internalType": "uint256",
          "name": "",
          "type": "uint256"
        }
      ],
      "stateMutability": "view",
      "type": "function"
    },
    {
      "inputs": [
        {
          "internalType": "uint256",
          "name": "planFourPct",
          "type": "uint256"
        }
      ],
      "name": "planFourRate",
      "outputs": [],
      "stateMutability": "nonpayable",
      "type": "function"
    },
    {
      "inputs": [],
      "name": "planOneDays",
      "outputs": [
        {
          "internalType": "uint256",
          "name": "",
          "type": "uint256"
        }
      ],
      "stateMutability": "view",
      "type": "function"
    },
    {
      "inputs": [],
      "name": "planOneMultiplier",
      "outputs": [
        {
          "internalType": "uint256",
          "name": "",
          "type": "uint256"
        }
      ],
      "stateMutability": "view",
      "type": "function"
    },
    {
      "inputs": [
        {
          "internalType": "uint256",
          "name": "planOnePct",
          "type": "uint256"
        }
      ],
      "name": "planOneRate",
      "outputs": [],
      "stateMutability": "nonpayable",
      "type": "function"
    },
    {
      "inputs": [],
      "name": "planThreeDays",
      "outputs": [
        {
          "internalType": "uint256",
          "name": "",
          "type": "uint256"
        }
      ],
      "stateMutability": "view",
      "type": "function"
    },
    {
      "inputs": [],
      "name": "planThreeMultiplier",
      "outputs": [
        {
          "internalType": "uint256",
          "name": "",
          "type": "uint256"
        }
      ],
      "stateMutability": "view",
      "type": "function"
    },
    {
      "inputs": [
        {
          "internalType": "uint256",
          "name": "planThreePct",
          "type": "uint256"
        }
      ],
      "name": "planThreeRate",
      "outputs": [],
      "stateMutability": "nonpayable",
      "type": "function"
    },
    {
      "inputs": [],
      "name": "planTwoDays",
      "outputs": [
        {
          "internalType": "uint256",
          "name": "",
          "type": "uint256"
        }
      ],
      "stateMutability": "view",
      "type": "function"
    },
    {
      "inputs": [],
      "name": "planTwoMultiplier",
      "outputs": [
        {
          "internalType": "uint256",
          "name": "",
          "type": "uint256"
        }
      ],
      "stateMutability": "view",
      "type": "function"
    },
    {
      "inputs": [
        {
          "internalType": "uint256",
          "name": "planTwoPct",
          "type": "uint256"
        }
      ],
      "name": "planTwoRate",
      "outputs": [],
      "stateMutability": "nonpayable",
      "type": "function"
    },
    {
      "inputs": [],
      "name": "pool",
      "outputs": [
        {
          "internalType": "uint256",
          "name": "",
          "type": "uint256"
        }
      ],
      "stateMutability": "view",
      "type": "function"
    },
    {
      "inputs": [
        {
          "internalType": "uint256",
          "name": "",
          "type": "uint256"
        }
      ],
      "name": "pools",
      "outputs": [
        {
          "internalType": "uint256",
          "name": "minInvestAmountPool",
          "type": "uint256"
        },
        {
          "internalType": "uint256",
          "name": "maxInvestAmountPool",
          "type": "uint256"
        }
      ],
      "stateMutability": "view",
      "type": "function"
    },
    {
      "inputs": [
        {
          "internalType": "uint256",
          "name": "",
          "type": "uint256"
        }
      ],
      "name": "rankFlag",
      "outputs": [
        {
          "internalType": "bool",
          "name": "",
          "type": "bool"
        }
      ],
      "stateMutability": "view",
      "type": "function"
    },
    {
      "inputs": [
        {
          "internalType": "uint256",
          "name": "",
          "type": "uint256"
        },
        {
          "internalType": "address",
          "name": "",
          "type": "address"
        }
      ],
      "name": "rankMap",
      "outputs": [
        {
          "internalType": "uint256",
          "name": "",
          "type": "uint256"
        }
      ],
      "stateMutability": "view",
      "type": "function"
    },
    {
      "inputs": [],
      "name": "rankPool",
      "outputs": [
        {
          "internalType": "uint256",
          "name": "",
          "type": "uint256"
        }
      ],
      "stateMutability": "view",
      "type": "function"
    },
    {
      "inputs": [],
      "name": "rankTime",
      "outputs": [
        {
          "internalType": "uint256",
          "name": "",
          "type": "uint256"
        }
      ],
      "stateMutability": "view",
      "type": "function"
    },
    {
      "inputs": [
        {
          "internalType": "uint256",
          "name": "typeNum",
          "type": "uint256"
        },
        {
          "internalType": "uint256",
          "name": "amount",
          "type": "uint256"
        }
      ],
      "name": "reStake",
      "outputs": [],
      "stateMutability": "nonpayable",
      "type": "function"
    },
    {
      "inputs": [
        {
          "internalType": "uint256",
          "name": "_coolDownPeriod",
          "type": "uint256"
        }
      ],
      "name": "setCoolDownPeriod",
      "outputs": [],
      "stateMutability": "nonpayable",
      "type": "function"
    },
    {
      "inputs": [
        {
          "internalType": "uint256",
          "name": "maxInvAmnt",
          "type": "uint256"
        }
      ],
      "name": "setMaxInvestAmount",
      "outputs": [],
      "stateMutability": "nonpayable",
      "type": "function"
    },
    {
      "inputs": [
        {
          "internalType": "uint256",
          "name": "_maxInvestmentLimit",
          "type": "uint256"
        }
      ],
      "name": "setMaxInvestmentLimit",
      "outputs": [],
      "stateMutability": "nonpayable",
      "type": "function"
    },
    {
      "inputs": [
        {
          "internalType": "uint256",
          "name": "minInvAmnt",
          "type": "uint256"
        }
      ],
      "name": "setMinInvestAmount",
      "outputs": [],
      "stateMutability": "nonpayable",
      "type": "function"
    },
    {
      "inputs": [
        {
          "internalType": "uint256",
          "name": "increasePct",
          "type": "uint256"
        }
      ],
      "name": "setPercentMultiplier",
      "outputs": [],
      "stateMutability": "nonpayable",
      "type": "function"
    },
    {
      "inputs": [
        {
          "internalType": "uint256",
          "name": "planFourPeriod",
          "type": "uint256"
        }
      ],
      "name": "setPlanFourPeriod",
      "outputs": [],
      "stateMutability": "nonpayable",
      "type": "function"
    },
    {
      "inputs": [
        {
          "internalType": "uint256",
          "name": "planOnePeriod",
          "type": "uint256"
        }
      ],
      "name": "setPlanOnePeriod",
      "outputs": [],
      "stateMutability": "nonpayable",
      "type": "function"
    },
    {
      "inputs": [
        {
          "internalType": "uint256",
          "name": "planThreePeriod",
          "type": "uint256"
        }
      ],
      "name": "setPlanThreePeriod",
      "outputs": [],
      "stateMutability": "nonpayable",
      "type": "function"
    },
    {
      "inputs": [
        {
          "internalType": "uint256",
          "name": "planTwoPeriod",
          "type": "uint256"
        }
      ],
      "name": "setPlanTwoPeriod",
      "outputs": [],
      "stateMutability": "nonpayable",
      "type": "function"
    },
    {
      "inputs": [
        {
          "internalType": "uint256",
          "name": "poolId",
          "type": "uint256"
        },
        {
          "internalType": "uint256",
          "name": "minInvestAmountPool",
          "type": "uint256"
        },
        {
          "internalType": "uint256",
          "name": "maxInvestAmountPool",
          "type": "uint256"
        }
      ],
      "name": "setPoolInvestmentLimits",
      "outputs": [],
      "stateMutability": "nonpayable",
      "type": "function"
    },
    {
      "inputs": [
        {
          "internalType": "address",
          "name": "referrer",
          "type": "address"
        },
        {
          "internalType": "uint256",
          "name": "typeNum",
          "type": "uint256"
        },
        {
          "internalType": "uint256",
          "name": "Amount",
          "type": "uint256"
        }
      ],
      "name": "stake",
      "outputs": [],
      "stateMutability": "payable",
      "type": "function"
    },
    {
      "inputs": [],
      "name": "startTime",
      "outputs": [
        {
          "internalType": "uint256",
          "name": "",
          "type": "uint256"
        }
      ],
      "stateMutability": "view",
      "type": "function"
    },
    {
      "inputs": [],
      "name": "team",
      "outputs": [
        {
          "internalType": "address payable",
          "name": "",
          "type": "address"
        }
      ],
      "stateMutability": "view",
      "type": "function"
    },
    {
      "inputs": [],
      "name": "tokenAddress",
      "outputs": [
        {
          "internalType": "address",
          "name": "",
          "type": "address"
        }
      ],
      "stateMutability": "view",
      "type": "function"
    },
    {
      "inputs": [],
      "name": "total",
      "outputs": [
        {
          "internalType": "uint256",
          "name": "",
          "type": "uint256"
        }
      ],
      "stateMutability": "view",
      "type": "function"
    },
    {
      "inputs": [
        {
          "internalType": "uint256",
          "name": "",
          "type": "uint256"
        }
      ],
      "name": "totalInvestmentByPool",
      "outputs": [
        {
          "internalType": "uint256",
          "name": "",
          "type": "uint256"
        }
      ],
      "stateMutability": "view",
      "type": "function"
    },
    {
      "inputs": [
        {
          "internalType": "uint256",
          "name": "",
          "type": "uint256"
        }
      ],
      "name": "totalInvestorsByTypeNum",
      "outputs": [
        {
          "internalType": "uint256",
          "name": "",
          "type": "uint256"
        }
      ],
      "stateMutability": "view",
      "type": "function"
    },
    {
      "inputs": [],
      "name": "totalStakedAmount",
      "outputs": [
        {
          "internalType": "uint256",
          "name": "",
          "type": "uint256"
        }
      ],
      "stateMutability": "view",
      "type": "function"
    },
    {
      "inputs": [],
      "name": "userCount",
      "outputs": [
        {
          "internalType": "uint256",
          "name": "",
          "type": "uint256"
        }
      ],
      "stateMutability": "view",
      "type": "function"
    },
    {
      "inputs": [
        {
          "internalType": "address",
          "name": "",
          "type": "address"
        }
      ],
      "name": "userMap",
      "outputs": [
        {
          "internalType": "bool",
          "name": "active",
          "type": "bool"
        },
        {
          "internalType": "address",
          "name": "referrer",
          "type": "address"
        },
        {
          "internalType": "uint256",
          "name": "recommendReward",
          "type": "uint256"
        },
        {
          "internalType": "uint256",
          "name": "investment",
          "type": "uint256"
        },
        {
          "internalType": "uint256",
          "name": "totalWithdraw",
          "type": "uint256"
        },
        {
          "internalType": "uint256",
          "name": "totalReward",
          "type": "uint256"
        },
        {
          "internalType": "uint256",
          "name": "checkpoint",
          "type": "uint256"
        },
        {
          "internalType": "uint256",
          "name": "subNum",
          "type": "uint256"
        },
        {
          "internalType": "uint256",
          "name": "subStake",
          "type": "uint256"
        },
        {
          "internalType": "uint256",
          "name": "lastWithdrawalTime",
          "type": "uint256"
        }
      ],
      "stateMutability": "view",
      "type": "function"
    },
    {
      "inputs": [
        {
          "internalType": "uint256",
          "name": "amount",
          "type": "uint256"
        }
      ],
      "name": "withdraw",
      "outputs": [],
      "stateMutability": "nonpayable",
      "type": "function"
    },
    {
      "inputs": [],
      "name": "withdrawContractbalance",
      "outputs": [],
      "stateMutability": "nonpayable",
      "type": "function"
    },
    {
      "inputs": [
        {
          "internalType": "uint256",
          "name": "investmentIndex",
          "type": "uint256"
        }
      ],
      "name": "withdrawPrincipal",
      "outputs": [],
      "stateMutability": "nonpayable",
      "type": "function"
    }
  ],
  "bytecode": "0x608060405233601660006101000a81548173ffffffffffffffffffffffffffffffffffffffff021916908373ffffffffffffffffffffffffffffffffffffffff160217905550620151806017556146506018556200006f6007601754620004c060201b620043111790919060201c565b6019556012601a556040518060600160405280600360ff168152602001600260ff168152602001600160ff16815250601b906003620000b09291906200055e565b5062015180601e5564174876e800601f556040518060800160405280602860ff168152602001601e60ff168152602001601460ff168152602001600a60ff16815250602590600462000104929190620005b5565b503480156200011257600080fd5b506040516200642438038062006424833981810160405260c08110156200013857600080fd5b810190808051906020019092919080519060200190929190805190602001909291908051906020019092919080519060200190929190805190602001909291905050506200018c856200054b60201b60201c565b1562000200576040517f08c379a000000000000000000000000000000000000000000000000000000000815260040180806020018281038252600b8152602001807f216465764164647265737300000000000000000000000000000000000000000081525060200191505060405180910390fd5b62000211846200054b60201b60201c565b1562000285576040517f08c379a000000000000000000000000000000000000000000000000000000000815260040180806020018281038252600a8152602001807f216164416464726573730000000000000000000000000000000000000000000081525060200191505060405180910390fd5b62000296836200054b60201b60201c565b156200030a576040517f08c379a000000000000000000000000000000000000000000000000000000000815260040180806020018281038252600c8152602001807f217465616d41646472657373000000000000000000000000000000000000000081525060200191505060405180910390fd5b856000806101000a81548173ffffffffffffffffffffffffffffffffffffffff021916908373ffffffffffffffffffffffffffffffffffffffff16021790555084601360006101000a81548173ffffffffffffffffffffffffffffffffffffffff021916908373ffffffffffffffffffffffffffffffffffffffff16021790555083601460006101000a81548173ffffffffffffffffffffffffffffffffffffffff021916908373ffffffffffffffffffffffffffffffffffffffff16021790555082601560006101000a81548173ffffffffffffffffffffffffffffffffffffffff021916908373ffffffffffffffffffffffffffffffffffffffff160217905550600160296000601560009054906101000a900473ffffffffffffffffffffffffffffffffffffffff1673ffffffffffffffffffffffffffffffffffffffff1673ffffffffffffffffffffffffffffffffffffffff16815260200190815260200160002060000160006101000a81548160ff021916908315150217905550600082141562000498574291505b6000811415620004a6574290505b81600181905550806007819055505050505050506200062b565b600080831415620004d5576000905062000545565b6000828402905082848281620004e757fe5b041462000540576040517f08c379a0000000000000000000000000000000000000000000000000000000008152600401808060200182810382526021815260200180620064036021913960400191505060405180910390fd5b809150505b92915050565b600080823b905060008111915050919050565b828054828255906000526020600020908101928215620005a2579160200282015b82811115620005a1578251829060ff169055916020019190600101906200057f565b5b509050620005b191906200060c565b5090565b828054828255906000526020600020908101928215620005f9579160200282015b82811115620005f8578251829060ff16905591602001919060010190620005d6565b5b5090506200060891906200060c565b5090565b5b80821115620006275760008160009055506001016200060d565b5090565b615dc8806200063b6000396000f3fe6080604052600436106104265760003560e01c8063818d8c0411610229578063b56d39521161012e578063eba21fdf116100b6578063f4bc8a131161007a578063f4bc8a1314611887578063f9c23a5b146118c2578063fbfab74e146118ed578063fc6ced5f14611928578063fc77aa481461195357610426565b8063eba21fdf14611790578063ebf7301f146117cb578063ee579481146117f6578063f10e1cdf14611821578063f3c2c3bd1461184c57610426565b8063cf59f86a116100fd578063cf59f86a14611437578063d321fe2914611462578063d624722d1461148d578063dee120ea146116a9578063df21aa0f1461171057610426565b8063b56d39521461132d578063c64b4d1b1461137e578063cdd35fbe146113a9578063cde319481461140c57610426565b80639d76ea58116101b1578063ab2adc0011610180578063ab2adc0014611207578063ac4afa3814611232578063ade7d39114611288578063aef2afc9146112d7578063b162d5dc1461130257610426565b80639d76ea581461105c5780639f909e461461109d578063a4af8584146110c8578063aa2822951461110357610426565b806385f2aef2116101f857806385f2aef214610f235780638d02913a14610f645780638da5cb5b14610f9f57806391cca3db14610fe0578063928076f11461102157610426565b8063818d8c0414610e7b57806382b2e25714610eb65780638387570814610ee1578063841062bd14610ef857610426565b806342b39a5e1161032f57806368860d9f116102b75780637642c32a116102865780637642c32a14610d5357806376bc102514610d7e57806376ce007d14610da957806378e9792514610de45780637f4f987014610e0f57610426565b806368860d9f14610c525780636a38b64614610ca857806371b801db14610ced578063736f616b14610d1857610426565b8063567e98f9116102fe578063567e98f914610af2578063584c8fc114610b1d57806359fb49f914610b485780635a9b0b8914610bc2578063658e28a414610c1757610426565b806342b39a5e146109ea57806342d0d1ca14610a4d57806343b500e314610a9c5780634fe7edff14610ac757610426565b806330f1ebb9116103b25780633859577a116103815780633859577a146108755780633b7379e2146108b05780633b7da8891461091f5780633c376d8e1461096e5780633e1430af146109a957610426565b806330f1ebb9146107b9578063344fbb4a146107e457806334e927d01461080f57806335c34d561461083a57610426565b8063113c98fc116103f9578063113c98fc1461064157806316f0115b1461066c5780632bcc23f8146106975780632ddbd13a146107535780632e1a7d4d1461077e57610426565b806302bd2ede1461042b578063075b6f351461059357806307973ccf146105be5780630c51b88f146105e9575b600080fd5b34801561043757600080fd5b506104646004803603602081101561044e57600080fd5b810190808035906020019092919050505061197e565b6040518080602001806020018060200180602001858103855289818151815260200191508051906020019060200280838360005b838110156104b3578082015181840152602081019050610498565b50505050905001858103845288818151815260200191508051906020019060200280838360005b838110156104f55780820151818401526020810190506104da565b50505050905001858103835287818151815260200191508051906020019060200280838360005b8381101561053757808201518184015260208101905061051c565b50505050905001858103825286818151815260200191508051906020019060200280838360005b8381101561057957808201518184015260208101905061055e565b505050509050019850505050505050505060405180910390f35b34801561059f57600080fd5b506105a8611c40565b6040518082815260200191505060405180910390f35b3480156105ca57600080fd5b506105d3611c46565b6040518082815260200191505060405180910390f35b61063f600480360360608110156105ff57600080fd5b81019080803573ffffffffffffffffffffffffffffffffffffffff1690602001909291908035906020019092919080359060200190929190505050611c4c565b005b34801561064d57600080fd5b5061065661206a565b6040518082815260200191505060405180910390f35b34801561067857600080fd5b50610681612070565b6040518082815260200191505060405180910390f35b3480156106a357600080fd5b506106e6600480360360208110156106ba57600080fd5b81019080803573ffffffffffffffffffffffffffffffffffffffff169060200190929190505050612076565b604051808b151581526020018a73ffffffffffffffffffffffffffffffffffffffff1681526020018981526020018881526020018781526020018681526020018581526020018481526020018381526020018281526020019a505050505050505050505060405180910390f35b34801561075f57600080fd5b506107686120f7565b6040518082815260200191505060405180910390f35b34801561078a57600080fd5b506107b7600480360360208110156107a157600080fd5b81019080803590602001909291905050506120fd565b005b3480156107c557600080fd5b506107ce612330565b6040518082815260200191505060405180910390f35b3480156107f057600080fd5b506107f9612336565b6040518082815260200191505060405180910390f35b34801561081b57600080fd5b5061082461236c565b6040518082815260200191505060405180910390f35b34801561084657600080fd5b506108736004803603602081101561085d57600080fd5b81019080803590602001909291905050506123a2565b005b34801561088157600080fd5b506108ae6004803603602081101561089857600080fd5b8101908080359060200190929190505050612406565b005b3480156108bc57600080fd5b50610909600480360360408110156108d357600080fd5b8101908080359060200190929190803573ffffffffffffffffffffffffffffffffffffffff16906020019092919050505061246a565b6040518082815260200191505060405180910390f35b34801561092b57600080fd5b5061096c6004803603606081101561094257600080fd5b8101908080359060200190929190803590602001909291908035906020019092919050505061248f565b005b34801561097a57600080fd5b506109a76004803603602081101561099157600080fd5b8101908080359060200190929190505050612537565b005b3480156109b557600080fd5b506109be61259b565b604051808273ffffffffffffffffffffffffffffffffffffffff16815260200191505060405180910390f35b3480156109f657600080fd5b50610a3760048036036060811015610a0d57600080fd5b810190808035906020019092919080359060200190929190803590602001909291905050506125c1565b6040518082815260200191505060405180910390f35b348015610a5957600080fd5b50610a8660048036036020811015610a7057600080fd5b8101908080359060200190929190505050612610565b6040518082815260200191505060405180910390f35b348015610aa857600080fd5b50610ab1612628565b6040518082815260200191505060405180910390f35b348015610ad357600080fd5b50610adc61265e565b6040518082815260200191505060405180910390f35b348015610afe57600080fd5b50610b07612664565b6040518082815260200191505060405180910390f35b348015610b2957600080fd5b50610b3261266a565b6040518082815260200191505060405180910390f35b348015610b5457600080fd5b50610b8160048036036020811015610b6b57600080fd5b8101908080359060200190929190505050612670565b604051808573ffffffffffffffffffffffffffffffffffffffff16815260200184815260200183815260200182815260200194505050505060405180910390f35b348015610bce57600080fd5b50610bd76126d0565b6040518088815260200187815260200186815260200185815260200184815260200183815260200182815260200197505050505050505060405180910390f35b348015610c2357600080fd5b50610c5060048036036020811015610c3a57600080fd5b8101908080359060200190929190505050612707565b005b348015610c5e57600080fd5b50610c8b60048036036020811015610c7557600080fd5b81019080803590602001909291905050506129b6565b604051808381526020018281526020019250505060405180910390f35b348015610cb457600080fd5b50610ceb60048036036040811015610ccb57600080fd5b8101908080359060200190929190803590602001909291905050506129f0565b005b348015610cf957600080fd5b50610d02612ad6565b6040518082815260200191505060405180910390f35b348015610d2457600080fd5b50610d5160048036036020811015610d3b57600080fd5b8101908080359060200190929190505050612adc565b005b348015610d5f57600080fd5b50610d68612b40565b6040518082815260200191505060405180910390f35b348015610d8a57600080fd5b50610d93612b46565b6040518082815260200191505060405180910390f35b348015610db557600080fd5b50610de260048036036020811015610dcc57600080fd5b8101908080359060200190929190505050612b4c565b005b348015610df057600080fd5b50610df9612be7565b6040518082815260200191505060405180910390f35b348015610e1b57600080fd5b50610e24612bed565b6040518080602001828103825283818151815260200191508051906020019060200280838360005b83811015610e67578082015181840152602081019050610e4c565b505050509050019250505060405180910390f35b348015610e8757600080fd5b50610eb460048036036020811015610e9e57600080fd5b8101908080359060200190929190505050612d8f565b005b348015610ec257600080fd5b50610ecb612df3565b6040518082815260200191505060405180910390f35b348015610eed57600080fd5b50610ef6612ec1565b005b348015610f0457600080fd5b50610f0d613039565b6040518082815260200191505060405180910390f35b348015610f2f57600080fd5b50610f3861306f565b604051808273ffffffffffffffffffffffffffffffffffffffff16815260200191505060405180910390f35b348015610f7057600080fd5b50610f9d60048036036020811015610f8757600080fd5b8101908080359060200190929190505050613095565b005b348015610fab57600080fd5b50610fb46130fe565b604051808273ffffffffffffffffffffffffffffffffffffffff16815260200191505060405180910390f35b348015610fec57600080fd5b50610ff5613124565b604051808273ffffffffffffffffffffffffffffffffffffffff16815260200191505060405180910390f35b34801561102d57600080fd5b5061105a6004803603602081101561104457600080fd5b810190808035906020019092919050505061314a565b005b34801561106857600080fd5b506110716131ae565b604051808273ffffffffffffffffffffffffffffffffffffffff16815260200191505060405180910390f35b3480156110a957600080fd5b506110b26131d2565b6040518082815260200191505060405180910390f35b3480156110d457600080fd5b50611101600480360360208110156110eb57600080fd5b8101908080359060200190929190505050613208565b005b34801561110f57600080fd5b5061113c6004803603602081101561112657600080fd5b810190808035906020019092919050505061326c565b6040518085600460200280838360005b8381101561116757808201518184015260208101905061114c565b5050505090500184600460200280838360005b8381101561119557808201518184015260208101905061117a565b5050505090500183600460200280838360005b838110156111c35780820151818401526020810190506111a8565b5050505090500182600460200280838360005b838110156111f15780820151818401526020810190506111d6565b5050505090500194505050505060405180910390f35b34801561121357600080fd5b5061121c613452565b6040518082815260200191505060405180910390f35b34801561123e57600080fd5b5061126b6004803603602081101561125557600080fd5b8101908080359060200190929190505050613458565b604051808381526020018281526020019250505060405180910390f35b34801561129457600080fd5b506112c1600480360360208110156112ab57600080fd5b810190808035906020019092919050505061347c565b6040518082815260200191505060405180910390f35b3480156112e357600080fd5b506112ec613493565b6040518082815260200191505060405180910390f35b34801561130e57600080fd5b50611317613499565b6040518082815260200191505060405180910390f35b34801561133957600080fd5b506113666004803603602081101561135057600080fd5b810190808035906020019092919050505061349f565b60405180821515815260200191505060405180910390f35b34801561138a57600080fd5b506113936134bf565b6040518082815260200191505060405180910390f35b3480156113b557600080fd5b506113f6600480360360608110156113cc57600080fd5b810190808035906020019092919080359060200190929190803590602001909291905050506134c5565b6040518082815260200191505060405180910390f35b34801561141857600080fd5b50611421613585565b6040518082815260200191505060405180910390f35b34801561144357600080fd5b5061144c61358b565b6040518082815260200191505060405180910390f35b34801561146e57600080fd5b50611477613591565b6040518082815260200191505060405180910390f35b34801561149957600080fd5b506114a2613a6c565b604051808060200180602001806020018060200180602001806020018060200188810388528f818151815260200191508051906020019060200280838360005b838110156114fd5780820151818401526020810190506114e2565b5050505090500188810387528e818151815260200191508051906020019060200280838360005b8381101561153f578082015181840152602081019050611524565b5050505090500188810386528d818151815260200191508051906020019060200280838360005b83811015611581578082015181840152602081019050611566565b5050505090500188810385528c818151815260200191508051906020019060200280838360005b838110156115c35780820151818401526020810190506115a8565b5050505090500188810384528b818151815260200191508051906020019060200280838360005b838110156116055780820151818401526020810190506115ea565b5050505090500188810383528a818151815260200191508051906020019060200280838360005b8381101561164757808201518184015260208101905061162c565b50505050905001888103825289818151815260200191508051906020019060200280838360005b8381101561168957808201518184015260208101905061166e565b505050509050019e50505050505050505050505050505060405180910390f35b3480156116b557600080fd5b506116ec600480360360408110156116cc57600080fd5b810190808035906020019092919080359060200190929190505050613f00565b60405180848152602001838152602001828152602001935050505060405180910390f35b34801561171c57600080fd5b506117496004803603602081101561173357600080fd5b8101908080359060200190929190505050614085565b604051808981526020018881526020018781526020018681526020018581526020018481526020018381526020018281526020019850505050505050505060405180910390f35b34801561179c57600080fd5b506117c9600480360360208110156117b357600080fd5b8101908080359060200190929190505050614128565b005b3480156117d757600080fd5b506117e0614191565b6040518082815260200191505060405180910390f35b34801561180257600080fd5b5061180b614197565b6040518082815260200191505060405180910390f35b34801561182d57600080fd5b5061183661419d565b6040518082815260200191505060405180910390f35b34801561185857600080fd5b506118856004803603602081101561186f57600080fd5b81019080803590602001909291905050506141a3565b005b34801561189357600080fd5b506118c0600480360360208110156118aa57600080fd5b8101908080359060200190929190505050614207565b005b3480156118ce57600080fd5b506118d761426b565b6040518082815260200191505060405180910390f35b3480156118f957600080fd5b506119266004803603602081101561191057600080fd5b8101908080359060200190929190505050614271565b005b34801561193457600080fd5b5061193d6142d5565b6040518082815260200191505060405180910390f35b34801561195f57600080fd5b506119686142db565b6040518082815260200191505060405180910390f35b60608060608060008061199c8760235461439790919063ffffffff16565b9150506119b4816023546143bf90919063ffffffff16565b96508667ffffffffffffffff811180156119cd57600080fd5b506040519080825280602002602001820160405280156119fc5781602001602082028036833780820191505090505b5095508667ffffffffffffffff81118015611a1657600080fd5b50604051908082528060200260200182016040528015611a455781602001602082028036833780820191505090505b5094508667ffffffffffffffff81118015611a5f57600080fd5b50604051908082528060200260200182016040528015611a8e5781602001602082028036833780820191505090505b5093508667ffffffffffffffff81118015611aa857600080fd5b50604051908082528060200260200182016040528015611ad75781602001602082028036833780820191505090505b509250600060235490505b81811115611c365760226001820381548110611afa57fe5b906000526020600020906004020160000160009054906101000a900473ffffffffffffffffffffffffffffffffffffffff16878481518110611b3857fe5b602002602001019073ffffffffffffffffffffffffffffffffffffffff16908173ffffffffffffffffffffffffffffffffffffffff168152505060226001820381548110611b8257fe5b906000526020600020906004020160010154868481518110611ba057fe5b60200260200101818152505060226001820381548110611bbc57fe5b906000526020600020906004020160030154848481518110611bda57fe5b60200260200101818152505060226001820381548110611bf657fe5b906000526020600020906004020160020154858481518110611c1457fe5b6020026020010181815250508280600101935050808060019003915050611ae2565b5050509193509193565b601f5481565b601d5481565b600154421015611cc4576040517f08c379a00000000000000000000000000000000000000000000000000000000081526004018080602001828103825260098152602001807f4e6f74207374617274000000000000000000000000000000000000000000000081525060200191505060405180910390fd5b620f424060095481611cd257fe5b04811015611d2b576040517f08c379a000000000000000000000000000000000000000000000000000000000815260040180806020018281038252602a815260200180615bfd602a913960400191505060405180910390fd5b620f424060085481611d3957fe5b04811115611d92576040517f08c379a000000000000000000000000000000000000000000000000000000000815260040180806020018281038252602a815260200180615d69602a913960400191505060405180910390fd5b620f4240602160008481526020019081526020016000206001015481611db457fe5b04611ddb82602060008681526020019081526020016000205461444290919063ffffffff16565b1115611e4f576040517f08c379a000000000000000000000000000000000000000000000000000000000815260040180806020018281038252601d8152602001807f4578636565647320706f6f6c20696e766573746d656e74206c696d697400000081525060200191505060405180910390fd5b601f5481602960003373ffffffffffffffffffffffffffffffffffffffff1673ffffffffffffffffffffffffffffffffffffffff16815260200190815260200160002060020154011115611eee576040517f08c379a0000000000000000000000000000000000000000000000000000000008152600401808060200182810382526024815260200180615bae6024913960400191505060405180910390fd5b611ef93330836144ca565b611f6b576040517f08c379a00000000000000000000000000000000000000000000000000000000081526004018080602001828103825260158152602001807f546f6b656e207472616e73666572206661696c6564000000000000000000000081525060200191505060405180910390fd5b611f9181602060008581526020019081526020016000205461444290919063ffffffff16565b6020600084815260200190815260200160002081905550602a600083815260200190815260200160002060008154809291906001019190505550611fe081601c5461444290919063ffffffff16565b601c81905550611ffc6001601d5461444290919063ffffffff16565b601d8190555061200b836145c4565b6120178282600061497e565b3373ffffffffffffffffffffffffffffffffffffffff167febedb8b3c678666e7f36970bc8f57abf6d8fa2e828c0da91ea5b75bf68ed101a826040518082815260200191505060405180910390a2505050565b600e5481565b60035481565b60296020528060005260406000206000915090508060000160009054906101000a900460ff16908060000160019054906101000a900473ffffffffffffffffffffffffffffffffffffffff1690806001015490806002015490806003015490806004015490806005015490806006015490806007015490806008015490508a565b60025481565b601e54602960003373ffffffffffffffffffffffffffffffffffffffff1673ffffffffffffffffffffffffffffffffffffffff16815260200190815260200160002060080154014210156121b9576040517f08c379a000000000000000000000000000000000000000000000000000000000815260040180806020018281038252601f8152602001807f436f6f6c2d646f776e20706572696f6420686173206e6f74207061737365640081525060200191505060405180910390fd5b6121c28161535a565b90506122036040518060400160405280601e81526020017f616d6f756e7420696e207769746864726177202d2d2d2d2d2d2d2d2d2d2d000081525082615562565b42602960003373ffffffffffffffffffffffffffffffffffffffff1673ffffffffffffffffffffffffffffffffffffffff16815260200190815260200160002060080181905550600060065411801561225d575042600654105b156122df5761226c3382615669565b6122de576040517f08c379a00000000000000000000000000000000000000000000000000000000081526004018080602001828103825260158152602001807f546f6b656e207472616e73666572206661696c6564000000000000000000000081525060200191505060405180910390fd5b5b3373ffffffffffffffffffffffffffffffffffffffff167f884edad9ce6fa2440d8a54cc123490eb96d2768479d49ff9c7366125a9424364826040518082815260200191505060405180910390a250565b601e5481565b60008061234e6001544261439790919063ffffffff16565b9150506123666018548261574490919063ffffffff16565b91505090565b6000806123846001544261439790919063ffffffff16565b91505061239c6018548261574490919063ffffffff16565b91505090565b601660009054906101000a900473ffffffffffffffffffffffffffffffffffffffff1673ffffffffffffffffffffffffffffffffffffffff163373ffffffffffffffffffffffffffffffffffffffff16146123fc57600080fd5b80600b8190555050565b601660009054906101000a900473ffffffffffffffffffffffffffffffffffffffff1673ffffffffffffffffffffffffffffffffffffffff163373ffffffffffffffffffffffffffffffffffffffff161461246057600080fd5b80600e8190555050565b6027602052816000526040600020602052806000526040600020600091509150505481565b601660009054906101000a900473ffffffffffffffffffffffffffffffffffffffff1673ffffffffffffffffffffffffffffffffffffffff163373ffffffffffffffffffffffffffffffffffffffff16146124e957600080fd5b6040518060400160405280620f424084028152602001620f42408302815250602160008581526020019081526020016000206000820151816000015560208201518160010155905050505050565b601660009054906101000a900473ffffffffffffffffffffffffffffffffffffffff1673ffffffffffffffffffffffffffffffffffffffff163373ffffffffffffffffffffffffffffffffffffffff161461259157600080fd5b80600f8190555050565b601460009054906101000a900473ffffffffffffffffffffffffffffffffffffffff1681565b600061260760646125f9846125eb620f424088816125db57fe5b048961431190919063ffffffff16565b61431190919063ffffffff16565b61574490919063ffffffff16565b90509392505050565b602a6020528060005260406000206000915090505481565b6000806126406007544261439790919063ffffffff16565b9150506126586017548261574490919063ffffffff16565b91505090565b60065481565b601c5481565b60085481565b6022818154811061268057600080fd5b90600052602060002090600402016000915090508060000160009054906101000a900473ffffffffffffffffffffffffffffffffffffffff16908060010154908060020154908060030154905084565b6000806000806000806000600154600254600354600454600554600654600754965096509650965096509650965090919293949596565b6000602960003373ffffffffffffffffffffffffffffffffffffffff1673ffffffffffffffffffffffffffffffffffffffff168152602001908152602001600020905080600a018054905082106127c6576040517f08c379a00000000000000000000000000000000000000000000000000000000081526004018080602001828103825260188152602001807f496e76616c696420696e766573746d656e7420696e646578000000000000000081525060200191505060405180910390fd5b600081600a0183815481106127d757fe5b906000526020600020906009020190508060010154421015612844576040517f08c379a000000000000000000000000000000000000000000000000000000000815260040180806020018281038252605c815260200180615c73605c913960600191505060405180910390fd5b6000816003015490506128573382615669565b6128c9576040517f08c379a00000000000000000000000000000000000000000000000000000000081526004018080602001828103825260158152602001807f546f6b656e207472616e73666572206661696c6564000000000000000000000081525060200191505060405180910390fd5b6128e08184600201546143bf90919063ffffffff16565b83600201819055506128ff81846003015461444290919063ffffffff16565b836003018190555042836005018190555061292581601c546143bf90919063ffffffff16565b601c819055506129416001601d546143bf90919063ffffffff16565b601d8190555061295c816002546143bf90919063ffffffff16565b6002819055503373ffffffffffffffffffffffffffffffffffffffff167fee1b5abe14e43ee34008f06f51efca5382c42fb48b0a040fd7a5f5c630cb5580826040518082815260200191505060405180910390a250505050565b6000806021600084815260200190815260200160002060000154602160008581526020019081526020016000206001015491509150915091565b6129f98161535a565b9050612a063330836144ca565b612a78576040517f08c379a00000000000000000000000000000000000000000000000000000000081526004018080602001828103825260158152602001807f546f6b656e207472616e73666572206661696c6564000000000000000000000081525060200191505060405180910390fd5b612a848282600161497e565b3373ffffffffffffffffffffffffffffffffffffffff167fb4f3774a35ef894e2fa407041b6832aa9df8f4aae5449664eaa08febb13f8c2d826040518082815260200191505060405180910390a25050565b60105481565b601660009054906101000a900473ffffffffffffffffffffffffffffffffffffffff1673ffffffffffffffffffffffffffffffffffffffff163373ffffffffffffffffffffffffffffffffffffffff1614612b3657600080fd5b80601e8190555050565b60245481565b60075481565b601660009054906101000a900473ffffffffffffffffffffffffffffffffffffffff1673ffffffffffffffffffffffffffffffffffffffff163373ffffffffffffffffffffffffffffffffffffffff1614612ba657600080fd5b80601f819055507f46135e22ee060113e861a7db0b947b6c197a519b238a8e6c18d6ecb1f98df842816040518082815260200191505060405180910390a150565b60015481565b60606000602960003373ffffffffffffffffffffffffffffffffffffffff1673ffffffffffffffffffffffffffffffffffffffff168152602001908152602001600020600a01805480602002602001604051908101604052809291908181526020016000905b82821015612cf157838290600052602060002090600902016040518061012001604052908160008201548152602001600182015481526020016002820154815260200160038201548152602001600482015481526020016005820154815260200160068201548152602001600782015481526020016008820160009054906101000a900460ff16151515158152505081526020019060010190612c53565b505050509050805167ffffffffffffffff81118015612d0f57600080fd5b50604051908082528060200260200182016040528015612d3e5781602001602082028036833780820191505090505b50915060005b8151811015612d8a57818181518110612d5957fe5b602002602001015160a00151838281518110612d7157fe5b6020026020010181815250508080600101915050612d44565b505090565b601660009054906101000a900473ffffffffffffffffffffffffffffffffffffffff1673ffffffffffffffffffffffffffffffffffffffff163373ffffffffffffffffffffffffffffffffffffffff1614612de957600080fd5b8060118190555050565b60008060008054906101000a900473ffffffffffffffffffffffffffffffffffffffff1690508073ffffffffffffffffffffffffffffffffffffffff166370a08231306040518263ffffffff1660e01b8152600401808273ffffffffffffffffffffffffffffffffffffffff16815260200191505060206040518083038186803b158015612e8057600080fd5b505afa158015612e94573d6000803e3d6000fd5b505050506040513d6020811015612eaa57600080fd5b810190808051906020019092919050505091505090565b601660009054906101000a900473ffffffffffffffffffffffffffffffffffffffff1673ffffffffffffffffffffffffffffffffffffffff163373ffffffffffffffffffffffffffffffffffffffff1614612f1b57600080fd5b612f4e601660009054906101000a900473ffffffffffffffffffffffffffffffffffffffff16612f49612df3565b615669565b612fc0576040517f08c379a00000000000000000000000000000000000000000000000000000000081526004018080602001828103825260158152602001807f546f6b656e207472616e73666572206661696c6564000000000000000000000081525060200191505060405180910390fd5b601660009054906101000a900473ffffffffffffffffffffffffffffffffffffffff1673ffffffffffffffffffffffffffffffffffffffff167f884edad9ce6fa2440d8a54cc123490eb96d2768479d49ff9c7366125a9424364613022612df3565b6040518082815260200191505060405180910390a2565b6000806130516001544261439790919063ffffffff16565b9150506130696018548261574490919063ffffffff16565b91505090565b601560009054906101000a900473ffffffffffffffffffffffffffffffffffffffff1681565b601660009054906101000a900473ffffffffffffffffffffffffffffffffffffffff1673ffffffffffffffffffffffffffffffffffffffff163373ffffffffffffffffffffffffffffffffffffffff16146130ef57600080fd5b620f4240810260098190555050565b601660009054906101000a900473ffffffffffffffffffffffffffffffffffffffff1681565b601360009054906101000a900473ffffffffffffffffffffffffffffffffffffffff1681565b601660009054906101000a900473ffffffffffffffffffffffffffffffffffffffff1673ffffffffffffffffffffffffffffffffffffffff163373ffffffffffffffffffffffffffffffffffffffff16146131a457600080fd5b80600c8190555050565b60008054906101000a900473ffffffffffffffffffffffffffffffffffffffff1681565b6000806131ea6001544261439790919063ffffffff16565b9150506132026018548261574490919063ffffffff16565b91505090565b601660009054906101000a900473ffffffffffffffffffffffffffffffffffffffff1673ffffffffffffffffffffffffffffffffffffffff163373ffffffffffffffffffffffffffffffffffffffff161461326257600080fd5b8060108190555050565b613274615b19565b61327c615b3b565b613284615b3b565b61328c615b3b565b600060266000878152602001908152602001600020600480602002604051908101604052809291906000905b82821015613354578382600402016040518060800160405290816000820160009054906101000a900473ffffffffffffffffffffffffffffffffffffffff1673ffffffffffffffffffffffffffffffffffffffff1673ffffffffffffffffffffffffffffffffffffffff1681526020016001820154815260200160028201548152602001600382015481525050815260200190600101906132b8565b50505050905060005b60048110156134495781816004811061337257fe5b60200201516000015186826004811061338757fe5b602002019073ffffffffffffffffffffffffffffffffffffffff16908173ffffffffffffffffffffffffffffffffffffffff16815250508181600481106133ca57fe5b6020020151602001518582600481106133df57fe5b6020020181815250508181600481106133f457fe5b60200201516040015184826004811061340957fe5b60200201818152505081816004811061341e57fe5b60200201516060015183826004811061343357fe5b602002018181525050808060010191505061335d565b50509193509193565b60055481565b60216020528060005260406000206000915090508060000154908060010154905082565b602080528060005260406000206000915090505481565b60045481565b60095481565b60286020528060005260406000206000915054906101000a900460ff1681565b60115481565b600083905060005b6012811015613568578083111561351e57613517826135096103e86134fb888761431190919063ffffffff16565b61574490919063ffffffff16565b61444290919063ffffffff16565b915061355b565b6135588261354a6103e861353c60008761431190919063ffffffff16565b61574490919063ffffffff16565b61444290919063ffffffff16565b91505b80806001019150506134cd565b5061357c84826143bf90919063ffffffff16565b90509392505050565b600f5481565b60235481565b600080602960003373ffffffffffffffffffffffffffffffffffffffff1673ffffffffffffffffffffffffffffffffffffffff168152602001908152602001600020604051806101800160405290816000820160009054906101000a900460ff161515151581526020016000820160019054906101000a900473ffffffffffffffffffffffffffffffffffffffff1673ffffffffffffffffffffffffffffffffffffffff1673ffffffffffffffffffffffffffffffffffffffff16815260200160018201548152602001600282015481526020016003820154815260200160048201548152602001600582015481526020016006820154815260200160078201548152602001600882015481526020016009820180548060200260200160405190810160405280929190818152602001828054801561372557602002820191906000526020600020905b8160009054906101000a900473ffffffffffffffffffffffffffffffffffffffff1673ffffffffffffffffffffffffffffffffffffffff16815260200190600101908083116136db575b50505050508152602001600a8201805480602002602001604051908101604052809291908181526020016000905b828210156137f157838290600052602060002090600902016040518061012001604052908160008201548152602001600182015481526020016002820154815260200160038201548152602001600482015481526020016005820154815260200160068201548152602001600782015481526020016008820160009054906101000a900460ff16151515158152505081526020019060010190613753565b505050508152505090508060a00151915061380a615b5d565b60005b82610160015151811015613a6657826101600151818151811061382c57fe5b602002602001015191506138756040518060400160405280601681526020017f6920696e20676574616d6f756e742d2d2d2d2d2d2d2d0000000000000000000081525082615562565b81602001518360c00151111561388a57613a59565b60028260e0015111156138c65781602001514210156138a857613a59565b6138bf82608001518561444290919063ffffffff16565b9350613a58565b60006138f76138e46017548560a0015161431190919063ffffffff16565b846080015161574490919063ffffffff16565b905060006139168560c0015185600001516157cd90919063ffffffff16565b905060006139314286602001516157e790919063ffffffff16565b90506139726040518060400160405280601781526020017f7261746520696e20676574616d6f756e742d2d2d2d2d2d00000000000000000081525084615562565b6139b16040518060400160405280601881526020017f737461727420696e20676574616d6f756e742d2d2d2d2d2d000000000000000081525083615562565b6139f06040518060400160405280601681526020017f656e6420696e20676574616d6f756e742d2d2d2d2d2d0000000000000000000081525082615562565b80821015613a5457613a2f613a2084613a1285856143bf90919063ffffffff16565b61431190919063ffffffff16565b8861444290919063ffffffff16565b9650613a53604051806060016040528060258152602001615c4e6025913988615562565b5b5050505b5b808060010191505061380d565b50505090565b60608060608060608060606000602960003373ffffffffffffffffffffffffffffffffffffffff1673ffffffffffffffffffffffffffffffffffffffff168152602001908152602001600020600a01805480602002602001604051908101604052809291908181526020016000905b82821015613b7957838290600052602060002090600902016040518061012001604052908160008201548152602001600182015481526020016002820154815260200160038201548152602001600482015481526020016005820154815260200160068201548152602001600782015481526020016008820160009054906101000a900460ff16151515158152505081526020019060010190613adb565b505050509050805167ffffffffffffffff81118015613b9757600080fd5b50604051908082528060200260200182016040528015613bc65781602001602082028036833780820191505090505b509750805167ffffffffffffffff81118015613be157600080fd5b50604051908082528060200260200182016040528015613c105781602001602082028036833780820191505090505b509650805167ffffffffffffffff81118015613c2b57600080fd5b50604051908082528060200260200182016040528015613c5a5781602001602082028036833780820191505090505b509550805167ffffffffffffffff81118015613c7557600080fd5b50604051908082528060200260200182016040528015613ca45781602001602082028036833780820191505090505b509450805167ffffffffffffffff81118015613cbf57600080fd5b50604051908082528060200260200182016040528015613cee5781602001602082028036833780820191505090505b509350805167ffffffffffffffff81118015613d0957600080fd5b50604051908082528060200260200182016040528015613d385781602001602082028036833780820191505090505b509250805167ffffffffffffffff81118015613d5357600080fd5b50604051908082528060200260200182016040528015613d825781602001602082028036833780820191505090505b50915060005b8151811015613ef557818181518110613d9d57fe5b602002602001015160200151898281518110613db557fe5b602002602001018181525050818181518110613dcd57fe5b602002602001015160000151888281518110613de557fe5b602002602001018181525050818181518110613dfd57fe5b602002602001015160600151878281518110613e1557fe5b602002602001018181525050818181518110613e2d57fe5b602002602001015160800151868281518110613e4557fe5b602002602001018181525050818181518110613e5d57fe5b602002602001015160c00151858281518110613e7557fe5b602002602001018181525050818181518110613e8d57fe5b602002602001015160e00151848281518110613ea557fe5b602002602001018181525050818181518110613ebd57fe5b60200260200101516101000151838281518110613ed657fe5b6020026020010190151590811515815250508080600101915050613d88565b505090919293949596565b60008060006001851415613f5857600b549250600f549150613f3a604051806060016040528060278152602001615c276027913983615562565b620f4240613f498584866125c1565b81613f5057fe5b04905061407e565b6002851415613fef57600c549250613f88604051806060016040528060278152602001615ccf6027913984615562565b6010549150613faf604051806060016040528060278152602001615d176027913983615562565b620f4240613fbe8584866125c1565b81613fc557fe5b049050613fea6040518060600160405280602b8152602001615bd2602b913982615562565b61407d565b600385141561404257600d5492506011549150620f42406140118584866125c1565b8161401857fe5b04905061403d6040518060600160405280602b8152602001615d3e602b913982615562565b61407c565b600485141561407b57600e54925061406b600a61405d615800565b61431190919063ffffffff16565b91506140788483856125c1565b90505b5b5b5b9250925092565b60008060008060008060008060008060018b14156140ac57600b549150600f5490506140d0565b60028b14156140c457600c54915060105490506140cf565b600d54915060115490505b5b600154602060008d815260200190815260200160002054602a60008e815260200190815260200160002054614103612df3565b6009546008548787995099509950995099509950995099505050919395975091939597565b601660009054906101000a900473ffffffffffffffffffffffffffffffffffffffff1673ffffffffffffffffffffffffffffffffffffffff163373ffffffffffffffffffffffffffffffffffffffff161461418257600080fd5b620f4240810260088190555050565b60125481565b600c5481565b600d5481565b601660009054906101000a900473ffffffffffffffffffffffffffffffffffffffff1673ffffffffffffffffffffffffffffffffffffffff163373ffffffffffffffffffffffffffffffffffffffff16146141fd57600080fd5b80600a8190555050565b601660009054906101000a900473ffffffffffffffffffffffffffffffffffffffff1673ffffffffffffffffffffffffffffffffffffffff163373ffffffffffffffffffffffffffffffffffffffff161461426157600080fd5b80600d8190555050565b600a5481565b601660009054906101000a900473ffffffffffffffffffffffffffffffffffffffff1673ffffffffffffffffffffffffffffffffffffffff163373ffffffffffffffffffffffffffffffffffffffff16146142cb57600080fd5b8060128190555050565b600b5481565b6000806142f36001544261439790919063ffffffff16565b91505061430b6018548261574490919063ffffffff16565b91505090565b6000808314156143245760009050614391565b600082840290508284828161433557fe5b041461438c576040517f08c379a0000000000000000000000000000000000000000000000000000000008152600401808060200182810382526021815260200180615cf66021913960400191505060405180910390fd5b809150505b92915050565b600080838311156143ae57600080915091506143b8565b6001838503915091505b9250929050565b600082821115614437576040517f08c379a000000000000000000000000000000000000000000000000000000000815260040180806020018281038252601e8152602001807f536166654d6174683a207375627472616374696f6e206f766572666c6f77000081525060200191505060405180910390fd5b818303905092915050565b6000808284019050838110156144c0576040517f08c379a000000000000000000000000000000000000000000000000000000000815260040180806020018281038252601b8152602001807f536166654d6174683a206164646974696f6e206f766572666c6f77000000000081525060200191505060405180910390fd5b8091505092915050565b60008060008054906101000a900473ffffffffffffffffffffffffffffffffffffffff1690508073ffffffffffffffffffffffffffffffffffffffff166323b872dd8686866040518463ffffffff1660e01b8152600401808473ffffffffffffffffffffffffffffffffffffffff1681526020018373ffffffffffffffffffffffffffffffffffffffff1681526020018281526020019350505050602060405180830381600087803b15801561457f57600080fd5b505af1158015614593573d6000803e3d6000fd5b505050506040513d60208110156145a957600080fd5b81019080805190602001909291905050509150509392505050565b602960003373ffffffffffffffffffffffffffffffffffffffff1673ffffffffffffffffffffffffffffffffffffffff16815260200190815260200160002060000160009054906101000a900460ff161561461e5761497b565b6001602960003373ffffffffffffffffffffffffffffffffffffffff1673ffffffffffffffffffffffffffffffffffffffff16815260200190815260200160002060000160006101000a81548160ff0219169083151502179055503373ffffffffffffffffffffffffffffffffffffffff168173ffffffffffffffffffffffffffffffffffffffff1614806147005750602960008273ffffffffffffffffffffffffffffffffffffffff1673ffffffffffffffffffffffffffffffffffffffff16815260200190815260200160002060000160009054906101000a900460ff16155b1561472b57601560009054906101000a900473ffffffffffffffffffffffffffffffffffffffff1690505b80602960003373ffffffffffffffffffffffffffffffffffffffff1673ffffffffffffffffffffffffffffffffffffffff16815260200190815260200160002060000160016101000a81548173ffffffffffffffffffffffffffffffffffffffff021916908373ffffffffffffffffffffffffffffffffffffffff160217905550602960008273ffffffffffffffffffffffffffffffffffffffff1673ffffffffffffffffffffffffffffffffffffffff168152602001908152602001600020600901339080600181540180825580915050600190039060005260206000200160009091909190916101000a81548173ffffffffffffffffffffffffffffffffffffffff021916908373ffffffffffffffffffffffffffffffffffffffff16021790555060005b600381101561497957602960008373ffffffffffffffffffffffffffffffffffffffff1673ffffffffffffffffffffffffffffffffffffffff16815260200190815260200160002060060160008154809291906001019190505550602960008373ffffffffffffffffffffffffffffffffffffffff1673ffffffffffffffffffffffffffffffffffffffff16815260200190815260200160002060000160019054906101000a900473ffffffffffffffffffffffffffffffffffffffff169150602960008373ffffffffffffffffffffffffffffffffffffffff1673ffffffffffffffffffffffffffffffffffffffff16815260200190815260200160002060000160009054906101000a900460ff1661496c575061497b565b8080600101915050614852565b505b50565b6000602960003373ffffffffffffffffffffffffffffffffffffffff1673ffffffffffffffffffffffffffffffffffffffff1681526020019081526020016000209050600083905082156149f6576149f360646149e560668761431190919063ffffffff16565b61574490919063ffffffff16565b90505b6000806000614a058885613f00565b9250925092506000614a3442614a268660175461431190919063ffffffff16565b61444290919063ffffffff16565b9050614a766040518060400160405280601a81526020017f7261746520616464496e766573746d656e742d2d2d2d2d2d2d2d000000000000815250848461581a565b600084111561534f57614a9660195460015461444290919063ffffffff16565b421115614b2457614ad8614ac76064614ab960538c61431190919063ffffffff16565b61574490919063ffffffff16565b60035461444290919063ffffffff16565b600381905550614b19614b086064614afa60038c61431190919063ffffffff16565b61574490919063ffffffff16565b60045461444290919063ffffffff16565b600481905550614c29565b614b5f614b4e6064614b4060548c61431190919063ffffffff16565b61574490919063ffffffff16565b60035461444290919063ffffffff16565b600381905550614ba0614b8f6064614b8160028c61431190919063ffffffff16565b61574490919063ffffffff16565b60045461444290919063ffffffff16565b600481905550614be76040518060400160405280600e81526020017f656c736520706f6f6c2d2d2d2d2d000000000000000000000000000000000000815250600354615562565b614c286040518060400160405280601581526020017f656c73652072616e6b20706f6f6c2d2d2d2d2d2d2d0000000000000000000000815250600454615562565b5b614c3e8860025461444290919063ffffffff16565b600281905550614c5b88876002015461444290919063ffffffff16565b866002018190555060008660000160019054906101000a900473ffffffffffffffffffffffffffffffffffffffff1690506000614c96612628565b9050614cd76040518060400160405280600f81526020017f72616e6b20696e6465782d2d2d2d2d000000000000000000000000000000000081525082615562565b60005b600381101561515a57602960008473ffffffffffffffffffffffffffffffffffffffff1673ffffffffffffffffffffffffffffffffffffffff16815260200190815260200160002060000160009054906101000a900460ff16614d3c5761515a565b614d7b6040518060400160405280601581526020017f696e6465782061667465723d3d3d3d3d3d3d3d3d3d000000000000000000000081525082615562565b6000614dba6064614dac601b8581548110614d9257fe5b90600052602060002001548f61431190919063ffffffff16565b61574490919063ffffffff16565b9050614dfb6040518060400160405280601981526020017f72657761726420696e7369646520696e766573743d3d3d3d3d0000000000000081525082615562565b614e5081602960008773ffffffffffffffffffffffffffffffffffffffff1673ffffffffffffffffffffffffffffffffffffffff1681526020019081526020016000206001015461444290919063ffffffff16565b602960008673ffffffffffffffffffffffffffffffffffffffff1673ffffffffffffffffffffffffffffffffffffffff16815260200190815260200160002060010181905550614eeb81602960008773ffffffffffffffffffffffffffffffffffffffff1673ffffffffffffffffffffffffffffffffffffffff1681526020019081526020016000206004015461444290919063ffffffff16565b602960008673ffffffffffffffffffffffffffffffffffffffff1673ffffffffffffffffffffffffffffffffffffffff16815260200190815260200160002060040181905550614f868c602960008773ffffffffffffffffffffffffffffffffffffffff1673ffffffffffffffffffffffffffffffffffffffff1681526020019081526020016000206007015461444290919063ffffffff16565b602960008673ffffffffffffffffffffffffffffffffffffffff1673ffffffffffffffffffffffffffffffffffffffff1681526020019081526020016000206007018190555060008214156150e7576150388c6027600086815260200190815260200160002060008773ffffffffffffffffffffffffffffffffffffffff1673ffffffffffffffffffffffffffffffffffffffff1681526020019081526020016000205461444290919063ffffffff16565b6027600085815260200190815260200160002060008673ffffffffffffffffffffffffffffffffffffffff1673ffffffffffffffffffffffffffffffffffffffff168152602001908152602001600020819055506150e6846027600086815260200190815260200160002060008773ffffffffffffffffffffffffffffffffffffffff1673ffffffffffffffffffffffffffffffffffffffff1681526020019081526020016000205461592a565b5b602960008573ffffffffffffffffffffffffffffffffffffffff1673ffffffffffffffffffffffffffffffffffffffff16815260200190815260200160002060000160019054906101000a900473ffffffffffffffffffffffffffffffffffffffff169350508080600101915050614cda565b5087600a01604051806101200160405280428152602001858152602001898152602001615190878b61444290919063ffffffff16565b81526020018681526020018881526020018781526020018d81526020018b15158152509080600181540180825580915050600190039060005260206000209060090201600090919091909150600082015181600001556020820151816001015560408201518160020155606082015181600301556080820151816004015560a0820151816005015560c0820151816006015560e082015181600701556101008201518160080160006101000a81548160ff021916908315150217905550505060006006541480615261575042600654115b1561534c57602260405180608001604052803373ffffffffffffffffffffffffffffffffffffffff1681526020018c81526020016000815260200142815250908060018154018082558091505060019003906000526020600020906004020160009091909190915060008201518160000160006101000a81548173ffffffffffffffffffffffffffffffffffffffff021916908373ffffffffffffffffffffffffffffffffffffffff16021790555060208201518160010155604082015181600201556060820151816003015550506023600081548092919060010191905055506023546024819055505b50505b505050505050505050565b600080615365613591565b90506000602960003373ffffffffffffffffffffffffffffffffffffffff1673ffffffffffffffffffffffffffffffffffffffff168152602001908152602001600020905060008414806153b857508184115b156153c1578193505b6003548411156153d15760035493505b60008411615447576040517f08c379a000000000000000000000000000000000000000000000000000000000815260040180806020018281038252600c8152602001807f4572726f7220616d6f756e74000000000000000000000000000000000000000081525060200191505060405180910390fd5b61545e8482600401546143bf90919063ffffffff16565b816004018190555061547d84826003015461444290919063ffffffff16565b81600301819055504281600501819055506154a3846003546143bf90919063ffffffff16565b60038190555060006006541480156154e357506154e06154cf600260175461431190919063ffffffff16565b60015461444290919063ffffffff16565b42115b80156154f85750601a54600a0a600a02600354105b15615519576155126017544261444290919063ffffffff16565b6006819055505b6155586040518060400160405280601d81526020017f616d6f756e7420696e20757064617465207265776172642d2d2d2d2d2d00000081525085615562565b8392505050919050565b61566582826040516024018080602001838152602001828103825284818151815260200191508051906020019080838360005b838110156155b0578082015181840152602081019050615595565b50505050905090810190601f1680156155dd5780820380516001836020036101000a031916815260200191505b5093505050506040516020818303038152906040527fb60e72cc000000000000000000000000000000000000000000000000000000007bffffffffffffffffffffffffffffffffffffffffffffffffffffffff19166020820180517bffffffffffffffffffffffffffffffffffffffffffffffffffffffff8381831617835250505050615ad3565b5050565b60008060008054906101000a900473ffffffffffffffffffffffffffffffffffffffff1690508073ffffffffffffffffffffffffffffffffffffffff1663a9059cbb85856040518363ffffffff1660e01b8152600401808373ffffffffffffffffffffffffffffffffffffffff16815260200182815260200192505050602060405180830381600087803b15801561570057600080fd5b505af1158015615714573d6000803e3d6000fd5b505050506040513d602081101561572a57600080fd5b810190808051906020019092919050505091505092915050565b60008082116157bb576040517f08c379a000000000000000000000000000000000000000000000000000000000815260040180806020018281038252601a8152602001807f536166654d6174683a206469766973696f6e206279207a65726f00000000000081525060200191505060405180910390fd5b8183816157c457fe5b04905092915050565b6000818310156157dd57816157df565b825b905092915050565b60008183106157f657816157f8565b825b905092915050565b6000806002546003548161581057fe5b0490508091505090565b6159258383836040516024018080602001848152602001838152602001828103825285818151815260200191508051906020019080838360005b8381101561586f578082015181840152602081019050615854565b50505050905090810190601f16801561589c5780820380516001836020036101000a031916815260200191505b509450505050506040516020818303038152906040527fca47c4eb000000000000000000000000000000000000000000000000000000007bffffffffffffffffffffffffffffffffffffffffffffffffffffffff19166020820180517bffffffffffffffffffffffffffffffffffffffffffffffffffffffff8381831617835250505050615ad3565b505050565b6000615934612628565b905060008060008086905060005b60266000878152602001908152602001600020506004811015615ac85760266000878152602001908152602001600020816004811061597d57fe5b6004020194508460000160009054906101000a900473ffffffffffffffffffffffffffffffffffffffff1673ffffffffffffffffffffffffffffffffffffffff168873ffffffffffffffffffffffffffffffffffffffff1614156159ef57868560010181905550505050505050615acf565b8460010154871115615abb578460000160009054906101000a900473ffffffffffffffffffffffffffffffffffffffff16935084600101549250878560000160006101000a81548173ffffffffffffffffffffffffffffffffffffffff021916908373ffffffffffffffffffffffffffffffffffffffff1602179055508685600101819055508373ffffffffffffffffffffffffffffffffffffffff168273ffffffffffffffffffffffffffffffffffffffff161415615ab457505050505050615acf565b8397508296505b8080600101915050615942565b5050505050505b5050565b615aea81615ae2615aed615b0e565b63ffffffff16565b50565b60006a636f6e736f6c652e6c6f679050600080835160208501845afa505050565b615bab819050919050565b6040518060800160405280600490602082028036833780820191505090505090565b6040518060800160405280600490602082028036833780820191505090505090565b60405180610120016040528060008152602001600081526020016000815260200160008152602001600081526020016000815260200160008152602001600081526020016000151581525090565bfefe496e766573746d656e74206578636565647320746865206d6178696d756d206c696d69743220746f74616c5265776172642020696e7369646520676574706572696f64726174652d2d2d2d2d2d2d2d506c6561736520696e76657374206d6f7265207468616e20746865206d696e696d756d20616d6f756e7431207261746520696e7369646520676574706572696f64726174653d3d3d3d3d3d3d3d3d3d3d3d616d6f756e7420696e20676574616d6f756e7420696620636f6e646974696f6e2d2d2d2d2d506c65617365207761697420666f722074686520496e697469616c204c6f636b757020506572696f6420746f20656e64206265666f726520796f7520776974686472617720796f757220696e766573746d656e742e205468616e6b733220706572696f6420696e7369646520676574706572696f64726174653d3d3d3d3d3d3d3d3d3d536166654d6174683a206d756c7469706c69636174696f6e206f766572666c6f7732207261746520696e7369646520676574706572696f64726174653d3d3d3d3d3d3d3d3d3d3d3d3320746f74616c5265776172642020696e7369646520676574706572696f64726174652d2d2d2d2d2d2d2d506c6561736520696e76657374206c657373207468616e20746865206d6178696d756d20616d6f756e74a26469706673582212204d100616f4a5b27aa3513eb621fd8d84c6cc0441d169ab5b0590789b4453c0e764736f6c63430007060033536166654d6174683a206d756c7469706c69636174696f6e206f766572666c6f77",
  "linkReferences": {},
  "deployedLinkReferences": {}
}