{
  "_format": "hh-sol-artifact-1",
  "contractName": "YieldGivers",
  "sourceName": "contracts/YieldGivers.sol",
  "abi": [
    {
      "inputs": [
        {
          "internalType": "address",
          "name": "_tokenAddress",
          "type": "address"
        },
        {
          "internalType": "address payable",
          "name": "dev_",
          "type": "address"
        },
        {
          "internalType": "address payable",
          "name": "ad_",
          "type": "address"
        },
        {
          "internalType": "address payable",
          "name": "team_",
          "type": "address"
        },
        {
          "internalType": "uint256",
          "name": "startTime_",
          "type": "uint256"
        },
        {
          "internalType": "uint256",
          "name": "rankTime_",
          "type": "uint256"
        }
      ],
      "stateMutability": "nonpayable",
      "type": "constructor"
    },
    {
      "anonymous": false,
      "inputs": [
        {
          "indexed": true,
          "internalType": "address",
          "name": "user",
          "type": "address"
        },
        {
          "indexed": false,
          "internalType": "uint256",
          "name": "amount",
          "type": "uint256"
        }
      ],
      "name": "Insurance",
      "type": "event"
    },
    {
      "anonymous": false,
      "inputs": [
        {
          "indexed": true,
          "internalType": "address",
          "name": "user",
          "type": "address"
        },
        {
          "indexed": false,
          "internalType": "uint256",
          "name": "amount",
          "type": "uint256"
        }
      ],
      "name": "Rank",
      "type": "event"
    },
    {
      "anonymous": false,
      "inputs": [
        {
          "indexed": true,
          "internalType": "address",
          "name": "user",
          "type": "address"
        },
        {
          "indexed": false,
          "internalType": "uint256",
          "name": "amount",
          "type": "uint256"
        }
      ],
      "name": "Retake",
      "type": "event"
    },
    {
      "anonymous": false,
      "inputs": [
        {
          "indexed": true,
          "internalType": "address",
          "name": "user",
          "type": "address"
        },
        {
          "indexed": false,
          "internalType": "uint256",
          "name": "amount",
          "type": "uint256"
        }
      ],
      "name": "Stake",
      "type": "event"
    },
    {
      "anonymous": false,
      "inputs": [
        {
          "indexed": true,
          "internalType": "address",
          "name": "user",
          "type": "address"
        },
        {
          "indexed": false,
          "internalType": "uint256",
          "name": "amount",
          "type": "uint256"
        }
      ],
      "name": "Withdraw",
      "type": "event"
    },
    {
      "anonymous": false,
      "inputs": [
        {
          "indexed": true,
          "internalType": "address",
          "name": "user",
          "type": "address"
        },
        {
          "indexed": false,
          "internalType": "uint256",
          "name": "amount",
          "type": "uint256"
        }
      ],
      "name": "WithdrawPrincipal",
      "type": "event"
    },
    {
      "inputs": [],
      "name": "ad",
      "outputs": [
        {
          "internalType": "address payable",
          "name": "",
          "type": "address"
        }
      ],
      "stateMutability": "view",
      "type": "function"
    },
    {
      "inputs": [
        {
          "internalType": "uint256",
          "name": "income",
          "type": "uint256"
        },
        {
          "internalType": "uint256",
          "name": "rate",
          "type": "uint256"
        },
        {
          "internalType": "uint256",
          "name": "period",
          "type": "uint256"
        }
      ],
      "name": "calcReward",
      "outputs": [
        {
          "internalType": "uint256",
          "name": "reward",
          "type": "uint256"
        }
      ],
      "stateMutability": "pure",
      "type": "function"
    },
    {
      "inputs": [
        {
          "internalType": "uint256",
          "name": "income",
          "type": "uint256"
        },
        {
          "internalType": "uint256",
          "name": "rate",
          "type": "uint256"
        },
        {
          "internalType": "uint256",
          "name": "period",
          "type": "uint256"
        }
      ],
      "name": "calcRewardCompound",
      "outputs": [
        {
          "internalType": "uint256",
          "name": "reward",
          "type": "uint256"
        }
      ],
      "stateMutability": "pure",
      "type": "function"
    },
    {
      "inputs": [],
      "name": "dev",
      "outputs": [
        {
          "internalType": "address payable",
          "name": "",
          "type": "address"
        }
      ],
      "stateMutability": "view",
      "type": "function"
    },
    {
      "inputs": [],
      "name": "getAmount",
      "outputs": [
        {
          "internalType": "uint256",
          "name": "amount",
          "type": "uint256"
        }
      ],
      "stateMutability": "view",
      "type": "function"
    },
    {
      "inputs": [],
      "name": "getIncreasePct",
      "outputs": [
        {
          "internalType": "uint256",
          "name": "increasePct",
          "type": "uint256"
        }
      ],
      "stateMutability": "view",
      "type": "function"
    },
    {
      "inputs": [],
      "name": "getInfo",
      "outputs": [
        {
          "internalType": "uint256",
          "name": "",
          "type": "uint256"
        },
        {
          "internalType": "uint256",
          "name": "",
          "type": "uint256"
        },
        {
          "internalType": "uint256",
          "name": "",
          "type": "uint256"
        },
        {
          "internalType": "uint256",
          "name": "",
          "type": "uint256"
        },
        {
          "internalType": "uint256",
          "name": "",
          "type": "uint256"
        },
        {
          "internalType": "uint256",
          "name": "",
          "type": "uint256"
        },
        {
          "internalType": "uint256",
          "name": "",
          "type": "uint256"
        }
      ],
      "stateMutability": "view",
      "type": "function"
    },
    {
      "inputs": [
        {
          "internalType": "uint256",
          "name": "length",
          "type": "uint256"
        }
      ],
      "name": "getInsurances",
      "outputs": [
        {
          "internalType": "address[]",
          "name": "addresses",
          "type": "address[]"
        },
        {
          "internalType": "uint256[]",
          "name": "values",
          "type": "uint256[]"
        },
        {
          "internalType": "uint256[]",
          "name": "rewards",
          "type": "uint256[]"
        },
        {
          "internalType": "uint256[]",
          "name": "times",
          "type": "uint256[]"
        }
      ],
      "stateMutability": "view",
      "type": "function"
    },
    {
      "inputs": [],
      "name": "getInvestments",
      "outputs": [
        {
          "internalType": "uint256[]",
          "name": "times",
          "type": "uint256[]"
        },
        {
          "internalType": "uint256[]",
          "name": "starts",
          "type": "uint256[]"
        },
        {
          "internalType": "uint256[]",
          "name": "values",
          "type": "uint256[]"
        },
        {
          "internalType": "uint256[]",
          "name": "totalRewards",
          "type": "uint256[]"
        },
        {
          "internalType": "uint256[]",
          "name": "rates",
          "type": "uint256[]"
        },
        {
          "internalType": "uint256[]",
          "name": "typeNums",
          "type": "uint256[]"
        },
        {
          "internalType": "bool[]",
          "name": "isReStakes",
          "type": "bool[]"
        }
      ],
      "stateMutability": "view",
      "type": "function"
    },
    {
      "inputs": [],
      "name": "getInvestmentsEx",
      "outputs": [
        {
          "internalType": "uint256[]",
          "name": "periods",
          "type": "uint256[]"
        }
      ],
      "stateMutability": "view",
      "type": "function"
    },
    {
      "inputs": [
        {
          "internalType": "uint256",
          "name": "typeNum",
          "type": "uint256"
        },
        {
          "internalType": "uint256",
          "name": "income",
          "type": "uint256"
        }
      ],
      "name": "getPeriodAndRate",
      "outputs": [
        {
          "internalType": "uint256",
          "name": "period",
          "type": "uint256"
        },
        {
          "internalType": "uint256",
          "name": "rate",
          "type": "uint256"
        },
        {
          "internalType": "uint256",
          "name": "totalReward",
          "type": "uint256"
        }
      ],
      "stateMutability": "view",
      "type": "function"
    },
    {
      "inputs": [],
      "name": "getPlanFourRate",
      "outputs": [
        {
          "internalType": "uint256",
          "name": "planFourPct",
          "type": "uint256"
        }
      ],
      "stateMutability": "view",
      "type": "function"
    },
    {
      "inputs": [],
      "name": "getPlanOneRate",
      "outputs": [
        {
          "internalType": "uint256",
          "name": "planOnePct",
          "type": "uint256"
        }
      ],
      "stateMutability": "view",
      "type": "function"
    },
    {
      "inputs": [],
      "name": "getPlanThreeRate",
      "outputs": [
        {
          "internalType": "uint256",
          "name": "planThreePct",
          "type": "uint256"
        }
      ],
      "stateMutability": "view",
      "type": "function"
    },
    {
      "inputs": [],
      "name": "getPlanTwoRate",
      "outputs": [
        {
          "internalType": "uint256",
          "name": "planTwoPct",
          "type": "uint256"
        }
      ],
      "stateMutability": "view",
      "type": "function"
    },
    {
      "inputs": [
        {
          "internalType": "uint256",
          "name": "typenum",
          "type": "uint256"
        }
      ],
      "name": "getPoolAllInfo",
      "outputs": [
        {
          "internalType": "uint256",
          "name": "",
          "type": "uint256"
        },
        {
          "internalType": "uint256",
          "name": "",
          "type": "uint256"
        },
        {
          "internalType": "uint256",
          "name": "",
          "type": "uint256"
        },
        {
          "internalType": "uint256",
          "name": "",
          "type": "uint256"
        },
        {
          "internalType": "uint256",
          "name": "",
          "type": "uint256"
        },
        {
          "internalType": "uint256",
          "name": "",
          "type": "uint256"
        },
        {
          "internalType": "uint256",
          "name": "",
          "type": "uint256"
        },
        {
          "internalType": "uint256",
          "name": "",
          "type": "uint256"
        }
      ],
      "stateMutability": "view",
      "type": "function"
    },
    {
      "inputs": [
        {
          "internalType": "uint256",
          "name": "typeNum",
          "type": "uint256"
        }
      ],
      "name": "getPoolMinMax",
      "outputs": [
        {
          "internalType": "uint256",
          "name": "",
          "type": "uint256"
        },
        {
          "internalType": "uint256",
          "name": "",
          "type": "uint256"
        }
      ],
      "stateMutability": "view",
      "type": "function"
    },
    {
      "inputs": [],
      "name": "getRankIndex",
      "outputs": [
        {
          "internalType": "uint256",
          "name": "index",
          "type": "uint256"
        }
      ],
      "stateMutability": "view",
      "type": "function"
    },
    {
      "inputs": [
        {
          "internalType": "uint256",
          "name": "index",
          "type": "uint256"
        }
      ],
      "name": "getRanks",
      "outputs": [
        {
          "internalType": "address[4]",
          "name": "addresses",
          "type": "address[4]"
        },
        {
          "internalType": "uint256[4]",
          "name": "values",
          "type": "uint256[4]"
        },
        {
          "internalType": "uint256[4]",
          "name": "rewards",
          "type": "uint256[4]"
        },
        {
          "internalType": "uint256[4]",
          "name": "times",
          "type": "uint256[4]"
        }
      ],
      "stateMutability": "view",
      "type": "function"
    },
    {
      "inputs": [],
      "name": "getTokenBalance",
      "outputs": [
        {
          "internalType": "uint256",
          "name": "",
          "type": "uint256"
        }
      ],
      "stateMutability": "view",
      "type": "function"
    },
    {
      "inputs": [],
      "name": "insuranceIndex",
      "outputs": [
        {
          "internalType": "uint256",
          "name": "",
          "type": "uint256"
        }
      ],
      "stateMutability": "view",
      "type": "function"
    },
    {
      "inputs": [],
      "name": "insurancePool",
      "outputs": [
        {
          "internalType": "uint256",
          "name": "",
          "type": "uint256"
        }
      ],
      "stateMutability": "view",
      "type": "function"
    },
    {
      "inputs": [],
      "name": "insuranceRewardIndex",
      "outputs": [
        {
          "internalType": "uint256",
          "name": "",
          "type": "uint256"
        }
      ],
      "stateMutability": "view",
      "type": "function"
    },
    {
      "inputs": [],
      "name": "insuranceTime",
      "outputs": [
        {
          "internalType": "uint256",
          "name": "",
          "type": "uint256"
        }
      ],
      "stateMutability": "view",
      "type": "function"
    },
    {
      "inputs": [
        {
          "internalType": "uint256",
          "name": "",
          "type": "uint256"
        }
      ],
      "name": "insurances",
      "outputs": [
        {
          "internalType": "address",
          "name": "addr",
          "type": "address"
        },
        {
          "internalType": "uint256",
          "name": "value",
          "type": "uint256"
        },
        {
          "internalType": "uint256",
          "name": "reward",
          "type": "uint256"
        },
        {
          "internalType": "uint256",
          "name": "time",
          "type": "uint256"
        }
      ],
      "stateMutability": "view",
      "type": "function"
    },
    {
      "inputs": [],
      "name": "maxInvestAmount",
      "outputs": [
        {
          "internalType": "uint256",
          "name": "",
          "type": "uint256"
        }
      ],
      "stateMutability": "view",
      "type": "function"
    },
    {
      "inputs": [],
      "name": "minInvestAmount",
      "outputs": [
        {
          "internalType": "uint256",
          "name": "",
          "type": "uint256"
        }
      ],
      "stateMutability": "view",
      "type": "function"
    },
    {
      "inputs": [],
      "name": "owner",
      "outputs": [
        {
          "internalType": "address",
          "name": "",
          "type": "address"
        }
      ],
      "stateMutability": "view",
      "type": "function"
    },
    {
      "inputs": [],
      "name": "percentMultiplier",
      "outputs": [
        {
          "internalType": "uint256",
          "name": "",
          "type": "uint256"
        }
      ],
      "stateMutability": "view",
      "type": "function"
    },
    {
      "inputs": [],
      "name": "planFourDays",
      "outputs": [
        {
          "internalType": "uint256",
          "name": "",
          "type": "uint256"
        }
      ],
      "stateMutability": "view",
      "type": "function"
    },
    {
      "inputs": [],
      "name": "planFourMultiplier",
      "outputs": [
        {
          "internalType": "uint256",
          "name": "",
          "type": "uint256"
        }
      ],
      "stateMutability": "view",
      "type": "function"
    },
    {
      "inputs": [
        {
          "internalType": "uint256",
          "name": "planFourPct",
          "type": "uint256"
        }
      ],
      "name": "planFourRate",
      "outputs": [],
      "stateMutability": "nonpayable",
      "type": "function"
    },
    {
      "inputs": [],
      "name": "planOneDays",
      "outputs": [
        {
          "internalType": "uint256",
          "name": "",
          "type": "uint256"
        }
      ],
      "stateMutability": "view",
      "type": "function"
    },
    {
      "inputs": [],
      "name": "planOneMultiplier",
      "outputs": [
        {
          "internalType": "uint256",
          "name": "",
          "type": "uint256"
        }
      ],
      "stateMutability": "view",
      "type": "function"
    },
    {
      "inputs": [
        {
          "internalType": "uint256",
          "name": "planOnePct",
          "type": "uint256"
        }
      ],
      "name": "planOneRate",
      "outputs": [],
      "stateMutability": "nonpayable",
      "type": "function"
    },
    {
      "inputs": [],
      "name": "planThreeDays",
      "outputs": [
        {
          "internalType": "uint256",
          "name": "",
          "type": "uint256"
        }
      ],
      "stateMutability": "view",
      "type": "function"
    },
    {
      "inputs": [],
      "name": "planThreeMultiplier",
      "outputs": [
        {
          "internalType": "uint256",
          "name": "",
          "type": "uint256"
        }
      ],
      "stateMutability": "view",
      "type": "function"
    },
    {
      "inputs": [
        {
          "internalType": "uint256",
          "name": "planThreePct",
          "type": "uint256"
        }
      ],
      "name": "planThreeRate",
      "outputs": [],
      "stateMutability": "nonpayable",
      "type": "function"
    },
    {
      "inputs": [],
      "name": "planTwoDays",
      "outputs": [
        {
          "internalType": "uint256",
          "name": "",
          "type": "uint256"
        }
      ],
      "stateMutability": "view",
      "type": "function"
    },
    {
      "inputs": [],
      "name": "planTwoMultiplier",
      "outputs": [
        {
          "internalType": "uint256",
          "name": "",
          "type": "uint256"
        }
      ],
      "stateMutability": "view",
      "type": "function"
    },
    {
      "inputs": [
        {
          "internalType": "uint256",
          "name": "planTwoPct",
          "type": "uint256"
        }
      ],
      "name": "planTwoRate",
      "outputs": [],
      "stateMutability": "nonpayable",
      "type": "function"
    },
    {
      "inputs": [],
      "name": "pool",
      "outputs": [
        {
          "internalType": "uint256",
          "name": "",
          "type": "uint256"
        }
      ],
      "stateMutability": "view",
      "type": "function"
    },
    {
      "inputs": [
        {
          "internalType": "uint256",
          "name": "",
          "type": "uint256"
        }
      ],
      "name": "pools",
      "outputs": [
        {
          "internalType": "uint256",
          "name": "minInvestAmountPool",
          "type": "uint256"
        },
        {
          "internalType": "uint256",
          "name": "maxInvestAmountPool",
          "type": "uint256"
        }
      ],
      "stateMutability": "view",
      "type": "function"
    },
    {
      "inputs": [
        {
          "internalType": "uint256",
          "name": "",
          "type": "uint256"
        }
      ],
      "name": "rankFlag",
      "outputs": [
        {
          "internalType": "bool",
          "name": "",
          "type": "bool"
        }
      ],
      "stateMutability": "view",
      "type": "function"
    },
    {
      "inputs": [
        {
          "internalType": "uint256",
          "name": "",
          "type": "uint256"
        },
        {
          "internalType": "address",
          "name": "",
          "type": "address"
        }
      ],
      "name": "rankMap",
      "outputs": [
        {
          "internalType": "uint256",
          "name": "",
          "type": "uint256"
        }
      ],
      "stateMutability": "view",
      "type": "function"
    },
    {
      "inputs": [],
      "name": "rankPool",
      "outputs": [
        {
          "internalType": "uint256",
          "name": "",
          "type": "uint256"
        }
      ],
      "stateMutability": "view",
      "type": "function"
    },
    {
      "inputs": [],
      "name": "rankTime",
      "outputs": [
        {
          "internalType": "uint256",
          "name": "",
          "type": "uint256"
        }
      ],
      "stateMutability": "view",
      "type": "function"
    },
    {
      "inputs": [
        {
          "internalType": "uint256",
          "name": "typeNum",
          "type": "uint256"
        },
        {
          "internalType": "uint256",
          "name": "amount",
          "type": "uint256"
        }
      ],
      "name": "reStake",
      "outputs": [],
      "stateMutability": "nonpayable",
      "type": "function"
    },
    {
      "inputs": [
        {
          "internalType": "uint256",
          "name": "maxInvAmnt",
          "type": "uint256"
        }
      ],
      "name": "setMaxInvestAmount",
      "outputs": [],
      "stateMutability": "nonpayable",
      "type": "function"
    },
    {
      "inputs": [
        {
          "internalType": "uint256",
          "name": "minInvAmnt",
          "type": "uint256"
        }
      ],
      "name": "setMinInvestAmount",
      "outputs": [],
      "stateMutability": "nonpayable",
      "type": "function"
    },
    {
      "inputs": [
        {
          "internalType": "uint256",
          "name": "increasePct",
          "type": "uint256"
        }
      ],
      "name": "setPercentMultiplier",
      "outputs": [],
      "stateMutability": "nonpayable",
      "type": "function"
    },
    {
      "inputs": [
        {
          "internalType": "uint256",
          "name": "planFourPeriod",
          "type": "uint256"
        }
      ],
      "name": "setPlanFourPeriod",
      "outputs": [],
      "stateMutability": "nonpayable",
      "type": "function"
    },
    {
      "inputs": [
        {
          "internalType": "uint256",
          "name": "planOnePeriod",
          "type": "uint256"
        }
      ],
      "name": "setPlanOnePeriod",
      "outputs": [],
      "stateMutability": "nonpayable",
      "type": "function"
    },
    {
      "inputs": [
        {
          "internalType": "uint256",
          "name": "planThreePeriod",
          "type": "uint256"
        }
      ],
      "name": "setPlanThreePeriod",
      "outputs": [],
      "stateMutability": "nonpayable",
      "type": "function"
    },
    {
      "inputs": [
        {
          "internalType": "uint256",
          "name": "planTwoPeriod",
          "type": "uint256"
        }
      ],
      "name": "setPlanTwoPeriod",
      "outputs": [],
      "stateMutability": "nonpayable",
      "type": "function"
    },
    {
      "inputs": [
        {
          "internalType": "uint256",
          "name": "poolId",
          "type": "uint256"
        },
        {
          "internalType": "uint256",
          "name": "minInvestAmountPool",
          "type": "uint256"
        },
        {
          "internalType": "uint256",
          "name": "maxInvestAmountPool",
          "type": "uint256"
        }
      ],
      "name": "setPoolInvestmentLimits",
      "outputs": [],
      "stateMutability": "nonpayable",
      "type": "function"
    },
    {
      "inputs": [
        {
          "internalType": "address",
          "name": "referrer",
          "type": "address"
        },
        {
          "internalType": "uint256",
          "name": "typeNum",
          "type": "uint256"
        },
        {
          "internalType": "uint256",
          "name": "Amount",
          "type": "uint256"
        }
      ],
      "name": "stake",
      "outputs": [],
      "stateMutability": "payable",
      "type": "function"
    },
    {
      "inputs": [],
      "name": "startTime",
      "outputs": [
        {
          "internalType": "uint256",
          "name": "",
          "type": "uint256"
        }
      ],
      "stateMutability": "view",
      "type": "function"
    },
    {
      "inputs": [],
      "name": "team",
      "outputs": [
        {
          "internalType": "address payable",
          "name": "",
          "type": "address"
        }
      ],
      "stateMutability": "view",
      "type": "function"
    },
    {
      "inputs": [],
      "name": "tokenAddress",
      "outputs": [
        {
          "internalType": "address",
          "name": "",
          "type": "address"
        }
      ],
      "stateMutability": "view",
      "type": "function"
    },
    {
      "inputs": [],
      "name": "total",
      "outputs": [
        {
          "internalType": "uint256",
          "name": "",
          "type": "uint256"
        }
      ],
      "stateMutability": "view",
      "type": "function"
    },
    {
      "inputs": [
        {
          "internalType": "uint256",
          "name": "",
          "type": "uint256"
        }
      ],
      "name": "totalInvestmentByPool",
      "outputs": [
        {
          "internalType": "uint256",
          "name": "",
          "type": "uint256"
        }
      ],
      "stateMutability": "view",
      "type": "function"
    },
    {
      "inputs": [
        {
          "internalType": "uint256",
          "name": "",
          "type": "uint256"
        }
      ],
      "name": "totalInvestorsByTypeNum",
      "outputs": [
        {
          "internalType": "uint256",
          "name": "",
          "type": "uint256"
        }
      ],
      "stateMutability": "view",
      "type": "function"
    },
    {
      "inputs": [],
      "name": "totalStakedAmount",
      "outputs": [
        {
          "internalType": "uint256",
          "name": "",
          "type": "uint256"
        }
      ],
      "stateMutability": "view",
      "type": "function"
    },
    {
      "inputs": [],
      "name": "userCount",
      "outputs": [
        {
          "internalType": "uint256",
          "name": "",
          "type": "uint256"
        }
      ],
      "stateMutability": "view",
      "type": "function"
    },
    {
      "inputs": [
        {
          "internalType": "address",
          "name": "",
          "type": "address"
        }
      ],
      "name": "userMap",
      "outputs": [
        {
          "internalType": "bool",
          "name": "active",
          "type": "bool"
        },
        {
          "internalType": "address",
          "name": "referrer",
          "type": "address"
        },
        {
          "internalType": "uint256",
          "name": "recommendReward",
          "type": "uint256"
        },
        {
          "internalType": "uint256",
          "name": "investment",
          "type": "uint256"
        },
        {
          "internalType": "uint256",
          "name": "totalWithdraw",
          "type": "uint256"
        },
        {
          "internalType": "uint256",
          "name": "totalReward",
          "type": "uint256"
        },
        {
          "internalType": "uint256",
          "name": "checkpoint",
          "type": "uint256"
        },
        {
          "internalType": "uint256",
          "name": "subNum",
          "type": "uint256"
        },
        {
          "internalType": "uint256",
          "name": "subStake",
          "type": "uint256"
        }
      ],
      "stateMutability": "view",
      "type": "function"
    },
    {
      "inputs": [
        {
          "internalType": "uint256",
          "name": "amount",
          "type": "uint256"
        }
      ],
      "name": "withdraw",
      "outputs": [],
      "stateMutability": "nonpayable",
      "type": "function"
    },
    {
      "inputs": [],
      "name": "withdrawContractbalance",
      "outputs": [],
      "stateMutability": "nonpayable",
      "type": "function"
    },
    {
      "inputs": [
        {
          "internalType": "uint256",
          "name": "investmentIndex",
          "type": "uint256"
        }
      ],
      "name": "withdrawPrincipal",
      "outputs": [],
      "stateMutability": "nonpayable",
      "type": "function"
    }
  ],
  "bytecode": "0x608060405233601660006101000a81548173ffffffffffffffffffffffffffffffffffffffff021916908373ffffffffffffffffffffffffffffffffffffffff160217905550620151806017556146506018556200006f6007601754620004b060201b620042a71790919060201c565b6019556012601a556040518060600160405280600360ff168152602001600260ff168152602001600160ff16815250601b906003620000b09291906200054e565b506040518060800160405280602860ff168152602001601e60ff168152602001601460ff168152602001600a60ff168152506023906004620000f4929190620005a5565b503480156200010257600080fd5b506040516200649538038062006495833981810160405260c08110156200012857600080fd5b810190808051906020019092919080519060200190929190805190602001909291908051906020019092919080519060200190929190805190602001909291905050506200017c856200053b60201b60201c565b15620001f0576040517f08c379a000000000000000000000000000000000000000000000000000000000815260040180806020018281038252600b8152602001807f216465764164647265737300000000000000000000000000000000000000000081525060200191505060405180910390fd5b62000201846200053b60201b60201c565b1562000275576040517f08c379a000000000000000000000000000000000000000000000000000000000815260040180806020018281038252600a8152602001807f216164416464726573730000000000000000000000000000000000000000000081525060200191505060405180910390fd5b62000286836200053b60201b60201c565b15620002fa576040517f08c379a000000000000000000000000000000000000000000000000000000000815260040180806020018281038252600c8152602001807f217465616d41646472657373000000000000000000000000000000000000000081525060200191505060405180910390fd5b856000806101000a81548173ffffffffffffffffffffffffffffffffffffffff021916908373ffffffffffffffffffffffffffffffffffffffff16021790555084601360006101000a81548173ffffffffffffffffffffffffffffffffffffffff021916908373ffffffffffffffffffffffffffffffffffffffff16021790555083601460006101000a81548173ffffffffffffffffffffffffffffffffffffffff021916908373ffffffffffffffffffffffffffffffffffffffff16021790555082601560006101000a81548173ffffffffffffffffffffffffffffffffffffffff021916908373ffffffffffffffffffffffffffffffffffffffff160217905550600160276000601560009054906101000a900473ffffffffffffffffffffffffffffffffffffffff1673ffffffffffffffffffffffffffffffffffffffff1673ffffffffffffffffffffffffffffffffffffffff16815260200190815260200160002060000160006101000a81548160ff021916908315150217905550600082141562000488574291505b600081141562000496574290505b81600181905550806007819055505050505050506200061b565b600080831415620004c5576000905062000535565b6000828402905082848281620004d757fe5b041462000530576040517f08c379a0000000000000000000000000000000000000000000000000000000008152600401808060200182810382526021815260200180620064746021913960400191505060405180910390fd5b809150505b92915050565b600080823b905060008111915050919050565b82805482825590600052602060002090810192821562000592579160200282015b8281111562000591578251829060ff169055916020019190600101906200056f565b5b509050620005a19190620005fc565b5090565b828054828255906000526020600020908101928215620005e9579160200282015b82811115620005e8578251829060ff16905591602001919060010190620005c6565b5b509050620005f89190620005fc565b5090565b5b8082111562000617576000816000905550600101620005fd565b5090565b615e49806200062b6000396000f3fe6080604052600436106103fa5760003560e01c80638387570811610213578063c64b4d1b11610123578063ebf7301f116100ab578063f4bc8a131161007a578063f4bc8a1314611788578063f9c23a5b146117c3578063fbfab74e146117ee578063fc6ced5f14611829578063fc77aa4814611854576103fa565b8063ebf7301f146116cc578063ee579481146116f7578063f10e1cdf14611722578063f3c2c3bd1461174d576103fa565b8063d321fe29116100f2578063d321fe2914611363578063d624722d1461138e578063dee120ea146115aa578063df21aa0f14611611578063eba21fdf14611691576103fa565b8063c64b4d1b1461127f578063cdd35fbe146112aa578063cde319481461130d578063cf59f86a14611338576103fa565b80639f909e46116101a6578063ac4afa3811610175578063ac4afa3814611133578063ade7d39114611189578063aef2afc9146111d8578063b162d5dc14611203578063b56d39521461122e576103fa565b80639f909e4614610f9e578063a4af858414610fc9578063aa28229514611004578063ab2adc0014611108576103fa565b80638da5cb5b116101e25780638da5cb5b14610ea057806391cca3db14610ee1578063928076f114610f225780639d76ea5814610f5d576103fa565b80638387570814610de2578063841062bd14610df957806385f2aef214610e245780638d02913a14610e65576103fa565b806342d0d1ca1161030e57806368860d9f116102a157806376bc10251161027057806376bc102514610cba57806378e9792514610ce55780637f4f987014610d10578063818d8c0414610d7c57806382b2e25714610db7576103fa565b806368860d9f14610bc95780636a38b64614610c1f57806371b801db14610c645780637642c32a14610c8f576103fa565b8063584c8fc1116102dd578063584c8fc114610a9457806359fb49f914610abf5780635a9b0b8914610b39578063658e28a414610b8e576103fa565b806342d0d1ca146109c457806343b500e314610a135780634fe7edff14610a3e578063567e98f914610a69576103fa565b8063344fbb4a116103915780633b7379e2116103605780633b7379e2146108275780633b7da889146108965780633c376d8e146108e55780633e1430af1461092057806342b39a5e14610961576103fa565b8063344fbb4a1461075b57806334e927d01461078657806335c34d56146107b15780633859577a146107ec576103fa565b806316f0115b116103cd57806316f0115b146106155780632bcc23f8146106405780632ddbd13a146106f55780632e1a7d4d14610720576103fa565b806302bd2ede146103ff57806307973ccf146105675780630c51b88f14610592578063113c98fc146105ea575b600080fd5b34801561040b57600080fd5b506104386004803603602081101561042257600080fd5b810190808035906020019092919050505061187f565b6040518080602001806020018060200180602001858103855289818151815260200191508051906020019060200280838360005b8381101561048757808201518184015260208101905061046c565b50505050905001858103845288818151815260200191508051906020019060200280838360005b838110156104c95780820151818401526020810190506104ae565b50505050905001858103835287818151815260200191508051906020019060200280838360005b8381101561050b5780820151818401526020810190506104f0565b50505050905001858103825286818151815260200191508051906020019060200280838360005b8381101561054d578082015181840152602081019050610532565b505050509050019850505050505050505060405180910390f35b34801561057357600080fd5b5061057c611b41565b6040518082815260200191505060405180910390f35b6105e8600480360360608110156105a857600080fd5b81019080803573ffffffffffffffffffffffffffffffffffffffff1690602001909291908035906020019092919080359060200190929190505050611b47565b005b3480156105f657600080fd5b506105ff611ec6565b6040518082815260200191505060405180910390f35b34801561062157600080fd5b5061062a611ecc565b6040518082815260200191505060405180910390f35b34801561064c57600080fd5b5061068f6004803603602081101561066357600080fd5b81019080803573ffffffffffffffffffffffffffffffffffffffff169060200190929190505050611ed2565b604051808a151581526020018973ffffffffffffffffffffffffffffffffffffffff168152602001888152602001878152602001868152602001858152602001848152602001838152602001828152602001995050505050505050505060405180910390f35b34801561070157600080fd5b5061070a611f4d565b6040518082815260200191505060405180910390f35b34801561072c57600080fd5b506107596004803603602081101561074357600080fd5b8101908080359060200190929190505050611f53565b005b34801561076757600080fd5b50610770612191565b6040518082815260200191505060405180910390f35b34801561079257600080fd5b5061079b612206565b6040518082815260200191505060405180910390f35b3480156107bd57600080fd5b506107ea600480360360208110156107d457600080fd5b810190808035906020019092919050505061223c565b005b3480156107f857600080fd5b506108256004803603602081101561080f57600080fd5b81019080803590602001909291905050506122a0565b005b34801561083357600080fd5b506108806004803603604081101561084a57600080fd5b8101908080359060200190929190803573ffffffffffffffffffffffffffffffffffffffff169060200190929190505050612304565b6040518082815260200191505060405180910390f35b3480156108a257600080fd5b506108e3600480360360608110156108b957600080fd5b81019080803590602001909291908035906020019092919080359060200190929190505050612329565b005b3480156108f157600080fd5b5061091e6004803603602081101561090857600080fd5b81019080803590602001909291905050506123d1565b005b34801561092c57600080fd5b50610935612435565b604051808273ffffffffffffffffffffffffffffffffffffffff16815260200191505060405180910390f35b34801561096d57600080fd5b506109ae6004803603606081101561098457600080fd5b8101908080359060200190929190803590602001909291908035906020019092919050505061245b565b6040518082815260200191505060405180910390f35b3480156109d057600080fd5b506109fd600480360360208110156109e757600080fd5b81019080803590602001909291905050506124de565b6040518082815260200191505060405180910390f35b348015610a1f57600080fd5b50610a286124f6565b6040518082815260200191505060405180910390f35b348015610a4a57600080fd5b50610a5361254e565b6040518082815260200191505060405180910390f35b348015610a7557600080fd5b50610a7e612554565b6040518082815260200191505060405180910390f35b348015610aa057600080fd5b50610aa961255a565b6040518082815260200191505060405180910390f35b348015610acb57600080fd5b50610af860048036036020811015610ae257600080fd5b8101908080359060200190929190505050612560565b604051808573ffffffffffffffffffffffffffffffffffffffff16815260200184815260200183815260200182815260200194505050505060405180910390f35b348015610b4557600080fd5b50610b4e6125c0565b6040518088815260200187815260200186815260200185815260200184815260200183815260200182815260200197505050505050505060405180910390f35b348015610b9a57600080fd5b50610bc760048036036020811015610bb157600080fd5b81019080803590602001909291905050506125f7565b005b348015610bd557600080fd5b50610c0260048036036020811015610bec57600080fd5b81019080803590602001909291905050506128a6565b604051808381526020018281526020019250505060405180910390f35b348015610c2b57600080fd5b50610c6260048036036040811015610c4257600080fd5b8101908080359060200190929190803590602001909291905050506128e0565b005b348015610c7057600080fd5b50610c796129c6565b6040518082815260200191505060405180910390f35b348015610c9b57600080fd5b50610ca46129cc565b6040518082815260200191505060405180910390f35b348015610cc657600080fd5b50610ccf6129d2565b6040518082815260200191505060405180910390f35b348015610cf157600080fd5b50610cfa6129d8565b6040518082815260200191505060405180910390f35b348015610d1c57600080fd5b50610d256129de565b6040518080602001828103825283818151815260200191508051906020019060200280838360005b83811015610d68578082015181840152602081019050610d4d565b505050509050019250505060405180910390f35b348015610d8857600080fd5b50610db560048036036020811015610d9f57600080fd5b8101908080359060200190929190505050612b76565b005b348015610dc357600080fd5b50610dcc612bda565b6040518082815260200191505060405180910390f35b348015610dee57600080fd5b50610df7612ca8565b005b348015610e0557600080fd5b50610e0e612e20565b6040518082815260200191505060405180910390f35b348015610e3057600080fd5b50610e39612f15565b604051808273ffffffffffffffffffffffffffffffffffffffff16815260200191505060405180910390f35b348015610e7157600080fd5b50610e9e60048036036020811015610e8857600080fd5b8101908080359060200190929190505050612f3b565b005b348015610eac57600080fd5b50610eb5612fa4565b604051808273ffffffffffffffffffffffffffffffffffffffff16815260200191505060405180910390f35b348015610eed57600080fd5b50610ef6612fca565b604051808273ffffffffffffffffffffffffffffffffffffffff16815260200191505060405180910390f35b348015610f2e57600080fd5b50610f5b60048036036020811015610f4557600080fd5b8101908080359060200190929190505050612ff0565b005b348015610f6957600080fd5b50610f72613054565b604051808273ffffffffffffffffffffffffffffffffffffffff16815260200191505060405180910390f35b348015610faa57600080fd5b50610fb3613078565b6040518082815260200191505060405180910390f35b348015610fd557600080fd5b5061100260048036036020811015610fec57600080fd5b81019080803590602001909291905050506130ae565b005b34801561101057600080fd5b5061103d6004803603602081101561102757600080fd5b8101908080359060200190929190505050613112565b6040518085600460200280838360005b8381101561106857808201518184015260208101905061104d565b5050505090500184600460200280838360005b8381101561109657808201518184015260208101905061107b565b5050505090500183600460200280838360005b838110156110c45780820151818401526020810190506110a9565b5050505090500182600460200280838360005b838110156110f25780820151818401526020810190506110d7565b5050505090500194505050505060405180910390f35b34801561111457600080fd5b5061111d6132f8565b6040518082815260200191505060405180910390f35b34801561113f57600080fd5b5061116c6004803603602081101561115657600080fd5b81019080803590602001909291905050506132fe565b604051808381526020018281526020019250505060405180910390f35b34801561119557600080fd5b506111c2600480360360208110156111ac57600080fd5b8101908080359060200190929190505050613322565b6040518082815260200191505060405180910390f35b3480156111e457600080fd5b506111ed61333a565b6040518082815260200191505060405180910390f35b34801561120f57600080fd5b50611218613340565b6040518082815260200191505060405180910390f35b34801561123a57600080fd5b506112676004803603602081101561125157600080fd5b8101908080359060200190929190505050613346565b60405180821515815260200191505060405180910390f35b34801561128b57600080fd5b50611294613366565b6040518082815260200191505060405180910390f35b3480156112b657600080fd5b506112f7600480360360608110156112cd57600080fd5b8101908080359060200190929190803590602001909291908035906020019092919050505061336c565b6040518082815260200191505060405180910390f35b34801561131957600080fd5b50611322613470565b6040518082815260200191505060405180910390f35b34801561134457600080fd5b5061134d613476565b6040518082815260200191505060405180910390f35b34801561136f57600080fd5b5061137861347c565b6040518082815260200191505060405180910390f35b34801561139a57600080fd5b506113a3613943565b604051808060200180602001806020018060200180602001806020018060200188810388528f818151815260200191508051906020019060200280838360005b838110156113fe5780820151818401526020810190506113e3565b5050505090500188810387528e818151815260200191508051906020019060200280838360005b83811015611440578082015181840152602081019050611425565b5050505090500188810386528d818151815260200191508051906020019060200280838360005b83811015611482578082015181840152602081019050611467565b5050505090500188810385528c818151815260200191508051906020019060200280838360005b838110156114c45780820151818401526020810190506114a9565b5050505090500188810384528b818151815260200191508051906020019060200280838360005b838110156115065780820151818401526020810190506114eb565b5050505090500188810383528a818151815260200191508051906020019060200280838360005b8381101561154857808201518184015260208101905061152d565b50505050905001888103825289818151815260200191508051906020019060200280838360005b8381101561158a57808201518184015260208101905061156f565b505050509050019e50505050505050505050505050505060405180910390f35b3480156115b657600080fd5b506115ed600480360360408110156115cd57600080fd5b810190808035906020019092919080359060200190929190505050613dcc565b60405180848152602001838152602001828152602001935050505060405180910390f35b34801561161d57600080fd5b5061164a6004803603602081101561163457600080fd5b810190808035906020019092919050505061401b565b604051808981526020018881526020018781526020018681526020018581526020018481526020018381526020018281526020019850505050505050505060405180910390f35b34801561169d57600080fd5b506116ca600480360360208110156116b457600080fd5b81019080803590602001909291905050506140be565b005b3480156116d857600080fd5b506116e1614127565b6040518082815260200191505060405180910390f35b34801561170357600080fd5b5061170c61412d565b6040518082815260200191505060405180910390f35b34801561172e57600080fd5b50611737614133565b6040518082815260200191505060405180910390f35b34801561175957600080fd5b506117866004803603602081101561177057600080fd5b8101908080359060200190929190505050614139565b005b34801561179457600080fd5b506117c1600480360360208110156117ab57600080fd5b810190808035906020019092919050505061419d565b005b3480156117cf57600080fd5b506117d8614201565b6040518082815260200191505060405180910390f35b3480156117fa57600080fd5b506118276004803603602081101561181157600080fd5b8101908080359060200190929190505050614207565b005b34801561183557600080fd5b5061183e61426b565b6040518082815260200191505060405180910390f35b34801561186057600080fd5b50611869614271565b6040518082815260200191505060405180910390f35b60608060608060008061189d8760215461432d90919063ffffffff16565b9150506118b58160215461435590919063ffffffff16565b96508667ffffffffffffffff811180156118ce57600080fd5b506040519080825280602002602001820160405280156118fd5781602001602082028036833780820191505090505b5095508667ffffffffffffffff8111801561191757600080fd5b506040519080825280602002602001820160405280156119465781602001602082028036833780820191505090505b5094508667ffffffffffffffff8111801561196057600080fd5b5060405190808252806020026020018201604052801561198f5781602001602082028036833780820191505090505b5093508667ffffffffffffffff811180156119a957600080fd5b506040519080825280602002602001820160405280156119d85781602001602082028036833780820191505090505b509250600060215490505b81811115611b3757602060018203815481106119fb57fe5b906000526020600020906004020160000160009054906101000a900473ffffffffffffffffffffffffffffffffffffffff16878481518110611a3957fe5b602002602001019073ffffffffffffffffffffffffffffffffffffffff16908173ffffffffffffffffffffffffffffffffffffffff168152505060206001820381548110611a8357fe5b906000526020600020906004020160010154868481518110611aa157fe5b60200260200101818152505060206001820381548110611abd57fe5b906000526020600020906004020160030154848481518110611adb57fe5b60200260200101818152505060206001820381548110611af757fe5b906000526020600020906004020160020154858481518110611b1557fe5b60200260200101818152505082806001019350508080600190039150506119e3565b5050509193509193565b601d5481565b600154421015611bbf576040517f08c379a00000000000000000000000000000000000000000000000000000000081526004018080602001828103825260098152602001807f4e6f74207374617274000000000000000000000000000000000000000000000081525060200191505060405180910390fd5b620f424060095481611bcd57fe5b04811015611c26576040517f08c379a000000000000000000000000000000000000000000000000000000000815260040180806020018281038252602a815260200180615b5b602a913960400191505060405180910390fd5b620f424060085481611c3457fe5b04811115611c8d576040517f08c379a000000000000000000000000000000000000000000000000000000000815260040180806020018281038252602a815260200180615dc4602a913960400191505060405180910390fd5b620f4240601f60008481526020019081526020016000206001015481611caf57fe5b04611cd682601e6000868152602001908152602001600020546143d890919063ffffffff16565b1115611d4a576040517f08c379a000000000000000000000000000000000000000000000000000000000815260040180806020018281038252601d8152602001807f4578636565647320706f6f6c20696e766573746d656e74206c696d697400000081525060200191505060405180910390fd5b611d55333083614460565b611dc7576040517f08c379a00000000000000000000000000000000000000000000000000000000081526004018080602001828103825260158152602001807f546f6b656e207472616e73666572206661696c6564000000000000000000000081525060200191505060405180910390fd5b611ded81601e6000858152602001908152602001600020546143d890919063ffffffff16565b601e6000848152602001908152602001600020819055506028600083815260200190815260200160002060008154809291906001019190505550611e3c81601c546143d890919063ffffffff16565b601c81905550611e586001601d546143d890919063ffffffff16565b601d81905550611e678361455a565b611e7382826000614914565b3373ffffffffffffffffffffffffffffffffffffffff167febedb8b3c678666e7f36970bc8f57abf6d8fa2e828c0da91ea5b75bf68ed101a826040518082815260200191505060405180910390a2505050565b600e5481565b60035481565b60276020528060005260406000206000915090508060000160009054906101000a900460ff16908060000160019054906101000a900473ffffffffffffffffffffffffffffffffffffffff16908060010154908060020154908060030154908060040154908060050154908060060154908060070154905089565b60025481565b611f5c81615289565b90506000600654118015611f71575042600654105b15611ff757611f80338261544e565b611ff2576040517f08c379a00000000000000000000000000000000000000000000000000000000081526004018080602001828103825260158152602001807f546f6b656e207472616e73666572206661696c6564000000000000000000000081525060200191505060405180910390fd5b612140565b61203261202160646120136014856142a790919063ffffffff16565b61552990919063ffffffff16565b6005546143d890919063ffffffff16565b6005819055506120683361206360646120556050866142a790919063ffffffff16565b61552990919063ffffffff16565b61544e565b6120da576040517f08c379a00000000000000000000000000000000000000000000000000000000081526004018080602001828103825260158152602001807f546f6b656e207472616e73666572206661696c6564000000000000000000000081525060200191505060405180910390fd5b61213f6040518060400160405280601981526020017f7472616e7366657220616d6f756e742d2d2d2d2d2d2d2d2d2d0000000000000081525061213a606461212c6050866142a790919063ffffffff16565b61552990919063ffffffff16565b6155b2565b5b3373ffffffffffffffffffffffffffffffffffffffff167f884edad9ce6fa2440d8a54cc123490eb96d2768479d49ff9c7366125a9424364826040518082815260200191505060405180910390a250565b6000806121a96001544261432d90919063ffffffff16565b9150506121c16018548261552990919063ffffffff16565b91506122026040518060400160405280601181526020017f706c616e4f6e655063742d2d2d2d2d2d2d000000000000000000000000000000815250836155b2565b5090565b60008061221e6001544261432d90919063ffffffff16565b9150506122366018548261552990919063ffffffff16565b91505090565b601660009054906101000a900473ffffffffffffffffffffffffffffffffffffffff1673ffffffffffffffffffffffffffffffffffffffff163373ffffffffffffffffffffffffffffffffffffffff161461229657600080fd5b80600b8190555050565b601660009054906101000a900473ffffffffffffffffffffffffffffffffffffffff1673ffffffffffffffffffffffffffffffffffffffff163373ffffffffffffffffffffffffffffffffffffffff16146122fa57600080fd5b80600e8190555050565b6025602052816000526040600020602052806000526040600020600091509150505481565b601660009054906101000a900473ffffffffffffffffffffffffffffffffffffffff1673ffffffffffffffffffffffffffffffffffffffff163373ffffffffffffffffffffffffffffffffffffffff161461238357600080fd5b6040518060400160405280620f424084028152602001620f42408302815250601f60008581526020019081526020016000206000820151816000015560208201518160010155905050505050565b601660009054906101000a900473ffffffffffffffffffffffffffffffffffffffff1673ffffffffffffffffffffffffffffffffffffffff163373ffffffffffffffffffffffffffffffffffffffff161461242b57600080fd5b80600f8190555050565b601460009054906101000a900473ffffffffffffffffffffffffffffffffffffffff1681565b60006124966103e86124888461247a87896142a790919063ffffffff16565b6142a790919063ffffffff16565b61552990919063ffffffff16565b90506124d76040518060400160405280601e81526020017f726577616420696e2073696d706c6520696e7465726573742d2d2d2d2d2d0000815250826155b2565b9392505050565b60286020528060005260406000206000915090505481565b60008061250e6007544261432d90919063ffffffff16565b9150506125266017548261552990919063ffffffff16565b915061254a604051806060016040528060268152602001615b0a60269139836155b2565b5090565b60065481565b601c5481565b60085481565b6020818154811061257057600080fd5b90600052602060002090600402016000915090508060000160009054906101000a900473ffffffffffffffffffffffffffffffffffffffff16908060010154908060020154908060030154905084565b6000806000806000806000600154600254600354600454600554600654600754965096509650965096509650965090919293949596565b6000602760003373ffffffffffffffffffffffffffffffffffffffff1673ffffffffffffffffffffffffffffffffffffffff1681526020019081526020016000209050806009018054905082106126b6576040517f08c379a00000000000000000000000000000000000000000000000000000000081526004018080602001828103825260188152602001807f496e76616c696420696e766573746d656e7420696e646578000000000000000081525060200191505060405180910390fd5b60008160090183815481106126c757fe5b906000526020600020906008020190508060010154421015612734576040517f08c379a000000000000000000000000000000000000000000000000000000000815260040180806020018281038252603b815260200180615d37603b913960400191505060405180910390fd5b600081600201549050612747338261544e565b6127b9576040517f08c379a00000000000000000000000000000000000000000000000000000000081526004018080602001828103825260158152602001807f546f6b656e207472616e73666572206661696c6564000000000000000000000081525060200191505060405180910390fd5b6127d081846002015461435590919063ffffffff16565b83600201819055506127ef8184600301546143d890919063ffffffff16565b836003018190555042836005018190555061281581601c5461435590919063ffffffff16565b601c819055506128316001601d5461435590919063ffffffff16565b601d8190555061284c8160025461435590919063ffffffff16565b6002819055503373ffffffffffffffffffffffffffffffffffffffff167fee1b5abe14e43ee34008f06f51efca5382c42fb48b0a040fd7a5f5c630cb5580826040518082815260200191505060405180910390a250505050565b600080601f600084815260200190815260200160002060000154601f60008581526020019081526020016000206001015491509150915091565b6128e981615289565b90506128f6333083614460565b612968576040517f08c379a00000000000000000000000000000000000000000000000000000000081526004018080602001828103825260158152602001807f546f6b656e207472616e73666572206661696c6564000000000000000000000081525060200191505060405180910390fd5b61297482826001614914565b3373ffffffffffffffffffffffffffffffffffffffff167fb4f3774a35ef894e2fa407041b6832aa9df8f4aae5449664eaa08febb13f8c2d826040518082815260200191505060405180910390a25050565b60105481565b60225481565b60075481565b60015481565b60606000602760003373ffffffffffffffffffffffffffffffffffffffff1673ffffffffffffffffffffffffffffffffffffffff168152602001908152602001600020600901805480602002602001604051908101604052809291908181526020016000905b82821015612ad8578382906000526020600020906008020160405180610100016040529081600082015481526020016001820154815260200160028201548152602001600382015481526020016004820154815260200160058201548152602001600682015481526020016007820160009054906101000a900460ff16151515158152505081526020019060010190612a44565b505050509050805167ffffffffffffffff81118015612af657600080fd5b50604051908082528060200260200182016040528015612b255781602001602082028036833780820191505090505b50915060005b8151811015612b7157818181518110612b4057fe5b602002602001015160800151838281518110612b5857fe5b6020026020010181815250508080600101915050612b2b565b505090565b601660009054906101000a900473ffffffffffffffffffffffffffffffffffffffff1673ffffffffffffffffffffffffffffffffffffffff163373ffffffffffffffffffffffffffffffffffffffff1614612bd057600080fd5b8060118190555050565b60008060008054906101000a900473ffffffffffffffffffffffffffffffffffffffff1690508073ffffffffffffffffffffffffffffffffffffffff166370a08231306040518263ffffffff1660e01b8152600401808273ffffffffffffffffffffffffffffffffffffffff16815260200191505060206040518083038186803b158015612c6757600080fd5b505afa158015612c7b573d6000803e3d6000fd5b505050506040513d6020811015612c9157600080fd5b810190808051906020019092919050505091505090565b601660009054906101000a900473ffffffffffffffffffffffffffffffffffffffff1673ffffffffffffffffffffffffffffffffffffffff163373ffffffffffffffffffffffffffffffffffffffff1614612d0257600080fd5b612d35601660009054906101000a900473ffffffffffffffffffffffffffffffffffffffff16612d30612bda565b61544e565b612da7576040517f08c379a00000000000000000000000000000000000000000000000000000000081526004018080602001828103825260158152602001807f546f6b656e207472616e73666572206661696c6564000000000000000000000081525060200191505060405180910390fd5b601660009054906101000a900473ffffffffffffffffffffffffffffffffffffffff1673ffffffffffffffffffffffffffffffffffffffff167f884edad9ce6fa2440d8a54cc123490eb96d2768479d49ff9c7366125a9424364612e09612bda565b6040518082815260200191505060405180910390a2565b600080612e386001544261432d90919063ffffffff16565b915050612e7a6040518060400160405280600881526020017f74696d653d3d3d3d000000000000000000000000000000000000000000000000815250826155b2565b612ebb6040518060400160405280601281526020017f696e6372656173652074696d652d2d2d2d2d00000000000000000000000000008152506018546155b2565b612ed06018548261552990919063ffffffff16565b9150612f116040518060400160405280601181526020017f696e637265617365207063743d3d3d3d3d000000000000000000000000000000815250836155b2565b5090565b601560009054906101000a900473ffffffffffffffffffffffffffffffffffffffff1681565b601660009054906101000a900473ffffffffffffffffffffffffffffffffffffffff1673ffffffffffffffffffffffffffffffffffffffff163373ffffffffffffffffffffffffffffffffffffffff1614612f9557600080fd5b620f4240810260098190555050565b601660009054906101000a900473ffffffffffffffffffffffffffffffffffffffff1681565b601360009054906101000a900473ffffffffffffffffffffffffffffffffffffffff1681565b601660009054906101000a900473ffffffffffffffffffffffffffffffffffffffff1673ffffffffffffffffffffffffffffffffffffffff163373ffffffffffffffffffffffffffffffffffffffff161461304a57600080fd5b80600c8190555050565b60008054906101000a900473ffffffffffffffffffffffffffffffffffffffff1681565b6000806130906001544261432d90919063ffffffff16565b9150506130a86018548261552990919063ffffffff16565b91505090565b601660009054906101000a900473ffffffffffffffffffffffffffffffffffffffff1673ffffffffffffffffffffffffffffffffffffffff163373ffffffffffffffffffffffffffffffffffffffff161461310857600080fd5b8060108190555050565b61311a615a51565b613122615a73565b61312a615a73565b613132615a73565b600060246000878152602001908152602001600020600480602002604051908101604052809291906000905b828210156131fa578382600402016040518060800160405290816000820160009054906101000a900473ffffffffffffffffffffffffffffffffffffffff1673ffffffffffffffffffffffffffffffffffffffff1673ffffffffffffffffffffffffffffffffffffffff16815260200160018201548152602001600282015481526020016003820154815250508152602001906001019061315e565b50505050905060005b60048110156132ef5781816004811061321857fe5b60200201516000015186826004811061322d57fe5b602002019073ffffffffffffffffffffffffffffffffffffffff16908173ffffffffffffffffffffffffffffffffffffffff168152505081816004811061327057fe5b60200201516020015185826004811061328557fe5b60200201818152505081816004811061329a57fe5b6020020151604001518482600481106132af57fe5b6020020181815250508181600481106132c457fe5b6020020151606001518382600481106132d957fe5b6020020181815250508080600101915050613203565b50509193509193565b60055481565b601f6020528060005260406000206000915090508060000154908060010154905082565b601e6020528060005260406000206000915090505481565b60045481565b60095481565b60266020528060005260406000206000915054906101000a900460ff1681565b60115481565b6000839050613393604051806060016040528060268152602001615dee60269139856155b2565b60005b601281101561343157808311156133e7576133e0826133d26103e86133c488876142a790919063ffffffff16565b61552990919063ffffffff16565b6143d890919063ffffffff16565b9150613424565b613421826134136103e86134056000876142a790919063ffffffff16565b61552990919063ffffffff16565b6143d890919063ffffffff16565b91505b8080600101915050613396565b50613445848261435590919063ffffffff16565b9050613469604051806060016040528060308152602001615d0760309139826155b2565b9392505050565b600f5481565b60215481565b600080602760003373ffffffffffffffffffffffffffffffffffffffff1673ffffffffffffffffffffffffffffffffffffffff168152602001908152602001600020604051806101600160405290816000820160009054906101000a900460ff161515151581526020016000820160019054906101000a900473ffffffffffffffffffffffffffffffffffffffff1673ffffffffffffffffffffffffffffffffffffffff1673ffffffffffffffffffffffffffffffffffffffff168152602001600182015481526020016002820154815260200160038201548152602001600482015481526020016005820154815260200160068201548152602001600782015481526020016008820180548060200260200160405190810160405280929190818152602001828054801561360657602002820191906000526020600020905b8160009054906101000a900473ffffffffffffffffffffffffffffffffffffffff1673ffffffffffffffffffffffffffffffffffffffff16815260200190600101908083116135bc575b5050505050815260200160098201805480602002602001604051908101604052809291908181526020016000905b828210156136c8578382906000526020600020906008020160405180610100016040529081600082015481526020016001820154815260200160028201548152602001600382015481526020016004820154815260200160058201548152602001600682015481526020016007820160009054906101000a900460ff16151515158152505081526020019060010190613634565b505050508152505090508060a0015191506136e1615a95565b60005b8261014001515181101561393d57826101400151818151811061370357fe5b6020026020010151915061374c6040518060400160405280601681526020017f6920696e20676574616d6f756e742d2d2d2d2d2d2d2d00000000000000000000815250826155b2565b81602001518360c00151111561376157613930565b60028260c00151111561379d57816020015142101561377f57613930565b6137968260600151856143d890919063ffffffff16565b935061392f565b60006137ce6137bb60175485608001516142a790919063ffffffff16565b846060015161552990919063ffffffff16565b905060006137ed8560c0015185600001516156b990919063ffffffff16565b905060006138084286602001516156d390919063ffffffff16565b90506138496040518060400160405280601781526020017f7261746520696e20676574616d6f756e742d2d2d2d2d2d000000000000000000815250846155b2565b6138886040518060400160405280601881526020017f737461727420696e20676574616d6f756e742d2d2d2d2d2d0000000000000000815250836155b2565b6138c76040518060400160405280601681526020017f656e6420696e20676574616d6f756e742d2d2d2d2d2d00000000000000000000815250826155b2565b8082101561392b576139066138f7846138e9858561435590919063ffffffff16565b6142a790919063ffffffff16565b886143d890919063ffffffff16565b965061392a604051806060016040528060258152602001615bfa60259139886155b2565b5b5050505b5b80806001019150506136e4565b50505090565b60608060608060608060606000602760003373ffffffffffffffffffffffffffffffffffffffff1673ffffffffffffffffffffffffffffffffffffffff168152602001908152602001600020600901805480602002602001604051908101604052809291908181526020016000905b82821015613a46578382906000526020600020906008020160405180610100016040529081600082015481526020016001820154815260200160028201548152602001600382015481526020016004820154815260200160058201548152602001600682015481526020016007820160009054906101000a900460ff161515151581525050815260200190600101906139b2565b505050509050805167ffffffffffffffff81118015613a6457600080fd5b50604051908082528060200260200182016040528015613a935781602001602082028036833780820191505090505b509750805167ffffffffffffffff81118015613aae57600080fd5b50604051908082528060200260200182016040528015613add5781602001602082028036833780820191505090505b509650805167ffffffffffffffff81118015613af857600080fd5b50604051908082528060200260200182016040528015613b275781602001602082028036833780820191505090505b509550805167ffffffffffffffff81118015613b4257600080fd5b50604051908082528060200260200182016040528015613b715781602001602082028036833780820191505090505b509450805167ffffffffffffffff81118015613b8c57600080fd5b50604051908082528060200260200182016040528015613bbb5781602001602082028036833780820191505090505b509350805167ffffffffffffffff81118015613bd657600080fd5b50604051908082528060200260200182016040528015613c055781602001602082028036833780820191505090505b509250805167ffffffffffffffff81118015613c2057600080fd5b50604051908082528060200260200182016040528015613c4f5781602001602082028036833780820191505090505b50915060005b8151811015613dc157818181518110613c6a57fe5b602002602001015160200151898281518110613c8257fe5b602002602001018181525050818181518110613c9a57fe5b602002602001015160000151888281518110613cb257fe5b602002602001018181525050818181518110613cca57fe5b602002602001015160400151878281518110613ce257fe5b602002602001018181525050818181518110613cfa57fe5b602002602001015160600151868281518110613d1257fe5b602002602001018181525050818181518110613d2a57fe5b602002602001015160a00151858281518110613d4257fe5b602002602001018181525050818181518110613d5a57fe5b602002602001015160c00151848281518110613d7257fe5b602002602001018181525050818181518110613d8a57fe5b602002602001015160e00151838281518110613da257fe5b6020026020010190151590811515815250508080600101915050613c55565b505090919293949596565b60008060006001851415613e5c57600b549250613e01604051806060016040528060278152602001615bd360279139846155b2565b600f549150613e28604051806060016040528060278152602001615bac60279139836155b2565b613e3384838561336c565b9050613e576040518060600160405280602b8152602001615adf602b9139826155b2565b614014565b6002851415613ee757600c549250613e8c604051806060016040528060278152602001615c1f60279139846155b2565b6010549150613eb3604051806060016040528060278152602001615ce060279139836155b2565b613ebe84838561336c565b9050613ee26040518060600160405280602b8152602001615b30602b9139826155b2565b614013565b6003851415613f7257600d549250613f17604051806060016040528060278152602001615b8560279139846155b2565b6011549150613f3e604051806060016040528060278152602001615c4660279139836155b2565b613f4984838561245b565b9050613f6d6040518060600160405280602b8152602001615d99602b9139826155b2565b614012565b600485141561401157600e549250613fa2604051806060016040528060278152602001615c6d60279139846155b2565b613fbd600a613faf6156ec565b6142a790919063ffffffff16565b9150613fe1604051806060016040528060278152602001615d7260279139836155b2565b613fec84838561245b565b90506140106040518060600160405280602b8152602001615cb5602b9139826155b2565b5b5b5b5b9250925092565b60008060008060008060008060008060018b141561404257600b549150600f549050614066565b60028b141561405a57600c5491506010549050614065565b600d54915060115490505b5b600154601e60008d815260200190815260200160002054602860008e815260200190815260200160002054614099612bda565b6009546008548787995099509950995099509950995099505050919395975091939597565b601660009054906101000a900473ffffffffffffffffffffffffffffffffffffffff1673ffffffffffffffffffffffffffffffffffffffff163373ffffffffffffffffffffffffffffffffffffffff161461411857600080fd5b620f4240810260088190555050565b60125481565b600c5481565b600d5481565b601660009054906101000a900473ffffffffffffffffffffffffffffffffffffffff1673ffffffffffffffffffffffffffffffffffffffff163373ffffffffffffffffffffffffffffffffffffffff161461419357600080fd5b80600a8190555050565b601660009054906101000a900473ffffffffffffffffffffffffffffffffffffffff1673ffffffffffffffffffffffffffffffffffffffff163373ffffffffffffffffffffffffffffffffffffffff16146141f757600080fd5b80600d8190555050565b600a5481565b601660009054906101000a900473ffffffffffffffffffffffffffffffffffffffff1673ffffffffffffffffffffffffffffffffffffffff163373ffffffffffffffffffffffffffffffffffffffff161461426157600080fd5b8060128190555050565b600b5481565b6000806142896001544261432d90919063ffffffff16565b9150506142a16018548261552990919063ffffffff16565b91505090565b6000808314156142ba5760009050614327565b60008284029050828482816142cb57fe5b0414614322576040517f08c379a0000000000000000000000000000000000000000000000000000000008152600401808060200182810382526021815260200180615c946021913960400191505060405180910390fd5b809150505b92915050565b60008083831115614344576000809150915061434e565b6001838503915091505b9250929050565b6000828211156143cd576040517f08c379a000000000000000000000000000000000000000000000000000000000815260040180806020018281038252601e8152602001807f536166654d6174683a207375627472616374696f6e206f766572666c6f77000081525060200191505060405180910390fd5b818303905092915050565b600080828401905083811015614456576040517f08c379a000000000000000000000000000000000000000000000000000000000815260040180806020018281038252601b8152602001807f536166654d6174683a206164646974696f6e206f766572666c6f77000000000081525060200191505060405180910390fd5b8091505092915050565b60008060008054906101000a900473ffffffffffffffffffffffffffffffffffffffff1690508073ffffffffffffffffffffffffffffffffffffffff166323b872dd8686866040518463ffffffff1660e01b8152600401808473ffffffffffffffffffffffffffffffffffffffff1681526020018373ffffffffffffffffffffffffffffffffffffffff1681526020018281526020019350505050602060405180830381600087803b15801561451557600080fd5b505af1158015614529573d6000803e3d6000fd5b505050506040513d602081101561453f57600080fd5b81019080805190602001909291905050509150509392505050565b602760003373ffffffffffffffffffffffffffffffffffffffff1673ffffffffffffffffffffffffffffffffffffffff16815260200190815260200160002060000160009054906101000a900460ff16156145b457614911565b6001602760003373ffffffffffffffffffffffffffffffffffffffff1673ffffffffffffffffffffffffffffffffffffffff16815260200190815260200160002060000160006101000a81548160ff0219169083151502179055503373ffffffffffffffffffffffffffffffffffffffff168173ffffffffffffffffffffffffffffffffffffffff1614806146965750602760008273ffffffffffffffffffffffffffffffffffffffff1673ffffffffffffffffffffffffffffffffffffffff16815260200190815260200160002060000160009054906101000a900460ff16155b156146c157601560009054906101000a900473ffffffffffffffffffffffffffffffffffffffff1690505b80602760003373ffffffffffffffffffffffffffffffffffffffff1673ffffffffffffffffffffffffffffffffffffffff16815260200190815260200160002060000160016101000a81548173ffffffffffffffffffffffffffffffffffffffff021916908373ffffffffffffffffffffffffffffffffffffffff160217905550602760008273ffffffffffffffffffffffffffffffffffffffff1673ffffffffffffffffffffffffffffffffffffffff168152602001908152602001600020600801339080600181540180825580915050600190039060005260206000200160009091909190916101000a81548173ffffffffffffffffffffffffffffffffffffffff021916908373ffffffffffffffffffffffffffffffffffffffff16021790555060005b600381101561490f57602760008373ffffffffffffffffffffffffffffffffffffffff1673ffffffffffffffffffffffffffffffffffffffff16815260200190815260200160002060060160008154809291906001019190505550602760008373ffffffffffffffffffffffffffffffffffffffff1673ffffffffffffffffffffffffffffffffffffffff16815260200190815260200160002060000160019054906101000a900473ffffffffffffffffffffffffffffffffffffffff169150602760008373ffffffffffffffffffffffffffffffffffffffff1673ffffffffffffffffffffffffffffffffffffffff16815260200190815260200160002060000160009054906101000a900460ff166149025750614911565b80806001019150506147e8565b505b50565b6000602760003373ffffffffffffffffffffffffffffffffffffffff1673ffffffffffffffffffffffffffffffffffffffff16815260200190815260200160002090506000839050821561498c57614989606461497b6066876142a790919063ffffffff16565b61552990919063ffffffff16565b90505b600080600061499b8885613dcc565b92509250925060006149ca426149bc866017546142a790919063ffffffff16565b6143d890919063ffffffff16565b9050614a0b6040518060400160405280601a81526020017f7261746520616464496e766573746d656e742d2d2d2d2d2d2d2d000000000000815250846155b2565b600084111561527e57614a2b6019546001546143d890919063ffffffff16565b421115614ab957614a6d614a5c6064614a4e60538c6142a790919063ffffffff16565b61552990919063ffffffff16565b6003546143d890919063ffffffff16565b600381905550614aae614a9d6064614a8f60038c6142a790919063ffffffff16565b61552990919063ffffffff16565b6004546143d890919063ffffffff16565b600481905550614b3c565b614af4614ae36064614ad560548c6142a790919063ffffffff16565b61552990919063ffffffff16565b6003546143d890919063ffffffff16565b600381905550614b35614b246064614b1660028c6142a790919063ffffffff16565b61552990919063ffffffff16565b6004546143d890919063ffffffff16565b6004819055505b614b51886002546143d890919063ffffffff16565b600281905550614b6e8887600201546143d890919063ffffffff16565b866002018190555060008660000160019054906101000a900473ffffffffffffffffffffffffffffffffffffffff1690506000614ba96124f6565b9050614bea6040518060400160405280600f81526020017f72616e6b20696e6465782d2d2d2d2d0000000000000000000000000000000000815250826155b2565b60005b60038110156150ac57602760008473ffffffffffffffffffffffffffffffffffffffff1673ffffffffffffffffffffffffffffffffffffffff16815260200190815260200160002060000160009054906101000a900460ff16614c4f576150ac565b614c8e6040518060400160405280601581526020017f696e6465782061667465723d3d3d3d3d3d3d3d3d3d0000000000000000000000815250826155b2565b6000614ccd6064614cbf601b8581548110614ca557fe5b90600052602060002001548f6142a790919063ffffffff16565b61552990919063ffffffff16565b9050614d0e6040518060400160405280601981526020017f72657761726420696e7369646520696e766573743d3d3d3d3d00000000000000815250826155b2565b614d6381602760008773ffffffffffffffffffffffffffffffffffffffff1673ffffffffffffffffffffffffffffffffffffffff168152602001908152602001600020600101546143d890919063ffffffff16565b602760008673ffffffffffffffffffffffffffffffffffffffff1673ffffffffffffffffffffffffffffffffffffffff16815260200190815260200160002060010181905550614dfe81602760008773ffffffffffffffffffffffffffffffffffffffff1673ffffffffffffffffffffffffffffffffffffffff168152602001908152602001600020600401546143d890919063ffffffff16565b602760008673ffffffffffffffffffffffffffffffffffffffff1673ffffffffffffffffffffffffffffffffffffffff16815260200190815260200160002060040181905550614e998c602760008773ffffffffffffffffffffffffffffffffffffffff1673ffffffffffffffffffffffffffffffffffffffff168152602001908152602001600020600701546143d890919063ffffffff16565b602760008673ffffffffffffffffffffffffffffffffffffffff1673ffffffffffffffffffffffffffffffffffffffff168152602001908152602001600020600701819055506000821415614ffa57614f4b8c6025600086815260200190815260200160002060008773ffffffffffffffffffffffffffffffffffffffff1673ffffffffffffffffffffffffffffffffffffffff168152602001908152602001600020546143d890919063ffffffff16565b6025600085815260200190815260200160002060008673ffffffffffffffffffffffffffffffffffffffff1673ffffffffffffffffffffffffffffffffffffffff16815260200190815260200160002081905550614ff9846025600086815260200190815260200160002060008773ffffffffffffffffffffffffffffffffffffffff1673ffffffffffffffffffffffffffffffffffffffff16815260200190815260200160002054615745565b5b602760008573ffffffffffffffffffffffffffffffffffffffff1673ffffffffffffffffffffffffffffffffffffffff16815260200190815260200160002060000160019054906101000a900473ffffffffffffffffffffffffffffffffffffffff16935061509e6040518060400160405280601e81526020017f696e766573746d656e742072656665727265722d2d2d2d2d2d2d2d2d2d2d0000815250856158ee565b508080600101915050614bed565b50876009016040518061010001604052804281526020018581526020018981526020018681526020018881526020018781526020018d81526020018b15158152509080600181540180825580915050600190039060005260206000209060080201600090919091909150600082015181600001556020820151816001015560408201518160020155606082015181600301556080820151816004015560a0820151816005015560c0820151816006015560e08201518160070160006101000a81548160ff021916908315150217905550505060006006541480615190575042600654115b1561527b57602060405180608001604052803373ffffffffffffffffffffffffffffffffffffffff1681526020018c81526020016000815260200142815250908060018154018082558091505060019003906000526020600020906004020160009091909190915060008201518160000160006101000a81548173ffffffffffffffffffffffffffffffffffffffff021916908373ffffffffffffffffffffffffffffffffffffffff16021790555060208201518160010155604082015181600201556060820151816003015550506021600081548092919060010191905055506021546022819055505b50505b505050505050505050565b60008061529461347c565b90506000602760003373ffffffffffffffffffffffffffffffffffffffff1673ffffffffffffffffffffffffffffffffffffffff168152602001908152602001600020905060008414806152e757508184115b156152f0578193505b6003548411156153005760035493505b60008411615376576040517f08c379a000000000000000000000000000000000000000000000000000000000815260040180806020018281038252600c8152602001807f4572726f7220616d6f756e74000000000000000000000000000000000000000081525060200191505060405180910390fd5b615389848361435590919063ffffffff16565b81600401819055506153a88482600301546143d890919063ffffffff16565b81600301819055504281600501819055506153ce8460035461435590919063ffffffff16565b600381905550600060065414801561540e575061540b6153fa60026017546142a790919063ffffffff16565b6001546143d890919063ffffffff16565b42115b80156154235750601a54600a0a600a02600354105b156154445761543d601754426143d890919063ffffffff16565b6006819055505b8392505050919050565b60008060008054906101000a900473ffffffffffffffffffffffffffffffffffffffff1690508073ffffffffffffffffffffffffffffffffffffffff1663a9059cbb85856040518363ffffffff1660e01b8152600401808373ffffffffffffffffffffffffffffffffffffffff16815260200182815260200192505050602060405180830381600087803b1580156154e557600080fd5b505af11580156154f9573d6000803e3d6000fd5b505050506040513d602081101561550f57600080fd5b810190808051906020019092919050505091505092915050565b60008082116155a0576040517f08c379a000000000000000000000000000000000000000000000000000000000815260040180806020018281038252601a8152602001807f536166654d6174683a206469766973696f6e206279207a65726f00000000000081525060200191505060405180910390fd5b8183816155a957fe5b04905092915050565b6156b582826040516024018080602001838152602001828103825284818151815260200191508051906020019080838360005b838110156156005780820151818401526020810190506155e5565b50505050905090810190601f16801561562d5780820380516001836020036101000a031916815260200191505b5093505050506040516020818303038152906040527fb60e72cc000000000000000000000000000000000000000000000000000000007bffffffffffffffffffffffffffffffffffffffffffffffffffffffff19166020820180517bffffffffffffffffffffffffffffffffffffffffffffffffffffffff8381831617835250505050615a0b565b5050565b6000818310156156c957816156cb565b825b905092915050565b60008183106156e257816156e4565b825b905092915050565b600080600254600354816156fc57fe5b04905061573e6040518060400160405280601981526020017f726174696f20696e2067657420726174696f2d2d2d2d2d2d2d00000000000000815250826155b2565b8091505090565b600061574f6124f6565b905060008060008086905060005b602460008781526020019081526020016000205060048110156158e35760246000878152602001908152602001600020816004811061579857fe5b6004020194508460000160009054906101000a900473ffffffffffffffffffffffffffffffffffffffff1673ffffffffffffffffffffffffffffffffffffffff168873ffffffffffffffffffffffffffffffffffffffff16141561580a578685600101819055505050505050506158ea565b84600101548711156158d6578460000160009054906101000a900473ffffffffffffffffffffffffffffffffffffffff16935084600101549250878560000160006101000a81548173ffffffffffffffffffffffffffffffffffffffff021916908373ffffffffffffffffffffffffffffffffffffffff1602179055508685600101819055508373ffffffffffffffffffffffffffffffffffffffff168273ffffffffffffffffffffffffffffffffffffffff1614156158cf575050505050506158ea565b8397508296505b808060010191505061575d565b5050505050505b5050565b615a07828260405160240180806020018373ffffffffffffffffffffffffffffffffffffffff168152602001828103825284818151815260200191508051906020019080838360005b83811015615952578082015181840152602081019050615937565b50505050905090810190601f16801561597f5780820380516001836020036101000a031916815260200191505b5093505050506040516020818303038152906040527f319af333000000000000000000000000000000000000000000000000000000007bffffffffffffffffffffffffffffffffffffffffffffffffffffffff19166020820180517bffffffffffffffffffffffffffffffffffffffffffffffffffffffff8381831617835250505050615a0b565b5050565b615a2281615a1a615a25615a46565b63ffffffff16565b50565b60006a636f6e736f6c652e6c6f679050600080835160208501845afa505050565b615adc819050919050565b6040518060800160405280600490602082028036833780820191505090505090565b6040518060800160405280600490602082028036833780820191505090505090565b604051806101000160405280600081526020016000815260200160008152602001600081526020016000815260200160008152602001600081526020016000151581525090565bfefe3120746f74616c5265776172642020696e7369646520676574706572696f64726174652d2d2d2d2d2d2d2d72616e6b20696e64657820696e206765742072616e6b20696e6465782d2d2d2d2d2d2d2d2d2d3220746f74616c5265776172642020696e7369646520676574706572696f64726174652d2d2d2d2d2d2d2d506c6561736520696e76657374206d6f7265207468616e20746865206d696e696d756d20616d6f756e743320706572696f6420696e7369646520676574706572696f64726174653d3d3d3d3d3d3d3d3d3d31207261746520696e7369646520676574706572696f64726174653d3d3d3d3d3d3d3d3d3d3d3d3120706572696f6420696e7369646520676574706572696f64726174653d3d3d3d3d3d3d3d3d3d616d6f756e7420696e20676574616d6f756e7420696620636f6e646974696f6e2d2d2d2d2d3220706572696f6420696e7369646520676574706572696f64726174653d3d3d3d3d3d3d3d3d3d33207261746520696e7369646520676574706572696f64726174653d3d3d3d3d3d3d3d3d3d3d3d3420706572696f6420696e7369646520676574706572696f64726174653d3d3d3d3d3d3d3d3d3d536166654d6174683a206d756c7469706c69636174696f6e206f766572666c6f773420746f74616c5265776172642020696e7369646520676574706572696f64726174652d2d2d2d2d2d2d2d32207261746520696e7369646520676574706572696f64726174653d3d3d3d3d3d3d3d3d3d3d3d72657761726420696e7369646520636f6d706f756e642063616c63756c6174652066756e6374696f6e202d2d2d2d2d2d43616e6e6f74207769746864726177207072696e636970616c206265666f72652074686520696e766573746d656e7420706572696f6420656e647334207261746520696e7369646520676574706572696f64726174653d3d3d3d3d3d3d3d3d3d3d3d3320746f74616c5265776172642020696e7369646520676574706572696f64726174652d2d2d2d2d2d2d2d506c6561736520696e76657374206c657373207468616e20746865206d6178696d756d20616d6f756e74696e636f6d6520696e736964652063616c63756c6174652066756e6374696f6e2d2d2d2d2d2da2646970667358221220ebf91443857dd33187f07818a41c0982594876777c0c48aebb7e07d43ece794764736f6c63430007060033536166654d6174683a206d756c7469706c69636174696f6e206f766572666c6f77",
  "linkReferences": {},
  "deployedLinkReferences": {}
}