{
  "_format": "hh-sol-artifact-1",
  "contractName": "YieldGivers",
  "sourceName": "contracts/YieldGivers.sol",
  "abi": [
    {
      "inputs": [
        {
          "internalType": "address",
          "name": "_tokenAddress",
          "type": "address"
        },
        {
          "internalType": "address payable",
          "name": "dev_",
          "type": "address"
        },
        {
          "internalType": "address payable",
          "name": "ad_",
          "type": "address"
        },
        {
          "internalType": "address payable",
          "name": "team_",
          "type": "address"
        },
        {
          "internalType": "uint256",
          "name": "startTime_",
          "type": "uint256"
        },
        {
          "internalType": "uint256",
          "name": "rankTime_",
          "type": "uint256"
        }
      ],
      "stateMutability": "nonpayable",
      "type": "constructor"
    },
    {
      "anonymous": false,
      "inputs": [
        {
          "indexed": true,
          "internalType": "address",
          "name": "user",
          "type": "address"
        },
        {
          "indexed": false,
          "internalType": "uint256",
          "name": "amount",
          "type": "uint256"
        }
      ],
      "name": "Insurance",
      "type": "event"
    },
    {
      "anonymous": false,
      "inputs": [
        {
          "indexed": true,
          "internalType": "address",
          "name": "user",
          "type": "address"
        },
        {
          "indexed": false,
          "internalType": "uint256",
          "name": "amount",
          "type": "uint256"
        }
      ],
      "name": "Rank",
      "type": "event"
    },
    {
      "anonymous": false,
      "inputs": [
        {
          "indexed": true,
          "internalType": "address",
          "name": "user",
          "type": "address"
        },
        {
          "indexed": false,
          "internalType": "uint256",
          "name": "amount",
          "type": "uint256"
        }
      ],
      "name": "Retake",
      "type": "event"
    },
    {
      "anonymous": false,
      "inputs": [
        {
          "indexed": true,
          "internalType": "address",
          "name": "user",
          "type": "address"
        },
        {
          "indexed": false,
          "internalType": "uint256",
          "name": "amount",
          "type": "uint256"
        }
      ],
      "name": "Stake",
      "type": "event"
    },
    {
      "anonymous": false,
      "inputs": [
        {
          "indexed": true,
          "internalType": "address",
          "name": "user",
          "type": "address"
        },
        {
          "indexed": false,
          "internalType": "uint256",
          "name": "amount",
          "type": "uint256"
        }
      ],
      "name": "Withdraw",
      "type": "event"
    },
    {
      "anonymous": false,
      "inputs": [
        {
          "indexed": true,
          "internalType": "address",
          "name": "user",
          "type": "address"
        },
        {
          "indexed": false,
          "internalType": "uint256",
          "name": "amount",
          "type": "uint256"
        }
      ],
      "name": "WithdrawPrincipal",
      "type": "event"
    },
    {
      "inputs": [],
      "name": "ad",
      "outputs": [
        {
          "internalType": "address payable",
          "name": "",
          "type": "address"
        }
      ],
      "stateMutability": "view",
      "type": "function"
    },
    {
      "inputs": [
        {
          "internalType": "uint256",
          "name": "income",
          "type": "uint256"
        },
        {
          "internalType": "uint256",
          "name": "rate",
          "type": "uint256"
        },
        {
          "internalType": "uint256",
          "name": "period",
          "type": "uint256"
        }
      ],
      "name": "calcReward",
      "outputs": [
        {
          "internalType": "uint256",
          "name": "reward",
          "type": "uint256"
        }
      ],
      "stateMutability": "pure",
      "type": "function"
    },
    {
      "inputs": [
        {
          "internalType": "uint256",
          "name": "income",
          "type": "uint256"
        },
        {
          "internalType": "uint256",
          "name": "rate",
          "type": "uint256"
        },
        {
          "internalType": "uint256",
          "name": "period",
          "type": "uint256"
        }
      ],
      "name": "calcRewardCompound",
      "outputs": [
        {
          "internalType": "uint256",
          "name": "reward",
          "type": "uint256"
        }
      ],
      "stateMutability": "pure",
      "type": "function"
    },
    {
      "inputs": [],
      "name": "dev",
      "outputs": [
        {
          "internalType": "address payable",
          "name": "",
          "type": "address"
        }
      ],
      "stateMutability": "view",
      "type": "function"
    },
    {
      "inputs": [],
      "name": "getAmount",
      "outputs": [
        {
          "internalType": "uint256",
          "name": "amount",
          "type": "uint256"
        }
      ],
      "stateMutability": "view",
      "type": "function"
    },
    {
      "inputs": [],
      "name": "getIncreasePct",
      "outputs": [
        {
          "internalType": "uint256",
          "name": "increasePct",
          "type": "uint256"
        }
      ],
      "stateMutability": "view",
      "type": "function"
    },
    {
      "inputs": [],
      "name": "getInfo",
      "outputs": [
        {
          "internalType": "uint256",
          "name": "",
          "type": "uint256"
        },
        {
          "internalType": "uint256",
          "name": "",
          "type": "uint256"
        },
        {
          "internalType": "uint256",
          "name": "",
          "type": "uint256"
        },
        {
          "internalType": "uint256",
          "name": "",
          "type": "uint256"
        },
        {
          "internalType": "uint256",
          "name": "",
          "type": "uint256"
        },
        {
          "internalType": "uint256",
          "name": "",
          "type": "uint256"
        },
        {
          "internalType": "uint256",
          "name": "",
          "type": "uint256"
        }
      ],
      "stateMutability": "view",
      "type": "function"
    },
    {
      "inputs": [
        {
          "internalType": "uint256",
          "name": "length",
          "type": "uint256"
        }
      ],
      "name": "getInsurances",
      "outputs": [
        {
          "internalType": "address[]",
          "name": "addresses",
          "type": "address[]"
        },
        {
          "internalType": "uint256[]",
          "name": "values",
          "type": "uint256[]"
        },
        {
          "internalType": "uint256[]",
          "name": "rewards",
          "type": "uint256[]"
        },
        {
          "internalType": "uint256[]",
          "name": "times",
          "type": "uint256[]"
        }
      ],
      "stateMutability": "view",
      "type": "function"
    },
    {
      "inputs": [],
      "name": "getInvestments",
      "outputs": [
        {
          "internalType": "uint256[]",
          "name": "times",
          "type": "uint256[]"
        },
        {
          "internalType": "uint256[]",
          "name": "starts",
          "type": "uint256[]"
        },
        {
          "internalType": "uint256[]",
          "name": "values",
          "type": "uint256[]"
        },
        {
          "internalType": "uint256[]",
          "name": "totalRewards",
          "type": "uint256[]"
        },
        {
          "internalType": "uint256[]",
          "name": "rates",
          "type": "uint256[]"
        },
        {
          "internalType": "uint256[]",
          "name": "typeNums",
          "type": "uint256[]"
        },
        {
          "internalType": "bool[]",
          "name": "isReStakes",
          "type": "bool[]"
        }
      ],
      "stateMutability": "view",
      "type": "function"
    },
    {
      "inputs": [],
      "name": "getInvestmentsEx",
      "outputs": [
        {
          "internalType": "uint256[]",
          "name": "periods",
          "type": "uint256[]"
        }
      ],
      "stateMutability": "view",
      "type": "function"
    },
    {
      "inputs": [
        {
          "internalType": "uint256",
          "name": "typeNum",
          "type": "uint256"
        },
        {
          "internalType": "uint256",
          "name": "income",
          "type": "uint256"
        }
      ],
      "name": "getPeriodAndRate",
      "outputs": [
        {
          "internalType": "uint256",
          "name": "period",
          "type": "uint256"
        },
        {
          "internalType": "uint256",
          "name": "rate",
          "type": "uint256"
        },
        {
          "internalType": "uint256",
          "name": "totalReward",
          "type": "uint256"
        }
      ],
      "stateMutability": "view",
      "type": "function"
    },
    {
      "inputs": [],
      "name": "getPlanFourRate",
      "outputs": [
        {
          "internalType": "uint256",
          "name": "planFourPct",
          "type": "uint256"
        }
      ],
      "stateMutability": "view",
      "type": "function"
    },
    {
      "inputs": [],
      "name": "getPlanOneRate",
      "outputs": [
        {
          "internalType": "uint256",
          "name": "planOnePct",
          "type": "uint256"
        }
      ],
      "stateMutability": "view",
      "type": "function"
    },
    {
      "inputs": [],
      "name": "getPlanThreeRate",
      "outputs": [
        {
          "internalType": "uint256",
          "name": "planThreePct",
          "type": "uint256"
        }
      ],
      "stateMutability": "view",
      "type": "function"
    },
    {
      "inputs": [],
      "name": "getPlanTwoRate",
      "outputs": [
        {
          "internalType": "uint256",
          "name": "planTwoPct",
          "type": "uint256"
        }
      ],
      "stateMutability": "view",
      "type": "function"
    },
    {
      "inputs": [
        {
          "internalType": "uint256",
          "name": "typenum",
          "type": "uint256"
        }
      ],
      "name": "getPoolAllInfo",
      "outputs": [
        {
          "internalType": "uint256",
          "name": "",
          "type": "uint256"
        },
        {
          "internalType": "uint256",
          "name": "",
          "type": "uint256"
        },
        {
          "internalType": "uint256",
          "name": "",
          "type": "uint256"
        },
        {
          "internalType": "uint256",
          "name": "",
          "type": "uint256"
        },
        {
          "internalType": "uint256",
          "name": "",
          "type": "uint256"
        },
        {
          "internalType": "uint256",
          "name": "",
          "type": "uint256"
        },
        {
          "internalType": "uint256",
          "name": "",
          "type": "uint256"
        },
        {
          "internalType": "uint256",
          "name": "",
          "type": "uint256"
        }
      ],
      "stateMutability": "view",
      "type": "function"
    },
    {
      "inputs": [
        {
          "internalType": "uint256",
          "name": "typeNum",
          "type": "uint256"
        }
      ],
      "name": "getPoolMinMax",
      "outputs": [
        {
          "internalType": "uint256",
          "name": "",
          "type": "uint256"
        },
        {
          "internalType": "uint256",
          "name": "",
          "type": "uint256"
        }
      ],
      "stateMutability": "view",
      "type": "function"
    },
    {
      "inputs": [],
      "name": "getRankIndex",
      "outputs": [
        {
          "internalType": "uint256",
          "name": "index",
          "type": "uint256"
        }
      ],
      "stateMutability": "view",
      "type": "function"
    },
    {
      "inputs": [
        {
          "internalType": "uint256",
          "name": "index",
          "type": "uint256"
        }
      ],
      "name": "getRanks",
      "outputs": [
        {
          "internalType": "address[4]",
          "name": "addresses",
          "type": "address[4]"
        },
        {
          "internalType": "uint256[4]",
          "name": "values",
          "type": "uint256[4]"
        },
        {
          "internalType": "uint256[4]",
          "name": "rewards",
          "type": "uint256[4]"
        },
        {
          "internalType": "uint256[4]",
          "name": "times",
          "type": "uint256[4]"
        }
      ],
      "stateMutability": "view",
      "type": "function"
    },
    {
      "inputs": [],
      "name": "getTokenBalance",
      "outputs": [
        {
          "internalType": "uint256",
          "name": "",
          "type": "uint256"
        }
      ],
      "stateMutability": "view",
      "type": "function"
    },
    {
      "inputs": [],
      "name": "insuranceIndex",
      "outputs": [
        {
          "internalType": "uint256",
          "name": "",
          "type": "uint256"
        }
      ],
      "stateMutability": "view",
      "type": "function"
    },
    {
      "inputs": [],
      "name": "insurancePool",
      "outputs": [
        {
          "internalType": "uint256",
          "name": "",
          "type": "uint256"
        }
      ],
      "stateMutability": "view",
      "type": "function"
    },
    {
      "inputs": [],
      "name": "insuranceRewardIndex",
      "outputs": [
        {
          "internalType": "uint256",
          "name": "",
          "type": "uint256"
        }
      ],
      "stateMutability": "view",
      "type": "function"
    },
    {
      "inputs": [],
      "name": "insuranceTime",
      "outputs": [
        {
          "internalType": "uint256",
          "name": "",
          "type": "uint256"
        }
      ],
      "stateMutability": "view",
      "type": "function"
    },
    {
      "inputs": [
        {
          "internalType": "uint256",
          "name": "",
          "type": "uint256"
        }
      ],
      "name": "insurances",
      "outputs": [
        {
          "internalType": "address",
          "name": "addr",
          "type": "address"
        },
        {
          "internalType": "uint256",
          "name": "value",
          "type": "uint256"
        },
        {
          "internalType": "uint256",
          "name": "reward",
          "type": "uint256"
        },
        {
          "internalType": "uint256",
          "name": "time",
          "type": "uint256"
        }
      ],
      "stateMutability": "view",
      "type": "function"
    },
    {
      "inputs": [],
      "name": "maxInvestAmount",
      "outputs": [
        {
          "internalType": "uint256",
          "name": "",
          "type": "uint256"
        }
      ],
      "stateMutability": "view",
      "type": "function"
    },
    {
      "inputs": [],
      "name": "minInvestAmount",
      "outputs": [
        {
          "internalType": "uint256",
          "name": "",
          "type": "uint256"
        }
      ],
      "stateMutability": "view",
      "type": "function"
    },
    {
      "inputs": [],
      "name": "owner",
      "outputs": [
        {
          "internalType": "address",
          "name": "",
          "type": "address"
        }
      ],
      "stateMutability": "view",
      "type": "function"
    },
    {
      "inputs": [],
      "name": "percentMultiplier",
      "outputs": [
        {
          "internalType": "uint256",
          "name": "",
          "type": "uint256"
        }
      ],
      "stateMutability": "view",
      "type": "function"
    },
    {
      "inputs": [],
      "name": "planFourDays",
      "outputs": [
        {
          "internalType": "uint256",
          "name": "",
          "type": "uint256"
        }
      ],
      "stateMutability": "view",
      "type": "function"
    },
    {
      "inputs": [],
      "name": "planFourMultiplier",
      "outputs": [
        {
          "internalType": "uint256",
          "name": "",
          "type": "uint256"
        }
      ],
      "stateMutability": "view",
      "type": "function"
    },
    {
      "inputs": [
        {
          "internalType": "uint256",
          "name": "planFourPct",
          "type": "uint256"
        }
      ],
      "name": "planFourRate",
      "outputs": [],
      "stateMutability": "nonpayable",
      "type": "function"
    },
    {
      "inputs": [],
      "name": "planOneDays",
      "outputs": [
        {
          "internalType": "uint256",
          "name": "",
          "type": "uint256"
        }
      ],
      "stateMutability": "view",
      "type": "function"
    },
    {
      "inputs": [],
      "name": "planOneMultiplier",
      "outputs": [
        {
          "internalType": "uint256",
          "name": "",
          "type": "uint256"
        }
      ],
      "stateMutability": "view",
      "type": "function"
    },
    {
      "inputs": [
        {
          "internalType": "uint256",
          "name": "planOnePct",
          "type": "uint256"
        }
      ],
      "name": "planOneRate",
      "outputs": [],
      "stateMutability": "nonpayable",
      "type": "function"
    },
    {
      "inputs": [],
      "name": "planThreeDays",
      "outputs": [
        {
          "internalType": "uint256",
          "name": "",
          "type": "uint256"
        }
      ],
      "stateMutability": "view",
      "type": "function"
    },
    {
      "inputs": [],
      "name": "planThreeMultiplier",
      "outputs": [
        {
          "internalType": "uint256",
          "name": "",
          "type": "uint256"
        }
      ],
      "stateMutability": "view",
      "type": "function"
    },
    {
      "inputs": [
        {
          "internalType": "uint256",
          "name": "planThreePct",
          "type": "uint256"
        }
      ],
      "name": "planThreeRate",
      "outputs": [],
      "stateMutability": "nonpayable",
      "type": "function"
    },
    {
      "inputs": [],
      "name": "planTwoDays",
      "outputs": [
        {
          "internalType": "uint256",
          "name": "",
          "type": "uint256"
        }
      ],
      "stateMutability": "view",
      "type": "function"
    },
    {
      "inputs": [],
      "name": "planTwoMultiplier",
      "outputs": [
        {
          "internalType": "uint256",
          "name": "",
          "type": "uint256"
        }
      ],
      "stateMutability": "view",
      "type": "function"
    },
    {
      "inputs": [
        {
          "internalType": "uint256",
          "name": "planTwoPct",
          "type": "uint256"
        }
      ],
      "name": "planTwoRate",
      "outputs": [],
      "stateMutability": "nonpayable",
      "type": "function"
    },
    {
      "inputs": [],
      "name": "pool",
      "outputs": [
        {
          "internalType": "uint256",
          "name": "",
          "type": "uint256"
        }
      ],
      "stateMutability": "view",
      "type": "function"
    },
    {
      "inputs": [
        {
          "internalType": "uint256",
          "name": "",
          "type": "uint256"
        }
      ],
      "name": "pools",
      "outputs": [
        {
          "internalType": "uint256",
          "name": "minInvestAmountPool",
          "type": "uint256"
        },
        {
          "internalType": "uint256",
          "name": "maxInvestAmountPool",
          "type": "uint256"
        }
      ],
      "stateMutability": "view",
      "type": "function"
    },
    {
      "inputs": [
        {
          "internalType": "uint256",
          "name": "",
          "type": "uint256"
        }
      ],
      "name": "rankFlag",
      "outputs": [
        {
          "internalType": "bool",
          "name": "",
          "type": "bool"
        }
      ],
      "stateMutability": "view",
      "type": "function"
    },
    {
      "inputs": [
        {
          "internalType": "uint256",
          "name": "",
          "type": "uint256"
        },
        {
          "internalType": "address",
          "name": "",
          "type": "address"
        }
      ],
      "name": "rankMap",
      "outputs": [
        {
          "internalType": "uint256",
          "name": "",
          "type": "uint256"
        }
      ],
      "stateMutability": "view",
      "type": "function"
    },
    {
      "inputs": [],
      "name": "rankPool",
      "outputs": [
        {
          "internalType": "uint256",
          "name": "",
          "type": "uint256"
        }
      ],
      "stateMutability": "view",
      "type": "function"
    },
    {
      "inputs": [],
      "name": "rankTime",
      "outputs": [
        {
          "internalType": "uint256",
          "name": "",
          "type": "uint256"
        }
      ],
      "stateMutability": "view",
      "type": "function"
    },
    {
      "inputs": [
        {
          "internalType": "uint256",
          "name": "typeNum",
          "type": "uint256"
        },
        {
          "internalType": "uint256",
          "name": "amount",
          "type": "uint256"
        }
      ],
      "name": "reStake",
      "outputs": [],
      "stateMutability": "nonpayable",
      "type": "function"
    },
    {
      "inputs": [
        {
          "internalType": "uint256",
          "name": "maxInvAmnt",
          "type": "uint256"
        }
      ],
      "name": "setMaxInvestAmount",
      "outputs": [],
      "stateMutability": "nonpayable",
      "type": "function"
    },
    {
      "inputs": [
        {
          "internalType": "uint256",
          "name": "minInvAmnt",
          "type": "uint256"
        }
      ],
      "name": "setMinInvestAmount",
      "outputs": [],
      "stateMutability": "nonpayable",
      "type": "function"
    },
    {
      "inputs": [
        {
          "internalType": "uint256",
          "name": "increasePct",
          "type": "uint256"
        }
      ],
      "name": "setPercentMultiplier",
      "outputs": [],
      "stateMutability": "nonpayable",
      "type": "function"
    },
    {
      "inputs": [
        {
          "internalType": "uint256",
          "name": "planFourPeriod",
          "type": "uint256"
        }
      ],
      "name": "setPlanFourPeriod",
      "outputs": [],
      "stateMutability": "nonpayable",
      "type": "function"
    },
    {
      "inputs": [
        {
          "internalType": "uint256",
          "name": "planOnePeriod",
          "type": "uint256"
        }
      ],
      "name": "setPlanOnePeriod",
      "outputs": [],
      "stateMutability": "nonpayable",
      "type": "function"
    },
    {
      "inputs": [
        {
          "internalType": "uint256",
          "name": "planThreePeriod",
          "type": "uint256"
        }
      ],
      "name": "setPlanThreePeriod",
      "outputs": [],
      "stateMutability": "nonpayable",
      "type": "function"
    },
    {
      "inputs": [
        {
          "internalType": "uint256",
          "name": "planTwoPeriod",
          "type": "uint256"
        }
      ],
      "name": "setPlanTwoPeriod",
      "outputs": [],
      "stateMutability": "nonpayable",
      "type": "function"
    },
    {
      "inputs": [
        {
          "internalType": "uint256",
          "name": "poolId",
          "type": "uint256"
        },
        {
          "internalType": "uint256",
          "name": "minInvestAmountPool",
          "type": "uint256"
        },
        {
          "internalType": "uint256",
          "name": "maxInvestAmountPool",
          "type": "uint256"
        }
      ],
      "name": "setPoolInvestmentLimits",
      "outputs": [],
      "stateMutability": "nonpayable",
      "type": "function"
    },
    {
      "inputs": [
        {
          "internalType": "address",
          "name": "referrer",
          "type": "address"
        },
        {
          "internalType": "uint256",
          "name": "typeNum",
          "type": "uint256"
        },
        {
          "internalType": "uint256",
          "name": "Amount",
          "type": "uint256"
        }
      ],
      "name": "stake",
      "outputs": [],
      "stateMutability": "payable",
      "type": "function"
    },
    {
      "inputs": [],
      "name": "startTime",
      "outputs": [
        {
          "internalType": "uint256",
          "name": "",
          "type": "uint256"
        }
      ],
      "stateMutability": "view",
      "type": "function"
    },
    {
      "inputs": [],
      "name": "team",
      "outputs": [
        {
          "internalType": "address payable",
          "name": "",
          "type": "address"
        }
      ],
      "stateMutability": "view",
      "type": "function"
    },
    {
      "inputs": [],
      "name": "tokenAddress",
      "outputs": [
        {
          "internalType": "address",
          "name": "",
          "type": "address"
        }
      ],
      "stateMutability": "view",
      "type": "function"
    },
    {
      "inputs": [],
      "name": "total",
      "outputs": [
        {
          "internalType": "uint256",
          "name": "",
          "type": "uint256"
        }
      ],
      "stateMutability": "view",
      "type": "function"
    },
    {
      "inputs": [
        {
          "internalType": "uint256",
          "name": "",
          "type": "uint256"
        }
      ],
      "name": "totalInvestmentByPool",
      "outputs": [
        {
          "internalType": "uint256",
          "name": "",
          "type": "uint256"
        }
      ],
      "stateMutability": "view",
      "type": "function"
    },
    {
      "inputs": [
        {
          "internalType": "uint256",
          "name": "",
          "type": "uint256"
        }
      ],
      "name": "totalInvestorsByTypeNum",
      "outputs": [
        {
          "internalType": "uint256",
          "name": "",
          "type": "uint256"
        }
      ],
      "stateMutability": "view",
      "type": "function"
    },
    {
      "inputs": [
        {
          "internalType": "address",
          "name": "",
          "type": "address"
        }
      ],
      "name": "userMap",
      "outputs": [
        {
          "internalType": "bool",
          "name": "active",
          "type": "bool"
        },
        {
          "internalType": "address",
          "name": "referrer",
          "type": "address"
        },
        {
          "internalType": "uint256",
          "name": "recommendReward",
          "type": "uint256"
        },
        {
          "internalType": "uint256",
          "name": "investment",
          "type": "uint256"
        },
        {
          "internalType": "uint256",
          "name": "totalWithdraw",
          "type": "uint256"
        },
        {
          "internalType": "uint256",
          "name": "totalReward",
          "type": "uint256"
        },
        {
          "internalType": "uint256",
          "name": "checkpoint",
          "type": "uint256"
        },
        {
          "internalType": "uint256",
          "name": "subNum",
          "type": "uint256"
        },
        {
          "internalType": "uint256",
          "name": "subStake",
          "type": "uint256"
        }
      ],
      "stateMutability": "view",
      "type": "function"
    },
    {
      "inputs": [
        {
          "internalType": "uint256",
          "name": "amount",
          "type": "uint256"
        }
      ],
      "name": "withdraw",
      "outputs": [],
      "stateMutability": "nonpayable",
      "type": "function"
    },
    {
      "inputs": [],
      "name": "withdrawContractbalance",
      "outputs": [],
      "stateMutability": "nonpayable",
      "type": "function"
    },
    {
      "inputs": [
        {
          "internalType": "uint256",
          "name": "investmentIndex",
          "type": "uint256"
        }
      ],
      "name": "withdrawPrincipal",
      "outputs": [],
      "stateMutability": "nonpayable",
      "type": "function"
    }
  ],
  "bytecode": "0x608060405233601660006101000a81548173ffffffffffffffffffffffffffffffffffffffff021916908373ffffffffffffffffffffffffffffffffffffffff160217905550620151806017556146506018556200006f6007601754620004b060201b620041c11790919060201c565b6019556012601a556040518060600160405280600360ff168152602001600260ff168152602001600160ff16815250601b906003620000b09291906200054e565b506040518060800160405280602860ff168152602001601e60ff168152602001601460ff168152602001600a60ff168152506021906004620000f4929190620005a5565b503480156200010257600080fd5b50604051620065f1380380620065f1833981810160405260c08110156200012857600080fd5b810190808051906020019092919080519060200190929190805190602001909291908051906020019092919080519060200190929190805190602001909291905050506200017c856200053b60201b60201c565b15620001f0576040517f08c379a000000000000000000000000000000000000000000000000000000000815260040180806020018281038252600b8152602001807f216465764164647265737300000000000000000000000000000000000000000081525060200191505060405180910390fd5b62000201846200053b60201b60201c565b1562000275576040517f08c379a000000000000000000000000000000000000000000000000000000000815260040180806020018281038252600a8152602001807f216164416464726573730000000000000000000000000000000000000000000081525060200191505060405180910390fd5b62000286836200053b60201b60201c565b15620002fa576040517f08c379a000000000000000000000000000000000000000000000000000000000815260040180806020018281038252600c8152602001807f217465616d41646472657373000000000000000000000000000000000000000081525060200191505060405180910390fd5b856000806101000a81548173ffffffffffffffffffffffffffffffffffffffff021916908373ffffffffffffffffffffffffffffffffffffffff16021790555084601360006101000a81548173ffffffffffffffffffffffffffffffffffffffff021916908373ffffffffffffffffffffffffffffffffffffffff16021790555083601460006101000a81548173ffffffffffffffffffffffffffffffffffffffff021916908373ffffffffffffffffffffffffffffffffffffffff16021790555082601560006101000a81548173ffffffffffffffffffffffffffffffffffffffff021916908373ffffffffffffffffffffffffffffffffffffffff160217905550600160256000601560009054906101000a900473ffffffffffffffffffffffffffffffffffffffff1673ffffffffffffffffffffffffffffffffffffffff1673ffffffffffffffffffffffffffffffffffffffff16815260200190815260200160002060000160006101000a81548160ff021916908315150217905550600082141562000488574291505b600081141562000496574290505b81600181905550806007819055505050505050506200061b565b600080831415620004c5576000905062000535565b6000828402905082848281620004d757fe5b041462000530576040517f08c379a0000000000000000000000000000000000000000000000000000000008152600401808060200182810382526021815260200180620065d06021913960400191505060405180910390fd5b809150505b92915050565b600080823b905060008111915050919050565b82805482825590600052602060002090810192821562000592579160200282015b8281111562000591578251829060ff169055916020019190600101906200056f565b5b509050620005a19190620005fc565b5090565b828054828255906000526020600020908101928215620005e9579160200282015b82811115620005e8578251829060ff16905591602001919060010190620005c6565b5b509050620005f89190620005fc565b5090565b5b8082111562000617576000816000905550600101620005fd565b5090565b615fa5806200062b6000396000f3fe6080604052600436106103e45760003560e01c8063841062bd11610208578063cdd35fbe11610118578063ebf7301f116100ab578063f4bc8a131161007a578063f4bc8a131461171c578063f9c23a5b14611757578063fbfab74e14611782578063fc6ced5f146117bd578063fc77aa48146117e8576103e4565b8063ebf7301f14611660578063ee5794811461168b578063f10e1cdf146116b6578063f3c2c3bd146116e1576103e4565b8063d624722d116100e7578063d624722d14611322578063dee120ea1461153e578063df21aa0f146115a5578063eba21fdf14611625576103e4565b8063cdd35fbe1461123e578063cde31948146112a1578063cf59f86a146112cc578063d321fe29146112f7576103e4565b8063a4af85841161019b578063ade7d3911161016a578063ade7d3911461111d578063aef2afc91461116c578063b162d5dc14611197578063b56d3952146111c2578063c64b4d1b14611213576103e4565b8063a4af858414610f5d578063aa28229514610f98578063ab2adc001461109c578063ac4afa38146110c7576103e4565b806391cca3db116101d757806391cca3db14610e75578063928076f114610eb65780639d76ea5814610ef15780639f909e4614610f32576103e4565b8063841062bd14610d8d57806385f2aef214610db85780638d02913a14610df95780638da5cb5b14610e34576103e4565b806342d0d1ca116103035780636a38b6461161029657806378e979251161026557806378e9792514610c795780637f4f987014610ca4578063818d8c0414610d1057806382b2e25714610d4b5780638387570814610d76576103e4565b80636a38b64614610bb357806371b801db14610bf85780637642c32a14610c2357806376bc102514610c4e576103e4565b806359fb49f9116102d257806359fb49f914610a535780635a9b0b8914610acd578063658e28a414610b2257806368860d9f14610b5d576103e4565b806342d0d1ca1461098357806343b500e3146109d25780634fe7edff146109fd578063584c8fc114610a28576103e4565b806334e927d01161037b5780633b7da8891161034a5780633b7da889146108555780633c376d8e146108a45780633e1430af146108df57806342b39a5e14610920576103e4565b806334e927d01461074557806335c34d56146107705780633859577a146107ab5780633b7379e2146107e6576103e4565b80632bcc23f8116103b75780632bcc23f8146105ff5780632ddbd13a146106b45780632e1a7d4d146106df578063344fbb4a1461071a576103e4565b806302bd2ede146103e95780630c51b88f14610551578063113c98fc146105a957806316f0115b146105d4575b600080fd5b3480156103f557600080fd5b506104226004803603602081101561040c57600080fd5b8101908080359060200190929190505050611813565b6040518080602001806020018060200180602001858103855289818151815260200191508051906020019060200280838360005b83811015610471578082015181840152602081019050610456565b50505050905001858103845288818151815260200191508051906020019060200280838360005b838110156104b3578082015181840152602081019050610498565b50505050905001858103835287818151815260200191508051906020019060200280838360005b838110156104f55780820151818401526020810190506104da565b50505050905001858103825286818151815260200191508051906020019060200280838360005b8381101561053757808201518184015260208101905061051c565b505050509050019850505050505050505060405180910390f35b6105a76004803603606081101561056757600080fd5b81019080803573ffffffffffffffffffffffffffffffffffffffff1690602001909291908035906020019092919080359060200190929190505050611ad5565b005b3480156105b557600080fd5b506105be611e1d565b6040518082815260200191505060405180910390f35b3480156105e057600080fd5b506105e9611e23565b6040518082815260200191505060405180910390f35b34801561060b57600080fd5b5061064e6004803603602081101561062257600080fd5b81019080803573ffffffffffffffffffffffffffffffffffffffff169060200190929190505050611e29565b604051808a151581526020018973ffffffffffffffffffffffffffffffffffffffff168152602001888152602001878152602001868152602001858152602001848152602001838152602001828152602001995050505050505050505060405180910390f35b3480156106c057600080fd5b506106c9611ea4565b6040518082815260200191505060405180910390f35b3480156106eb57600080fd5b506107186004803603602081101561070257600080fd5b8101908080359060200190929190505050611eaa565b005b34801561072657600080fd5b5061072f6120e8565b6040518082815260200191505060405180910390f35b34801561075157600080fd5b5061075a61215d565b6040518082815260200191505060405180910390f35b34801561077c57600080fd5b506107a96004803603602081101561079357600080fd5b8101908080359060200190929190505050612193565b005b3480156107b757600080fd5b506107e4600480360360208110156107ce57600080fd5b81019080803590602001909291905050506121f7565b005b3480156107f257600080fd5b5061083f6004803603604081101561080957600080fd5b8101908080359060200190929190803573ffffffffffffffffffffffffffffffffffffffff16906020019092919050505061225b565b6040518082815260200191505060405180910390f35b34801561086157600080fd5b506108a26004803603606081101561087857600080fd5b81019080803590602001909291908035906020019092919080359060200190929190505050612280565b005b3480156108b057600080fd5b506108dd600480360360208110156108c757600080fd5b8101908080359060200190929190505050612328565b005b3480156108eb57600080fd5b506108f461238c565b604051808273ffffffffffffffffffffffffffffffffffffffff16815260200191505060405180910390f35b34801561092c57600080fd5b5061096d6004803603606081101561094357600080fd5b810190808035906020019092919080359060200190929190803590602001909291905050506123b2565b6040518082815260200191505060405180910390f35b34801561098f57600080fd5b506109bc600480360360208110156109a657600080fd5b8101908080359060200190929190505050612435565b6040518082815260200191505060405180910390f35b3480156109de57600080fd5b506109e761244d565b6040518082815260200191505060405180910390f35b348015610a0957600080fd5b50610a126124a5565b6040518082815260200191505060405180910390f35b348015610a3457600080fd5b50610a3d6124ab565b6040518082815260200191505060405180910390f35b348015610a5f57600080fd5b50610a8c60048036036020811015610a7657600080fd5b81019080803590602001909291905050506124b1565b604051808573ffffffffffffffffffffffffffffffffffffffff16815260200184815260200183815260200182815260200194505050505060405180910390f35b348015610ad957600080fd5b50610ae2612511565b6040518088815260200187815260200186815260200185815260200184815260200183815260200182815260200197505050505050505060405180910390f35b348015610b2e57600080fd5b50610b5b60048036036020811015610b4557600080fd5b8101908080359060200190929190505050612548565b005b348015610b6957600080fd5b50610b9660048036036020811015610b8057600080fd5b81019080803590602001909291905050506127c0565b604051808381526020018281526020019250505060405180910390f35b348015610bbf57600080fd5b50610bf660048036036040811015610bd657600080fd5b8101908080359060200190929190803590602001909291905050506127fa565b005b348015610c0457600080fd5b50610c0d6128e0565b6040518082815260200191505060405180910390f35b348015610c2f57600080fd5b50610c386128e6565b6040518082815260200191505060405180910390f35b348015610c5a57600080fd5b50610c636128ec565b6040518082815260200191505060405180910390f35b348015610c8557600080fd5b50610c8e6128f2565b6040518082815260200191505060405180910390f35b348015610cb057600080fd5b50610cb96128f8565b6040518080602001828103825283818151815260200191508051906020019060200280838360005b83811015610cfc578082015181840152602081019050610ce1565b505050509050019250505060405180910390f35b348015610d1c57600080fd5b50610d4960048036036020811015610d3357600080fd5b8101908080359060200190929190505050612a90565b005b348015610d5757600080fd5b50610d60612af4565b6040518082815260200191505060405180910390f35b348015610d8257600080fd5b50610d8b612bc2565b005b348015610d9957600080fd5b50610da2612d3a565b6040518082815260200191505060405180910390f35b348015610dc457600080fd5b50610dcd612e2f565b604051808273ffffffffffffffffffffffffffffffffffffffff16815260200191505060405180910390f35b348015610e0557600080fd5b50610e3260048036036020811015610e1c57600080fd5b8101908080359060200190929190505050612e55565b005b348015610e4057600080fd5b50610e49612ebe565b604051808273ffffffffffffffffffffffffffffffffffffffff16815260200191505060405180910390f35b348015610e8157600080fd5b50610e8a612ee4565b604051808273ffffffffffffffffffffffffffffffffffffffff16815260200191505060405180910390f35b348015610ec257600080fd5b50610eef60048036036020811015610ed957600080fd5b8101908080359060200190929190505050612f0a565b005b348015610efd57600080fd5b50610f06612f6e565b604051808273ffffffffffffffffffffffffffffffffffffffff16815260200191505060405180910390f35b348015610f3e57600080fd5b50610f47612f92565b6040518082815260200191505060405180910390f35b348015610f6957600080fd5b50610f9660048036036020811015610f8057600080fd5b8101908080359060200190929190505050612fc8565b005b348015610fa457600080fd5b50610fd160048036036020811015610fbb57600080fd5b810190808035906020019092919050505061302c565b6040518085600460200280838360005b83811015610ffc578082015181840152602081019050610fe1565b5050505090500184600460200280838360005b8381101561102a57808201518184015260208101905061100f565b5050505090500183600460200280838360005b8381101561105857808201518184015260208101905061103d565b5050505090500182600460200280838360005b8381101561108657808201518184015260208101905061106b565b5050505090500194505050505060405180910390f35b3480156110a857600080fd5b506110b1613212565b6040518082815260200191505060405180910390f35b3480156110d357600080fd5b50611100600480360360208110156110ea57600080fd5b8101908080359060200190929190505050613218565b604051808381526020018281526020019250505060405180910390f35b34801561112957600080fd5b506111566004803603602081101561114057600080fd5b810190808035906020019092919050505061323c565b6040518082815260200191505060405180910390f35b34801561117857600080fd5b50611181613254565b6040518082815260200191505060405180910390f35b3480156111a357600080fd5b506111ac61325a565b6040518082815260200191505060405180910390f35b3480156111ce57600080fd5b506111fb600480360360208110156111e557600080fd5b8101908080359060200190929190505050613260565b60405180821515815260200191505060405180910390f35b34801561121f57600080fd5b50611228613280565b6040518082815260200191505060405180910390f35b34801561124a57600080fd5b5061128b6004803603606081101561126157600080fd5b81019080803590602001909291908035906020019092919080359060200190929190505050613286565b6040518082815260200191505060405180910390f35b3480156112ad57600080fd5b506112b661338a565b6040518082815260200191505060405180910390f35b3480156112d857600080fd5b506112e1613390565b6040518082815260200191505060405180910390f35b34801561130357600080fd5b5061130c613396565b6040518082815260200191505060405180910390f35b34801561132e57600080fd5b5061133761385d565b604051808060200180602001806020018060200180602001806020018060200188810388528f818151815260200191508051906020019060200280838360005b83811015611392578082015181840152602081019050611377565b5050505090500188810387528e818151815260200191508051906020019060200280838360005b838110156113d45780820151818401526020810190506113b9565b5050505090500188810386528d818151815260200191508051906020019060200280838360005b838110156114165780820151818401526020810190506113fb565b5050505090500188810385528c818151815260200191508051906020019060200280838360005b8381101561145857808201518184015260208101905061143d565b5050505090500188810384528b818151815260200191508051906020019060200280838360005b8381101561149a57808201518184015260208101905061147f565b5050505090500188810383528a818151815260200191508051906020019060200280838360005b838110156114dc5780820151818401526020810190506114c1565b50505050905001888103825289818151815260200191508051906020019060200280838360005b8381101561151e578082015181840152602081019050611503565b505050509050019e50505050505050505050505050505060405180910390f35b34801561154a57600080fd5b506115816004803603604081101561156157600080fd5b810190808035906020019092919080359060200190929190505050613ce6565b60405180848152602001838152602001828152602001935050505060405180910390f35b3480156115b157600080fd5b506115de600480360360208110156115c857600080fd5b8101908080359060200190929190505050613f35565b604051808981526020018881526020018781526020018681526020018581526020018481526020018381526020018281526020019850505050505050505060405180910390f35b34801561163157600080fd5b5061165e6004803603602081101561164857600080fd5b8101908080359060200190929190505050613fd8565b005b34801561166c57600080fd5b50611675614041565b6040518082815260200191505060405180910390f35b34801561169757600080fd5b506116a0614047565b6040518082815260200191505060405180910390f35b3480156116c257600080fd5b506116cb61404d565b6040518082815260200191505060405180910390f35b3480156116ed57600080fd5b5061171a6004803603602081101561170457600080fd5b8101908080359060200190929190505050614053565b005b34801561172857600080fd5b506117556004803603602081101561173f57600080fd5b81019080803590602001909291905050506140b7565b005b34801561176357600080fd5b5061176c61411b565b6040518082815260200191505060405180910390f35b34801561178e57600080fd5b506117bb600480360360208110156117a557600080fd5b8101908080359060200190929190505050614121565b005b3480156117c957600080fd5b506117d2614185565b6040518082815260200191505060405180910390f35b3480156117f457600080fd5b506117fd61418b565b6040518082815260200191505060405180910390f35b60608060608060008061183187601f5461424790919063ffffffff16565b91505061184981601f5461426f90919063ffffffff16565b96508667ffffffffffffffff8111801561186257600080fd5b506040519080825280602002602001820160405280156118915781602001602082028036833780820191505090505b5095508667ffffffffffffffff811180156118ab57600080fd5b506040519080825280602002602001820160405280156118da5781602001602082028036833780820191505090505b5094508667ffffffffffffffff811180156118f457600080fd5b506040519080825280602002602001820160405280156119235781602001602082028036833780820191505090505b5093508667ffffffffffffffff8111801561193d57600080fd5b5060405190808252806020026020018201604052801561196c5781602001602082028036833780820191505090505b5092506000601f5490505b81811115611acb57601e600182038154811061198f57fe5b906000526020600020906004020160000160009054906101000a900473ffffffffffffffffffffffffffffffffffffffff168784815181106119cd57fe5b602002602001019073ffffffffffffffffffffffffffffffffffffffff16908173ffffffffffffffffffffffffffffffffffffffff1681525050601e6001820381548110611a1757fe5b906000526020600020906004020160010154868481518110611a3557fe5b602002602001018181525050601e6001820381548110611a5157fe5b906000526020600020906004020160030154848481518110611a6f57fe5b602002602001018181525050601e6001820381548110611a8b57fe5b906000526020600020906004020160020154858481518110611aa957fe5b6020026020010181815250508280600101935050808060019003915050611977565b5050509193509193565b600154421015611b4d576040517f08c379a00000000000000000000000000000000000000000000000000000000081526004018080602001828103825260098152602001807f4e6f74207374617274000000000000000000000000000000000000000000000081525060200191505060405180910390fd5b620f424060095481611b5b57fe5b04811015611bb4576040517f08c379a000000000000000000000000000000000000000000000000000000000815260040180806020018281038252602a815260200180615c96602a913960400191505060405180910390fd5b620f424060085481611bc257fe5b04811115611c1b576040517f08c379a000000000000000000000000000000000000000000000000000000000815260040180806020018281038252602a815260200180615eff602a913960400191505060405180910390fd5b620f4240601d60008481526020019081526020016000206001015481611c3d57fe5b04611c6482601c6000868152602001908152602001600020546142f290919063ffffffff16565b1115611cd8576040517f08c379a000000000000000000000000000000000000000000000000000000000815260040180806020018281038252601d8152602001807f4578636565647320706f6f6c20696e766573746d656e74206c696d697400000081525060200191505060405180910390fd5b611ce333308361437a565b611d55576040517f08c379a00000000000000000000000000000000000000000000000000000000081526004018080602001828103825260158152602001807f546f6b656e207472616e73666572206661696c6564000000000000000000000081525060200191505060405180910390fd5b611d7b81601c6000858152602001908152602001600020546142f290919063ffffffff16565b601c6000848152602001908152602001600020819055506026600083815260200190815260200160002060008154809291906001019190505550611dbe83614474565b611dca8282600061488e565b3373ffffffffffffffffffffffffffffffffffffffff167febedb8b3c678666e7f36970bc8f57abf6d8fa2e828c0da91ea5b75bf68ed101a826040518082815260200191505060405180910390a2505050565b600e5481565b60035481565b60256020528060005260406000206000915090508060000160009054906101000a900460ff16908060000160019054906101000a900473ffffffffffffffffffffffffffffffffffffffff16908060010154908060020154908060030154908060040154908060050154908060060154908060070154905089565b60025481565b611eb3816152c6565b90506000600654118015611ec8575042600654105b15611f4e57611ed7338261548b565b611f49576040517f08c379a00000000000000000000000000000000000000000000000000000000081526004018080602001828103825260158152602001807f546f6b656e207472616e73666572206661696c6564000000000000000000000081525060200191505060405180910390fd5b612097565b611f89611f786064611f6a6014856141c190919063ffffffff16565b61556690919063ffffffff16565b6005546142f290919063ffffffff16565b600581905550611fbf33611fba6064611fac6050866141c190919063ffffffff16565b61556690919063ffffffff16565b61548b565b612031576040517f08c379a00000000000000000000000000000000000000000000000000000000081526004018080602001828103825260158152602001807f546f6b656e207472616e73666572206661696c6564000000000000000000000081525060200191505060405180910390fd5b6120966040518060400160405280601981526020017f7472616e7366657220616d6f756e742d2d2d2d2d2d2d2d2d2d0000000000000081525061209160646120836050866141c190919063ffffffff16565b61556690919063ffffffff16565b6155ef565b5b3373ffffffffffffffffffffffffffffffffffffffff167f884edad9ce6fa2440d8a54cc123490eb96d2768479d49ff9c7366125a9424364826040518082815260200191505060405180910390a250565b6000806121006001544261424790919063ffffffff16565b9150506121186018548261556690919063ffffffff16565b91506121596040518060400160405280601181526020017f706c616e4f6e655063742d2d2d2d2d2d2d000000000000000000000000000000815250836155ef565b5090565b6000806121756001544261424790919063ffffffff16565b91505061218d6018548261556690919063ffffffff16565b91505090565b601660009054906101000a900473ffffffffffffffffffffffffffffffffffffffff1673ffffffffffffffffffffffffffffffffffffffff163373ffffffffffffffffffffffffffffffffffffffff16146121ed57600080fd5b80600b8190555050565b601660009054906101000a900473ffffffffffffffffffffffffffffffffffffffff1673ffffffffffffffffffffffffffffffffffffffff163373ffffffffffffffffffffffffffffffffffffffff161461225157600080fd5b80600e8190555050565b6023602052816000526040600020602052806000526040600020600091509150505481565b601660009054906101000a900473ffffffffffffffffffffffffffffffffffffffff1673ffffffffffffffffffffffffffffffffffffffff163373ffffffffffffffffffffffffffffffffffffffff16146122da57600080fd5b6040518060400160405280620f424084028152602001620f42408302815250601d60008581526020019081526020016000206000820151816000015560208201518160010155905050505050565b601660009054906101000a900473ffffffffffffffffffffffffffffffffffffffff1673ffffffffffffffffffffffffffffffffffffffff163373ffffffffffffffffffffffffffffffffffffffff161461238257600080fd5b80600f8190555050565b601460009054906101000a900473ffffffffffffffffffffffffffffffffffffffff1681565b60006123ed6103e86123df846123d187896141c190919063ffffffff16565b6141c190919063ffffffff16565b61556690919063ffffffff16565b905061242e6040518060400160405280601e81526020017f726577616420696e2073696d706c6520696e7465726573742d2d2d2d2d2d0000815250826155ef565b9392505050565b60266020528060005260406000206000915090505481565b6000806124656007544261424790919063ffffffff16565b91505061247d6017548261556690919063ffffffff16565b91506124a1604051806060016040528060268152602001615c4560269139836155ef565b5090565b60065481565b60085481565b601e81815481106124c157600080fd5b90600052602060002090600402016000915090508060000160009054906101000a900473ffffffffffffffffffffffffffffffffffffffff16908060010154908060020154908060030154905084565b6000806000806000806000600154600254600354600454600554600654600754965096509650965096509650965090919293949596565b6000602560003373ffffffffffffffffffffffffffffffffffffffff1673ffffffffffffffffffffffffffffffffffffffff168152602001908152602001600020905080600901805490508210612607576040517f08c379a00000000000000000000000000000000000000000000000000000000081526004018080602001828103825260188152602001807f496e76616c696420696e766573746d656e7420696e646578000000000000000081525060200191505060405180910390fd5b600081600901838154811061261857fe5b906000526020600020906008020190508060010154421015612685576040517f08c379a000000000000000000000000000000000000000000000000000000000815260040180806020018281038252603b815260200180615e72603b913960400191505060405180910390fd5b600081600201549050612698338261548b565b61270a576040517f08c379a00000000000000000000000000000000000000000000000000000000081526004018080602001828103825260158152602001807f546f6b656e207472616e73666572206661696c6564000000000000000000000081525060200191505060405180910390fd5b61272181846002015461426f90919063ffffffff16565b83600201819055506127408184600301546142f290919063ffffffff16565b83600301819055504283600501819055506127668160025461426f90919063ffffffff16565b6002819055503373ffffffffffffffffffffffffffffffffffffffff167fee1b5abe14e43ee34008f06f51efca5382c42fb48b0a040fd7a5f5c630cb5580826040518082815260200191505060405180910390a250505050565b600080601d600084815260200190815260200160002060000154601d60008581526020019081526020016000206001015491509150915091565b612803816152c6565b905061281033308361437a565b612882576040517f08c379a00000000000000000000000000000000000000000000000000000000081526004018080602001828103825260158152602001807f546f6b656e207472616e73666572206661696c6564000000000000000000000081525060200191505060405180910390fd5b61288e8282600161488e565b3373ffffffffffffffffffffffffffffffffffffffff167fb4f3774a35ef894e2fa407041b6832aa9df8f4aae5449664eaa08febb13f8c2d826040518082815260200191505060405180910390a25050565b60105481565b60205481565b60075481565b60015481565b60606000602560003373ffffffffffffffffffffffffffffffffffffffff1673ffffffffffffffffffffffffffffffffffffffff168152602001908152602001600020600901805480602002602001604051908101604052809291908181526020016000905b828210156129f2578382906000526020600020906008020160405180610100016040529081600082015481526020016001820154815260200160028201548152602001600382015481526020016004820154815260200160058201548152602001600682015481526020016007820160009054906101000a900460ff1615151515815250508152602001906001019061295e565b505050509050805167ffffffffffffffff81118015612a1057600080fd5b50604051908082528060200260200182016040528015612a3f5781602001602082028036833780820191505090505b50915060005b8151811015612a8b57818181518110612a5a57fe5b602002602001015160800151838281518110612a7257fe5b6020026020010181815250508080600101915050612a45565b505090565b601660009054906101000a900473ffffffffffffffffffffffffffffffffffffffff1673ffffffffffffffffffffffffffffffffffffffff163373ffffffffffffffffffffffffffffffffffffffff1614612aea57600080fd5b8060118190555050565b60008060008054906101000a900473ffffffffffffffffffffffffffffffffffffffff1690508073ffffffffffffffffffffffffffffffffffffffff166370a08231306040518263ffffffff1660e01b8152600401808273ffffffffffffffffffffffffffffffffffffffff16815260200191505060206040518083038186803b158015612b8157600080fd5b505afa158015612b95573d6000803e3d6000fd5b505050506040513d6020811015612bab57600080fd5b810190808051906020019092919050505091505090565b601660009054906101000a900473ffffffffffffffffffffffffffffffffffffffff1673ffffffffffffffffffffffffffffffffffffffff163373ffffffffffffffffffffffffffffffffffffffff1614612c1c57600080fd5b612c4f601660009054906101000a900473ffffffffffffffffffffffffffffffffffffffff16612c4a612af4565b61548b565b612cc1576040517f08c379a00000000000000000000000000000000000000000000000000000000081526004018080602001828103825260158152602001807f546f6b656e207472616e73666572206661696c6564000000000000000000000081525060200191505060405180910390fd5b601660009054906101000a900473ffffffffffffffffffffffffffffffffffffffff1673ffffffffffffffffffffffffffffffffffffffff167f884edad9ce6fa2440d8a54cc123490eb96d2768479d49ff9c7366125a9424364612d23612af4565b6040518082815260200191505060405180910390a2565b600080612d526001544261424790919063ffffffff16565b915050612d946040518060400160405280600881526020017f74696d653d3d3d3d000000000000000000000000000000000000000000000000815250826155ef565b612dd56040518060400160405280601281526020017f696e6372656173652074696d652d2d2d2d2d00000000000000000000000000008152506018546155ef565b612dea6018548261556690919063ffffffff16565b9150612e2b6040518060400160405280601181526020017f696e637265617365207063743d3d3d3d3d000000000000000000000000000000815250836155ef565b5090565b601560009054906101000a900473ffffffffffffffffffffffffffffffffffffffff1681565b601660009054906101000a900473ffffffffffffffffffffffffffffffffffffffff1673ffffffffffffffffffffffffffffffffffffffff163373ffffffffffffffffffffffffffffffffffffffff1614612eaf57600080fd5b620f4240810260098190555050565b601660009054906101000a900473ffffffffffffffffffffffffffffffffffffffff1681565b601360009054906101000a900473ffffffffffffffffffffffffffffffffffffffff1681565b601660009054906101000a900473ffffffffffffffffffffffffffffffffffffffff1673ffffffffffffffffffffffffffffffffffffffff163373ffffffffffffffffffffffffffffffffffffffff1614612f6457600080fd5b80600c8190555050565b60008054906101000a900473ffffffffffffffffffffffffffffffffffffffff1681565b600080612faa6001544261424790919063ffffffff16565b915050612fc26018548261556690919063ffffffff16565b91505090565b601660009054906101000a900473ffffffffffffffffffffffffffffffffffffffff1673ffffffffffffffffffffffffffffffffffffffff163373ffffffffffffffffffffffffffffffffffffffff161461302257600080fd5b8060108190555050565b613034615b8c565b61303c615bae565b613044615bae565b61304c615bae565b600060226000878152602001908152602001600020600480602002604051908101604052809291906000905b82821015613114578382600402016040518060800160405290816000820160009054906101000a900473ffffffffffffffffffffffffffffffffffffffff1673ffffffffffffffffffffffffffffffffffffffff1673ffffffffffffffffffffffffffffffffffffffff168152602001600182015481526020016002820154815260200160038201548152505081526020019060010190613078565b50505050905060005b60048110156132095781816004811061313257fe5b60200201516000015186826004811061314757fe5b602002019073ffffffffffffffffffffffffffffffffffffffff16908173ffffffffffffffffffffffffffffffffffffffff168152505081816004811061318a57fe5b60200201516020015185826004811061319f57fe5b6020020181815250508181600481106131b457fe5b6020020151604001518482600481106131c957fe5b6020020181815250508181600481106131de57fe5b6020020151606001518382600481106131f357fe5b602002018181525050808060010191505061311d565b50509193509193565b60055481565b601d6020528060005260406000206000915090508060000154908060010154905082565b601c6020528060005260406000206000915090505481565b60045481565b60095481565b60246020528060005260406000206000915054906101000a900460ff1681565b60115481565b60008390506132ad604051806060016040528060268152602001615f2960269139856155ef565b60005b601281101561334b5780831115613301576132fa826132ec6103e86132de88876141c190919063ffffffff16565b61556690919063ffffffff16565b6142f290919063ffffffff16565b915061333e565b61333b8261332d6103e861331f6000876141c190919063ffffffff16565b61556690919063ffffffff16565b6142f290919063ffffffff16565b91505b80806001019150506132b0565b5061335f848261426f90919063ffffffff16565b9050613383604051806060016040528060308152602001615e4260309139826155ef565b9392505050565b600f5481565b601f5481565b600080602560003373ffffffffffffffffffffffffffffffffffffffff1673ffffffffffffffffffffffffffffffffffffffff168152602001908152602001600020604051806101600160405290816000820160009054906101000a900460ff161515151581526020016000820160019054906101000a900473ffffffffffffffffffffffffffffffffffffffff1673ffffffffffffffffffffffffffffffffffffffff1673ffffffffffffffffffffffffffffffffffffffff168152602001600182015481526020016002820154815260200160038201548152602001600482015481526020016005820154815260200160068201548152602001600782015481526020016008820180548060200260200160405190810160405280929190818152602001828054801561352057602002820191906000526020600020905b8160009054906101000a900473ffffffffffffffffffffffffffffffffffffffff1673ffffffffffffffffffffffffffffffffffffffff16815260200190600101908083116134d6575b5050505050815260200160098201805480602002602001604051908101604052809291908181526020016000905b828210156135e2578382906000526020600020906008020160405180610100016040529081600082015481526020016001820154815260200160028201548152602001600382015481526020016004820154815260200160058201548152602001600682015481526020016007820160009054906101000a900460ff1615151515815250508152602001906001019061354e565b505050508152505090508060a0015191506135fb615bd0565b60005b8261014001515181101561385757826101400151818151811061361d57fe5b602002602001015191506136666040518060400160405280601681526020017f6920696e20676574616d6f756e742d2d2d2d2d2d2d2d00000000000000000000815250826155ef565b81602001518360c00151111561367b5761384a565b60028260c0015111156136b75781602001514210156136995761384a565b6136b08260600151856142f290919063ffffffff16565b9350613849565b60006136e86136d560175485608001516141c190919063ffffffff16565b846060015161556690919063ffffffff16565b905060006137078560c0015185600001516156f690919063ffffffff16565b9050600061372242866020015161571090919063ffffffff16565b90506137636040518060400160405280601781526020017f7261746520696e20676574616d6f756e742d2d2d2d2d2d000000000000000000815250846155ef565b6137a26040518060400160405280601881526020017f737461727420696e20676574616d6f756e742d2d2d2d2d2d0000000000000000815250836155ef565b6137e16040518060400160405280601681526020017f656e6420696e20676574616d6f756e742d2d2d2d2d2d00000000000000000000815250826155ef565b808210156138455761382061381184613803858561426f90919063ffffffff16565b6141c190919063ffffffff16565b886142f290919063ffffffff16565b9650613844604051806060016040528060258152602001615d3560259139886155ef565b5b5050505b5b80806001019150506135fe565b50505090565b60608060608060608060606000602560003373ffffffffffffffffffffffffffffffffffffffff1673ffffffffffffffffffffffffffffffffffffffff168152602001908152602001600020600901805480602002602001604051908101604052809291908181526020016000905b82821015613960578382906000526020600020906008020160405180610100016040529081600082015481526020016001820154815260200160028201548152602001600382015481526020016004820154815260200160058201548152602001600682015481526020016007820160009054906101000a900460ff161515151581525050815260200190600101906138cc565b505050509050805167ffffffffffffffff8111801561397e57600080fd5b506040519080825280602002602001820160405280156139ad5781602001602082028036833780820191505090505b509750805167ffffffffffffffff811180156139c857600080fd5b506040519080825280602002602001820160405280156139f75781602001602082028036833780820191505090505b509650805167ffffffffffffffff81118015613a1257600080fd5b50604051908082528060200260200182016040528015613a415781602001602082028036833780820191505090505b509550805167ffffffffffffffff81118015613a5c57600080fd5b50604051908082528060200260200182016040528015613a8b5781602001602082028036833780820191505090505b509450805167ffffffffffffffff81118015613aa657600080fd5b50604051908082528060200260200182016040528015613ad55781602001602082028036833780820191505090505b509350805167ffffffffffffffff81118015613af057600080fd5b50604051908082528060200260200182016040528015613b1f5781602001602082028036833780820191505090505b509250805167ffffffffffffffff81118015613b3a57600080fd5b50604051908082528060200260200182016040528015613b695781602001602082028036833780820191505090505b50915060005b8151811015613cdb57818181518110613b8457fe5b602002602001015160200151898281518110613b9c57fe5b602002602001018181525050818181518110613bb457fe5b602002602001015160000151888281518110613bcc57fe5b602002602001018181525050818181518110613be457fe5b602002602001015160400151878281518110613bfc57fe5b602002602001018181525050818181518110613c1457fe5b602002602001015160600151868281518110613c2c57fe5b602002602001018181525050818181518110613c4457fe5b602002602001015160a00151858281518110613c5c57fe5b602002602001018181525050818181518110613c7457fe5b602002602001015160c00151848281518110613c8c57fe5b602002602001018181525050818181518110613ca457fe5b602002602001015160e00151838281518110613cbc57fe5b6020026020010190151590811515815250508080600101915050613b6f565b505090919293949596565b60008060006001851415613d7657600b549250613d1b604051806060016040528060278152602001615d0e60279139846155ef565b600f549150613d42604051806060016040528060278152602001615ce760279139836155ef565b613d4d848385613286565b9050613d716040518060600160405280602b8152602001615c1a602b9139826155ef565b613f2e565b6002851415613e0157600c549250613da6604051806060016040528060278152602001615d5a60279139846155ef565b6010549150613dcd604051806060016040528060278152602001615e1b60279139836155ef565b613dd8848385613286565b9050613dfc6040518060600160405280602b8152602001615c6b602b9139826155ef565b613f2d565b6003851415613e8c57600d549250613e31604051806060016040528060278152602001615cc060279139846155ef565b6011549150613e58604051806060016040528060278152602001615d8160279139836155ef565b613e638483856123b2565b9050613e876040518060600160405280602b8152602001615ed4602b9139826155ef565b613f2c565b6004851415613f2b57600e549250613ebc604051806060016040528060278152602001615da860279139846155ef565b613ed7600a613ec9615729565b6141c190919063ffffffff16565b9150613efb604051806060016040528060278152602001615ead60279139836155ef565b613f068483856123b2565b9050613f2a6040518060600160405280602b8152602001615df0602b9139826155ef565b5b5b5b5b9250925092565b60008060008060008060008060008060018b1415613f5c57600b549150600f549050613f80565b60028b1415613f7457600c5491506010549050613f7f565b600d54915060115490505b5b600154601c60008d815260200190815260200160002054602660008e815260200190815260200160002054613fb3612af4565b6009546008548787995099509950995099509950995099505050919395975091939597565b601660009054906101000a900473ffffffffffffffffffffffffffffffffffffffff1673ffffffffffffffffffffffffffffffffffffffff163373ffffffffffffffffffffffffffffffffffffffff161461403257600080fd5b620f4240810260088190555050565b60125481565b600c5481565b600d5481565b601660009054906101000a900473ffffffffffffffffffffffffffffffffffffffff1673ffffffffffffffffffffffffffffffffffffffff163373ffffffffffffffffffffffffffffffffffffffff16146140ad57600080fd5b80600a8190555050565b601660009054906101000a900473ffffffffffffffffffffffffffffffffffffffff1673ffffffffffffffffffffffffffffffffffffffff163373ffffffffffffffffffffffffffffffffffffffff161461411157600080fd5b80600d8190555050565b600a5481565b601660009054906101000a900473ffffffffffffffffffffffffffffffffffffffff1673ffffffffffffffffffffffffffffffffffffffff163373ffffffffffffffffffffffffffffffffffffffff161461417b57600080fd5b8060128190555050565b600b5481565b6000806141a36001544261424790919063ffffffff16565b9150506141bb6018548261556690919063ffffffff16565b91505090565b6000808314156141d45760009050614241565b60008284029050828482816141e557fe5b041461423c576040517f08c379a0000000000000000000000000000000000000000000000000000000008152600401808060200182810382526021815260200180615dcf6021913960400191505060405180910390fd5b809150505b92915050565b6000808383111561425e5760008091509150614268565b6001838503915091505b9250929050565b6000828211156142e7576040517f08c379a000000000000000000000000000000000000000000000000000000000815260040180806020018281038252601e8152602001807f536166654d6174683a207375627472616374696f6e206f766572666c6f77000081525060200191505060405180910390fd5b818303905092915050565b600080828401905083811015614370576040517f08c379a000000000000000000000000000000000000000000000000000000000815260040180806020018281038252601b8152602001807f536166654d6174683a206164646974696f6e206f766572666c6f77000000000081525060200191505060405180910390fd5b8091505092915050565b60008060008054906101000a900473ffffffffffffffffffffffffffffffffffffffff1690508073ffffffffffffffffffffffffffffffffffffffff166323b872dd8686866040518463ffffffff1660e01b8152600401808473ffffffffffffffffffffffffffffffffffffffff1681526020018373ffffffffffffffffffffffffffffffffffffffff1681526020018281526020019350505050602060405180830381600087803b15801561442f57600080fd5b505af1158015614443573d6000803e3d6000fd5b505050506040513d602081101561445957600080fd5b81019080805190602001909291905050509150509392505050565b614495604051806060016040528060218152602001615f4f60219139615782565b6144d46040518060400160405280601281526020017f72656665727265722d2d2d2d2d2d2d2d2d2d000000000000000000000000000081525082615880565b602560003373ffffffffffffffffffffffffffffffffffffffff1673ffffffffffffffffffffffffffffffffffffffff16815260200190815260200160002060000160009054906101000a900460ff161561452e5761488b565b6001602560003373ffffffffffffffffffffffffffffffffffffffff1673ffffffffffffffffffffffffffffffffffffffff16815260200190815260200160002060000160006101000a81548160ff0219169083151502179055503373ffffffffffffffffffffffffffffffffffffffff168173ffffffffffffffffffffffffffffffffffffffff1614806146105750602560008273ffffffffffffffffffffffffffffffffffffffff1673ffffffffffffffffffffffffffffffffffffffff16815260200190815260200160002060000160009054906101000a900460ff16155b1561463b57601560009054906101000a900473ffffffffffffffffffffffffffffffffffffffff1690505b80602560003373ffffffffffffffffffffffffffffffffffffffff1673ffffffffffffffffffffffffffffffffffffffff16815260200190815260200160002060000160016101000a81548173ffffffffffffffffffffffffffffffffffffffff021916908373ffffffffffffffffffffffffffffffffffffffff160217905550602560008273ffffffffffffffffffffffffffffffffffffffff1673ffffffffffffffffffffffffffffffffffffffff168152602001908152602001600020600801339080600181540180825580915050600190039060005260206000200160009091909190916101000a81548173ffffffffffffffffffffffffffffffffffffffff021916908373ffffffffffffffffffffffffffffffffffffffff16021790555060005b600381101561488957602560008373ffffffffffffffffffffffffffffffffffffffff1673ffffffffffffffffffffffffffffffffffffffff16815260200190815260200160002060060160008154809291906001019190505550602560008373ffffffffffffffffffffffffffffffffffffffff1673ffffffffffffffffffffffffffffffffffffffff16815260200190815260200160002060000160019054906101000a900473ffffffffffffffffffffffffffffffffffffffff169150602560008373ffffffffffffffffffffffffffffffffffffffff1673ffffffffffffffffffffffffffffffffffffffff16815260200190815260200160002060000160009054906101000a900460ff1661487c575061488b565b8080600101915050614762565b505b50565b6000602560003373ffffffffffffffffffffffffffffffffffffffff1673ffffffffffffffffffffffffffffffffffffffff1681526020019081526020016000209050600083905082156149065761490360646148f56066876141c190919063ffffffff16565b61556690919063ffffffff16565b90505b60008060006149158885613ce6565b925092509250600061494442614936866017546141c190919063ffffffff16565b6142f290919063ffffffff16565b90506149856040518060400160405280601a81526020017f7261746520616464496e766573746d656e742d2d2d2d2d2d2d2d000000000000815250846155ef565b60008411156152bb576149a56019546001546142f290919063ffffffff16565b421115614a33576149e76149d660646149c860538c6141c190919063ffffffff16565b61556690919063ffffffff16565b6003546142f290919063ffffffff16565b600381905550614a28614a176064614a0960038c6141c190919063ffffffff16565b61556690919063ffffffff16565b6004546142f290919063ffffffff16565b600481905550614b38565b614a6e614a5d6064614a4f60548c6141c190919063ffffffff16565b61556690919063ffffffff16565b6003546142f290919063ffffffff16565b600381905550614aaf614a9e6064614a9060028c6141c190919063ffffffff16565b61556690919063ffffffff16565b6004546142f290919063ffffffff16565b600481905550614af66040518060400160405280600e81526020017f656c736520706f6f6c2d2d2d2d2d0000000000000000000000000000000000008152506003546155ef565b614b376040518060400160405280601581526020017f656c73652072616e6b20706f6f6c2d2d2d2d2d2d2d00000000000000000000008152506004546155ef565b5b614b4d886002546142f290919063ffffffff16565b600281905550614b946040518060400160405280600981526020017f746f74616c2d2d2d2d00000000000000000000000000000000000000000000008152506002546155ef565b614bab8887600201546142f290919063ffffffff16565b866002018190555060008660000160019054906101000a900473ffffffffffffffffffffffffffffffffffffffff1690506000614be661244d565b9050614c276040518060400160405280600f81526020017f72616e6b20696e6465782d2d2d2d2d0000000000000000000000000000000000815250826155ef565b60005b60038110156150e957602560008473ffffffffffffffffffffffffffffffffffffffff1673ffffffffffffffffffffffffffffffffffffffff16815260200190815260200160002060000160009054906101000a900460ff16614c8c576150e9565b614ccb6040518060400160405280601581526020017f696e6465782061667465723d3d3d3d3d3d3d3d3d3d0000000000000000000000815250826155ef565b6000614d0a6064614cfc601b8581548110614ce257fe5b90600052602060002001548f6141c190919063ffffffff16565b61556690919063ffffffff16565b9050614d4b6040518060400160405280601981526020017f72657761726420696e7369646520696e766573743d3d3d3d3d00000000000000815250826155ef565b614da081602560008773ffffffffffffffffffffffffffffffffffffffff1673ffffffffffffffffffffffffffffffffffffffff168152602001908152602001600020600101546142f290919063ffffffff16565b602560008673ffffffffffffffffffffffffffffffffffffffff1673ffffffffffffffffffffffffffffffffffffffff16815260200190815260200160002060010181905550614e3b81602560008773ffffffffffffffffffffffffffffffffffffffff1673ffffffffffffffffffffffffffffffffffffffff168152602001908152602001600020600401546142f290919063ffffffff16565b602560008673ffffffffffffffffffffffffffffffffffffffff1673ffffffffffffffffffffffffffffffffffffffff16815260200190815260200160002060040181905550614ed68c602560008773ffffffffffffffffffffffffffffffffffffffff1673ffffffffffffffffffffffffffffffffffffffff168152602001908152602001600020600701546142f290919063ffffffff16565b602560008673ffffffffffffffffffffffffffffffffffffffff1673ffffffffffffffffffffffffffffffffffffffff16815260200190815260200160002060070181905550600082141561503757614f888c6023600086815260200190815260200160002060008773ffffffffffffffffffffffffffffffffffffffff1673ffffffffffffffffffffffffffffffffffffffff168152602001908152602001600020546142f290919063ffffffff16565b6023600085815260200190815260200160002060008673ffffffffffffffffffffffffffffffffffffffff1673ffffffffffffffffffffffffffffffffffffffff16815260200190815260200160002081905550615036846023600086815260200190815260200160002060008773ffffffffffffffffffffffffffffffffffffffff1673ffffffffffffffffffffffffffffffffffffffff1681526020019081526020016000205461599d565b5b602560008573ffffffffffffffffffffffffffffffffffffffff1673ffffffffffffffffffffffffffffffffffffffff16815260200190815260200160002060000160019054906101000a900473ffffffffffffffffffffffffffffffffffffffff1693506150db6040518060400160405280601e81526020017f696e766573746d656e742072656665727265722d2d2d2d2d2d2d2d2d2d2d000081525085615880565b508080600101915050614c2a565b50876009016040518061010001604052804281526020018581526020018981526020018681526020018881526020018781526020018d81526020018b15158152509080600181540180825580915050600190039060005260206000209060080201600090919091909150600082015181600001556020820151816001015560408201518160020155606082015181600301556080820151816004015560a0820151816005015560c0820151816006015560e08201518160070160006101000a81548160ff0219169083151502179055505050600060065414806151cd575042600654115b156152b857601e60405180608001604052803373ffffffffffffffffffffffffffffffffffffffff1681526020018c81526020016000815260200142815250908060018154018082558091505060019003906000526020600020906004020160009091909190915060008201518160000160006101000a81548173ffffffffffffffffffffffffffffffffffffffff021916908373ffffffffffffffffffffffffffffffffffffffff1602179055506020820151816001015560408201518160020155606082015181600301555050601f60008154809291906001019190505550601f546020819055505b50505b505050505050505050565b6000806152d1613396565b90506000602560003373ffffffffffffffffffffffffffffffffffffffff1673ffffffffffffffffffffffffffffffffffffffff1681526020019081526020016000209050600084148061532457508184115b1561532d578193505b60035484111561533d5760035493505b600084116153b3576040517f08c379a000000000000000000000000000000000000000000000000000000000815260040180806020018281038252600c8152602001807f4572726f7220616d6f756e74000000000000000000000000000000000000000081525060200191505060405180910390fd5b6153c6848361426f90919063ffffffff16565b81600401819055506153e58482600301546142f290919063ffffffff16565b816003018190555042816005018190555061540b8460035461426f90919063ffffffff16565b600381905550600060065414801561544b575061544861543760026017546141c190919063ffffffff16565b6001546142f290919063ffffffff16565b42115b80156154605750601a54600a0a600a02600354105b156154815761547a601754426142f290919063ffffffff16565b6006819055505b8392505050919050565b60008060008054906101000a900473ffffffffffffffffffffffffffffffffffffffff1690508073ffffffffffffffffffffffffffffffffffffffff1663a9059cbb85856040518363ffffffff1660e01b8152600401808373ffffffffffffffffffffffffffffffffffffffff16815260200182815260200192505050602060405180830381600087803b15801561552257600080fd5b505af1158015615536573d6000803e3d6000fd5b505050506040513d602081101561554c57600080fd5b810190808051906020019092919050505091505092915050565b60008082116155dd576040517f08c379a000000000000000000000000000000000000000000000000000000000815260040180806020018281038252601a8152602001807f536166654d6174683a206469766973696f6e206279207a65726f00000000000081525060200191505060405180910390fd5b8183816155e657fe5b04905092915050565b6156f282826040516024018080602001838152602001828103825284818151815260200191508051906020019080838360005b8381101561563d578082015181840152602081019050615622565b50505050905090810190601f16801561566a5780820380516001836020036101000a031916815260200191505b5093505050506040516020818303038152906040527fb60e72cc000000000000000000000000000000000000000000000000000000007bffffffffffffffffffffffffffffffffffffffffffffffffffffffff19166020820180517bffffffffffffffffffffffffffffffffffffffffffffffffffffffff8381831617835250505050615b46565b5050565b6000818310156157065781615708565b825b905092915050565b600081831061571f5781615721565b825b905092915050565b6000806002546003548161573957fe5b04905061577b6040518060400160405280601981526020017f726174696f20696e2067657420726174696f2d2d2d2d2d2d2d00000000000000815250826155ef565b8091505090565b61587d816040516024018080602001828103825283818151815260200191508051906020019080838360005b838110156157c95780820151818401526020810190506157ae565b50505050905090810190601f1680156157f65780820380516001836020036101000a031916815260200191505b50925050506040516020818303038152906040527f41304fac000000000000000000000000000000000000000000000000000000007bffffffffffffffffffffffffffffffffffffffffffffffffffffffff19166020820180517bffffffffffffffffffffffffffffffffffffffffffffffffffffffff8381831617835250505050615b46565b50565b615999828260405160240180806020018373ffffffffffffffffffffffffffffffffffffffff168152602001828103825284818151815260200191508051906020019080838360005b838110156158e45780820151818401526020810190506158c9565b50505050905090810190601f1680156159115780820380516001836020036101000a031916815260200191505b5093505050506040516020818303038152906040527f319af333000000000000000000000000000000000000000000000000000000007bffffffffffffffffffffffffffffffffffffffffffffffffffffffff19166020820180517bffffffffffffffffffffffffffffffffffffffffffffffffffffffff8381831617835250505050615b46565b5050565b60006159a761244d565b905060008060008086905060005b60226000878152602001908152602001600020506004811015615b3b576022600087815260200190815260200160002081600481106159f057fe5b6004020194508460000160009054906101000a900473ffffffffffffffffffffffffffffffffffffffff1673ffffffffffffffffffffffffffffffffffffffff168873ffffffffffffffffffffffffffffffffffffffff161415615a6257868560010181905550505050505050615b42565b8460010154871115615b2e578460000160009054906101000a900473ffffffffffffffffffffffffffffffffffffffff16935084600101549250878560000160006101000a81548173ffffffffffffffffffffffffffffffffffffffff021916908373ffffffffffffffffffffffffffffffffffffffff1602179055508685600101819055508373ffffffffffffffffffffffffffffffffffffffff168273ffffffffffffffffffffffffffffffffffffffff161415615b2757505050505050615b42565b8397508296505b80806001019150506159b5565b5050505050505b5050565b615b5d81615b55615b60615b81565b63ffffffff16565b50565b60006a636f6e736f6c652e6c6f679050600080835160208501845afa505050565b615c17819050919050565b6040518060800160405280600490602082028036833780820191505090505090565b6040518060800160405280600490602082028036833780820191505090505090565b604051806101000160405280600081526020016000815260200160008152602001600081526020016000815260200160008152602001600081526020016000151581525090565bfefe3120746f74616c5265776172642020696e7369646520676574706572696f64726174652d2d2d2d2d2d2d2d72616e6b20696e64657820696e206765742072616e6b20696e6465782d2d2d2d2d2d2d2d2d2d3220746f74616c5265776172642020696e7369646520676574706572696f64726174652d2d2d2d2d2d2d2d506c6561736520696e76657374206d6f7265207468616e20746865206d696e696d756d20616d6f756e743320706572696f6420696e7369646520676574706572696f64726174653d3d3d3d3d3d3d3d3d3d31207261746520696e7369646520676574706572696f64726174653d3d3d3d3d3d3d3d3d3d3d3d3120706572696f6420696e7369646520676574706572696f64726174653d3d3d3d3d3d3d3d3d3d616d6f756e7420696e20676574616d6f756e7420696620636f6e646974696f6e2d2d2d2d2d3220706572696f6420696e7369646520676574706572696f64726174653d3d3d3d3d3d3d3d3d3d33207261746520696e7369646520676574706572696f64726174653d3d3d3d3d3d3d3d3d3d3d3d3420706572696f6420696e7369646520676574706572696f64726174653d3d3d3d3d3d3d3d3d3d536166654d6174683a206d756c7469706c69636174696f6e206f766572666c6f773420746f74616c5265776172642020696e7369646520676574706572696f64726174652d2d2d2d2d2d2d2d32207261746520696e7369646520676574706572696f64726174653d3d3d3d3d3d3d3d3d3d3d3d72657761726420696e7369646520636f6d706f756e642063616c63756c6174652066756e6374696f6e202d2d2d2d2d2d43616e6e6f74207769746864726177207072696e636970616c206265666f72652074686520696e766573746d656e7420706572696f6420656e647334207261746520696e7369646520676574706572696f64726174653d3d3d3d3d3d3d3d3d3d3d3d3320746f74616c5265776172642020696e7369646520676574706572696f64726174652d2d2d2d2d2d2d2d506c6561736520696e76657374206c657373207468616e20746865206d6178696d756d20616d6f756e74696e636f6d6520696e736964652063616c63756c6174652066756e6374696f6e2d2d2d2d2d2d696e736964652062696e642072656c6174696f6e736869702d2d2d2d2d2d2d2d2da2646970667358221220cdb3958418905225a1d1a779f93cb100f838e9034d34cd296d7ba0bc24b34e7964736f6c63430007060033536166654d6174683a206d756c7469706c69636174696f6e206f766572666c6f77",
  "linkReferences": {},
  "deployedLinkReferences": {}
}