{
  "_format": "hh-sol-artifact-1",
  "contractName": "YieldGivers",
  "sourceName": "contracts/YieldGivers.sol",
  "abi": [
    {
      "inputs": [
        {
          "internalType": "address",
          "name": "_tokenAddress",
          "type": "address"
        },
        {
          "internalType": "address payable",
          "name": "dev_",
          "type": "address"
        },
        {
          "internalType": "address payable",
          "name": "ad_",
          "type": "address"
        },
        {
          "internalType": "address payable",
          "name": "team_",
          "type": "address"
        },
        {
          "internalType": "uint256",
          "name": "startTime_",
          "type": "uint256"
        },
        {
          "internalType": "uint256",
          "name": "rankTime_",
          "type": "uint256"
        }
      ],
      "stateMutability": "nonpayable",
      "type": "constructor"
    },
    {
      "anonymous": false,
      "inputs": [
        {
          "indexed": true,
          "internalType": "address",
          "name": "user",
          "type": "address"
        },
        {
          "indexed": false,
          "internalType": "uint256",
          "name": "amount",
          "type": "uint256"
        }
      ],
      "name": "Insurance",
      "type": "event"
    },
    {
      "anonymous": false,
      "inputs": [
        {
          "indexed": true,
          "internalType": "address",
          "name": "user",
          "type": "address"
        },
        {
          "indexed": false,
          "internalType": "uint256",
          "name": "amount",
          "type": "uint256"
        }
      ],
      "name": "Rank",
      "type": "event"
    },
    {
      "anonymous": false,
      "inputs": [
        {
          "indexed": true,
          "internalType": "address",
          "name": "user",
          "type": "address"
        },
        {
          "indexed": false,
          "internalType": "uint256",
          "name": "amount",
          "type": "uint256"
        }
      ],
      "name": "Retake",
      "type": "event"
    },
    {
      "anonymous": false,
      "inputs": [
        {
          "indexed": true,
          "internalType": "address",
          "name": "user",
          "type": "address"
        },
        {
          "indexed": false,
          "internalType": "uint256",
          "name": "amount",
          "type": "uint256"
        }
      ],
      "name": "Stake",
      "type": "event"
    },
    {
      "anonymous": false,
      "inputs": [
        {
          "indexed": true,
          "internalType": "address",
          "name": "user",
          "type": "address"
        },
        {
          "indexed": false,
          "internalType": "uint256",
          "name": "amount",
          "type": "uint256"
        }
      ],
      "name": "Withdraw",
      "type": "event"
    },
    {
      "anonymous": false,
      "inputs": [
        {
          "indexed": true,
          "internalType": "address",
          "name": "user",
          "type": "address"
        },
        {
          "indexed": false,
          "internalType": "uint256",
          "name": "amount",
          "type": "uint256"
        }
      ],
      "name": "WithdrawPrincipal",
      "type": "event"
    },
    {
      "inputs": [],
      "name": "ad",
      "outputs": [
        {
          "internalType": "address payable",
          "name": "",
          "type": "address"
        }
      ],
      "stateMutability": "view",
      "type": "function"
    },
    {
      "inputs": [
        {
          "internalType": "uint256",
          "name": "income",
          "type": "uint256"
        },
        {
          "internalType": "uint256",
          "name": "rate",
          "type": "uint256"
        },
        {
          "internalType": "uint256",
          "name": "period",
          "type": "uint256"
        }
      ],
      "name": "calcReward",
      "outputs": [
        {
          "internalType": "uint256",
          "name": "reward",
          "type": "uint256"
        }
      ],
      "stateMutability": "pure",
      "type": "function"
    },
    {
      "inputs": [
        {
          "internalType": "uint256",
          "name": "income",
          "type": "uint256"
        },
        {
          "internalType": "uint256",
          "name": "rate",
          "type": "uint256"
        },
        {
          "internalType": "uint256",
          "name": "period",
          "type": "uint256"
        }
      ],
      "name": "calcRewardCompound",
      "outputs": [
        {
          "internalType": "uint256",
          "name": "reward",
          "type": "uint256"
        }
      ],
      "stateMutability": "pure",
      "type": "function"
    },
    {
      "inputs": [],
      "name": "dev",
      "outputs": [
        {
          "internalType": "address payable",
          "name": "",
          "type": "address"
        }
      ],
      "stateMutability": "view",
      "type": "function"
    },
    {
      "inputs": [],
      "name": "getAmount",
      "outputs": [
        {
          "internalType": "uint256",
          "name": "amount",
          "type": "uint256"
        }
      ],
      "stateMutability": "view",
      "type": "function"
    },
    {
      "inputs": [],
      "name": "getIncreasePct",
      "outputs": [
        {
          "internalType": "uint256",
          "name": "increasePct",
          "type": "uint256"
        }
      ],
      "stateMutability": "view",
      "type": "function"
    },
    {
      "inputs": [],
      "name": "getInfo",
      "outputs": [
        {
          "internalType": "uint256",
          "name": "",
          "type": "uint256"
        },
        {
          "internalType": "uint256",
          "name": "",
          "type": "uint256"
        },
        {
          "internalType": "uint256",
          "name": "",
          "type": "uint256"
        },
        {
          "internalType": "uint256",
          "name": "",
          "type": "uint256"
        },
        {
          "internalType": "uint256",
          "name": "",
          "type": "uint256"
        },
        {
          "internalType": "uint256",
          "name": "",
          "type": "uint256"
        },
        {
          "internalType": "uint256",
          "name": "",
          "type": "uint256"
        }
      ],
      "stateMutability": "view",
      "type": "function"
    },
    {
      "inputs": [
        {
          "internalType": "uint256",
          "name": "length",
          "type": "uint256"
        }
      ],
      "name": "getInsurances",
      "outputs": [
        {
          "internalType": "address[]",
          "name": "addresses",
          "type": "address[]"
        },
        {
          "internalType": "uint256[]",
          "name": "values",
          "type": "uint256[]"
        },
        {
          "internalType": "uint256[]",
          "name": "rewards",
          "type": "uint256[]"
        },
        {
          "internalType": "uint256[]",
          "name": "times",
          "type": "uint256[]"
        }
      ],
      "stateMutability": "view",
      "type": "function"
    },
    {
      "inputs": [],
      "name": "getInvestments",
      "outputs": [
        {
          "internalType": "uint256[]",
          "name": "times",
          "type": "uint256[]"
        },
        {
          "internalType": "uint256[]",
          "name": "starts",
          "type": "uint256[]"
        },
        {
          "internalType": "uint256[]",
          "name": "values",
          "type": "uint256[]"
        },
        {
          "internalType": "uint256[]",
          "name": "totalRewards",
          "type": "uint256[]"
        },
        {
          "internalType": "uint256[]",
          "name": "rates",
          "type": "uint256[]"
        },
        {
          "internalType": "uint256[]",
          "name": "typeNums",
          "type": "uint256[]"
        },
        {
          "internalType": "bool[]",
          "name": "isReStakes",
          "type": "bool[]"
        }
      ],
      "stateMutability": "view",
      "type": "function"
    },
    {
      "inputs": [],
      "name": "getInvestmentsEx",
      "outputs": [
        {
          "internalType": "uint256[]",
          "name": "periods",
          "type": "uint256[]"
        }
      ],
      "stateMutability": "view",
      "type": "function"
    },
    {
      "inputs": [
        {
          "internalType": "uint256",
          "name": "typeNum",
          "type": "uint256"
        },
        {
          "internalType": "uint256",
          "name": "income",
          "type": "uint256"
        }
      ],
      "name": "getPeriodAndRate",
      "outputs": [
        {
          "internalType": "uint256",
          "name": "period",
          "type": "uint256"
        },
        {
          "internalType": "uint256",
          "name": "rate",
          "type": "uint256"
        },
        {
          "internalType": "uint256",
          "name": "totalReward",
          "type": "uint256"
        }
      ],
      "stateMutability": "view",
      "type": "function"
    },
    {
      "inputs": [],
      "name": "getPlanFourRate",
      "outputs": [
        {
          "internalType": "uint256",
          "name": "planFourPct",
          "type": "uint256"
        }
      ],
      "stateMutability": "view",
      "type": "function"
    },
    {
      "inputs": [],
      "name": "getPlanOneRate",
      "outputs": [
        {
          "internalType": "uint256",
          "name": "planOnePct",
          "type": "uint256"
        }
      ],
      "stateMutability": "view",
      "type": "function"
    },
    {
      "inputs": [],
      "name": "getPlanThreeRate",
      "outputs": [
        {
          "internalType": "uint256",
          "name": "planThreePct",
          "type": "uint256"
        }
      ],
      "stateMutability": "view",
      "type": "function"
    },
    {
      "inputs": [],
      "name": "getPlanTwoRate",
      "outputs": [
        {
          "internalType": "uint256",
          "name": "planTwoPct",
          "type": "uint256"
        }
      ],
      "stateMutability": "view",
      "type": "function"
    },
    {
      "inputs": [],
      "name": "getRankIndex",
      "outputs": [
        {
          "internalType": "uint256",
          "name": "index",
          "type": "uint256"
        }
      ],
      "stateMutability": "view",
      "type": "function"
    },
    {
      "inputs": [
        {
          "internalType": "uint256",
          "name": "index",
          "type": "uint256"
        }
      ],
      "name": "getRanks",
      "outputs": [
        {
          "internalType": "address[4]",
          "name": "addresses",
          "type": "address[4]"
        },
        {
          "internalType": "uint256[4]",
          "name": "values",
          "type": "uint256[4]"
        },
        {
          "internalType": "uint256[4]",
          "name": "rewards",
          "type": "uint256[4]"
        },
        {
          "internalType": "uint256[4]",
          "name": "times",
          "type": "uint256[4]"
        }
      ],
      "stateMutability": "view",
      "type": "function"
    },
    {
      "inputs": [],
      "name": "getTokenBalance",
      "outputs": [
        {
          "internalType": "uint256",
          "name": "",
          "type": "uint256"
        }
      ],
      "stateMutability": "view",
      "type": "function"
    },
    {
      "inputs": [],
      "name": "insuranceIndex",
      "outputs": [
        {
          "internalType": "uint256",
          "name": "",
          "type": "uint256"
        }
      ],
      "stateMutability": "view",
      "type": "function"
    },
    {
      "inputs": [],
      "name": "insurancePool",
      "outputs": [
        {
          "internalType": "uint256",
          "name": "",
          "type": "uint256"
        }
      ],
      "stateMutability": "view",
      "type": "function"
    },
    {
      "inputs": [],
      "name": "insuranceRewardIndex",
      "outputs": [
        {
          "internalType": "uint256",
          "name": "",
          "type": "uint256"
        }
      ],
      "stateMutability": "view",
      "type": "function"
    },
    {
      "inputs": [],
      "name": "insuranceTime",
      "outputs": [
        {
          "internalType": "uint256",
          "name": "",
          "type": "uint256"
        }
      ],
      "stateMutability": "view",
      "type": "function"
    },
    {
      "inputs": [
        {
          "internalType": "uint256",
          "name": "",
          "type": "uint256"
        }
      ],
      "name": "insurances",
      "outputs": [
        {
          "internalType": "address",
          "name": "addr",
          "type": "address"
        },
        {
          "internalType": "uint256",
          "name": "value",
          "type": "uint256"
        },
        {
          "internalType": "uint256",
          "name": "reward",
          "type": "uint256"
        },
        {
          "internalType": "uint256",
          "name": "time",
          "type": "uint256"
        }
      ],
      "stateMutability": "view",
      "type": "function"
    },
    {
      "inputs": [],
      "name": "maxInvestAmount",
      "outputs": [
        {
          "internalType": "uint256",
          "name": "",
          "type": "uint256"
        }
      ],
      "stateMutability": "view",
      "type": "function"
    },
    {
      "inputs": [],
      "name": "minInvestAmount",
      "outputs": [
        {
          "internalType": "uint256",
          "name": "",
          "type": "uint256"
        }
      ],
      "stateMutability": "view",
      "type": "function"
    },
    {
      "inputs": [],
      "name": "owner",
      "outputs": [
        {
          "internalType": "address",
          "name": "",
          "type": "address"
        }
      ],
      "stateMutability": "view",
      "type": "function"
    },
    {
      "inputs": [],
      "name": "percentMultiplier",
      "outputs": [
        {
          "internalType": "uint256",
          "name": "",
          "type": "uint256"
        }
      ],
      "stateMutability": "view",
      "type": "function"
    },
    {
      "inputs": [],
      "name": "planFourDays",
      "outputs": [
        {
          "internalType": "uint256",
          "name": "",
          "type": "uint256"
        }
      ],
      "stateMutability": "view",
      "type": "function"
    },
    {
      "inputs": [],
      "name": "planFourMultiplier",
      "outputs": [
        {
          "internalType": "uint256",
          "name": "",
          "type": "uint256"
        }
      ],
      "stateMutability": "view",
      "type": "function"
    },
    {
      "inputs": [
        {
          "internalType": "uint256",
          "name": "planFourPct",
          "type": "uint256"
        }
      ],
      "name": "planFourRate",
      "outputs": [],
      "stateMutability": "nonpayable",
      "type": "function"
    },
    {
      "inputs": [],
      "name": "planOneDays",
      "outputs": [
        {
          "internalType": "uint256",
          "name": "",
          "type": "uint256"
        }
      ],
      "stateMutability": "view",
      "type": "function"
    },
    {
      "inputs": [],
      "name": "planOneMultiplier",
      "outputs": [
        {
          "internalType": "uint256",
          "name": "",
          "type": "uint256"
        }
      ],
      "stateMutability": "view",
      "type": "function"
    },
    {
      "inputs": [
        {
          "internalType": "uint256",
          "name": "planOnePct",
          "type": "uint256"
        }
      ],
      "name": "planOneRate",
      "outputs": [],
      "stateMutability": "nonpayable",
      "type": "function"
    },
    {
      "inputs": [],
      "name": "planThreeDays",
      "outputs": [
        {
          "internalType": "uint256",
          "name": "",
          "type": "uint256"
        }
      ],
      "stateMutability": "view",
      "type": "function"
    },
    {
      "inputs": [],
      "name": "planThreeMultiplier",
      "outputs": [
        {
          "internalType": "uint256",
          "name": "",
          "type": "uint256"
        }
      ],
      "stateMutability": "view",
      "type": "function"
    },
    {
      "inputs": [
        {
          "internalType": "uint256",
          "name": "planThreePct",
          "type": "uint256"
        }
      ],
      "name": "planThreeRate",
      "outputs": [],
      "stateMutability": "nonpayable",
      "type": "function"
    },
    {
      "inputs": [],
      "name": "planTwoDays",
      "outputs": [
        {
          "internalType": "uint256",
          "name": "",
          "type": "uint256"
        }
      ],
      "stateMutability": "view",
      "type": "function"
    },
    {
      "inputs": [],
      "name": "planTwoMultiplier",
      "outputs": [
        {
          "internalType": "uint256",
          "name": "",
          "type": "uint256"
        }
      ],
      "stateMutability": "view",
      "type": "function"
    },
    {
      "inputs": [
        {
          "internalType": "uint256",
          "name": "planTwoPct",
          "type": "uint256"
        }
      ],
      "name": "planTwoRate",
      "outputs": [],
      "stateMutability": "nonpayable",
      "type": "function"
    },
    {
      "inputs": [],
      "name": "pool",
      "outputs": [
        {
          "internalType": "uint256",
          "name": "",
          "type": "uint256"
        }
      ],
      "stateMutability": "view",
      "type": "function"
    },
    {
      "inputs": [
        {
          "internalType": "uint256",
          "name": "",
          "type": "uint256"
        }
      ],
      "name": "rankFlag",
      "outputs": [
        {
          "internalType": "bool",
          "name": "",
          "type": "bool"
        }
      ],
      "stateMutability": "view",
      "type": "function"
    },
    {
      "inputs": [
        {
          "internalType": "uint256",
          "name": "",
          "type": "uint256"
        },
        {
          "internalType": "address",
          "name": "",
          "type": "address"
        }
      ],
      "name": "rankMap",
      "outputs": [
        {
          "internalType": "uint256",
          "name": "",
          "type": "uint256"
        }
      ],
      "stateMutability": "view",
      "type": "function"
    },
    {
      "inputs": [],
      "name": "rankPool",
      "outputs": [
        {
          "internalType": "uint256",
          "name": "",
          "type": "uint256"
        }
      ],
      "stateMutability": "view",
      "type": "function"
    },
    {
      "inputs": [],
      "name": "rankTime",
      "outputs": [
        {
          "internalType": "uint256",
          "name": "",
          "type": "uint256"
        }
      ],
      "stateMutability": "view",
      "type": "function"
    },
    {
      "inputs": [
        {
          "internalType": "uint256",
          "name": "typeNum",
          "type": "uint256"
        },
        {
          "internalType": "uint256",
          "name": "amount",
          "type": "uint256"
        }
      ],
      "name": "reStake",
      "outputs": [],
      "stateMutability": "nonpayable",
      "type": "function"
    },
    {
      "inputs": [
        {
          "internalType": "uint256",
          "name": "maxInvAmnt",
          "type": "uint256"
        }
      ],
      "name": "setMaxInvestAmount",
      "outputs": [],
      "stateMutability": "nonpayable",
      "type": "function"
    },
    {
      "inputs": [
        {
          "internalType": "uint256",
          "name": "minInvAmnt",
          "type": "uint256"
        }
      ],
      "name": "setMinInvestAmount",
      "outputs": [],
      "stateMutability": "nonpayable",
      "type": "function"
    },
    {
      "inputs": [
        {
          "internalType": "uint256",
          "name": "increasePct",
          "type": "uint256"
        }
      ],
      "name": "setPercentMultiplier",
      "outputs": [],
      "stateMutability": "nonpayable",
      "type": "function"
    },
    {
      "inputs": [
        {
          "internalType": "uint256",
          "name": "planFourPeriod",
          "type": "uint256"
        }
      ],
      "name": "setPlanFourPeriod",
      "outputs": [],
      "stateMutability": "nonpayable",
      "type": "function"
    },
    {
      "inputs": [
        {
          "internalType": "uint256",
          "name": "planOnePeriod",
          "type": "uint256"
        }
      ],
      "name": "setPlanOnePeriod",
      "outputs": [],
      "stateMutability": "nonpayable",
      "type": "function"
    },
    {
      "inputs": [
        {
          "internalType": "uint256",
          "name": "planThreePeriod",
          "type": "uint256"
        }
      ],
      "name": "setPlanThreePeriod",
      "outputs": [],
      "stateMutability": "nonpayable",
      "type": "function"
    },
    {
      "inputs": [
        {
          "internalType": "uint256",
          "name": "planTwoPeriod",
          "type": "uint256"
        }
      ],
      "name": "setPlanTwoPeriod",
      "outputs": [],
      "stateMutability": "nonpayable",
      "type": "function"
    },
    {
      "inputs": [
        {
          "internalType": "address",
          "name": "referrer",
          "type": "address"
        },
        {
          "internalType": "uint256",
          "name": "typeNum",
          "type": "uint256"
        },
        {
          "internalType": "uint256",
          "name": "Amount",
          "type": "uint256"
        }
      ],
      "name": "stake",
      "outputs": [],
      "stateMutability": "payable",
      "type": "function"
    },
    {
      "inputs": [],
      "name": "startTime",
      "outputs": [
        {
          "internalType": "uint256",
          "name": "",
          "type": "uint256"
        }
      ],
      "stateMutability": "view",
      "type": "function"
    },
    {
      "inputs": [],
      "name": "team",
      "outputs": [
        {
          "internalType": "address payable",
          "name": "",
          "type": "address"
        }
      ],
      "stateMutability": "view",
      "type": "function"
    },
    {
      "inputs": [],
      "name": "tokenAddress",
      "outputs": [
        {
          "internalType": "address",
          "name": "",
          "type": "address"
        }
      ],
      "stateMutability": "view",
      "type": "function"
    },
    {
      "inputs": [],
      "name": "total",
      "outputs": [
        {
          "internalType": "uint256",
          "name": "",
          "type": "uint256"
        }
      ],
      "stateMutability": "view",
      "type": "function"
    },
    {
      "inputs": [
        {
          "internalType": "address",
          "name": "",
          "type": "address"
        }
      ],
      "name": "userMap",
      "outputs": [
        {
          "internalType": "bool",
          "name": "active",
          "type": "bool"
        },
        {
          "internalType": "address",
          "name": "referrer",
          "type": "address"
        },
        {
          "internalType": "uint256",
          "name": "recommendReward",
          "type": "uint256"
        },
        {
          "internalType": "uint256",
          "name": "investment",
          "type": "uint256"
        },
        {
          "internalType": "uint256",
          "name": "totalWithdraw",
          "type": "uint256"
        },
        {
          "internalType": "uint256",
          "name": "totalReward",
          "type": "uint256"
        },
        {
          "internalType": "uint256",
          "name": "checkpoint",
          "type": "uint256"
        },
        {
          "internalType": "uint256",
          "name": "subNum",
          "type": "uint256"
        },
        {
          "internalType": "uint256",
          "name": "subStake",
          "type": "uint256"
        }
      ],
      "stateMutability": "view",
      "type": "function"
    },
    {
      "inputs": [
        {
          "internalType": "uint256",
          "name": "amount",
          "type": "uint256"
        }
      ],
      "name": "withdraw",
      "outputs": [],
      "stateMutability": "nonpayable",
      "type": "function"
    },
    {
      "inputs": [],
      "name": "withdrawContractbalance",
      "outputs": [],
      "stateMutability": "nonpayable",
      "type": "function"
    },
    {
      "inputs": [
        {
          "internalType": "uint256",
          "name": "investmentIndex",
          "type": "uint256"
        }
      ],
      "name": "withdrawPrincipal",
      "outputs": [],
      "stateMutability": "nonpayable",
      "type": "function"
    }
  ],
  "bytecode": "0x608060405233601660006101000a81548173ffffffffffffffffffffffffffffffffffffffff021916908373ffffffffffffffffffffffffffffffffffffffff160217905550620151806017556146506018556200006f6007601754620004b060201b62003cfc1790919060201c565b6019556012601a556040518060600160405280600360ff168152602001600260ff168152602001600160ff16815250601b906003620000b09291906200054e565b506040518060800160405280602860ff168152602001601e60ff168152602001601460ff168152602001600a60ff16815250601f906004620000f4929190620005a5565b503480156200010257600080fd5b506040516200656738038062006567833981810160405260c08110156200012857600080fd5b810190808051906020019092919080519060200190929190805190602001909291908051906020019092919080519060200190929190805190602001909291905050506200017c856200053b60201b60201c565b15620001f0576040517f08c379a000000000000000000000000000000000000000000000000000000000815260040180806020018281038252600b8152602001807f216465764164647265737300000000000000000000000000000000000000000081525060200191505060405180910390fd5b62000201846200053b60201b60201c565b1562000275576040517f08c379a000000000000000000000000000000000000000000000000000000000815260040180806020018281038252600a8152602001807f216164416464726573730000000000000000000000000000000000000000000081525060200191505060405180910390fd5b62000286836200053b60201b60201c565b15620002fa576040517f08c379a000000000000000000000000000000000000000000000000000000000815260040180806020018281038252600c8152602001807f217465616d41646472657373000000000000000000000000000000000000000081525060200191505060405180910390fd5b856000806101000a81548173ffffffffffffffffffffffffffffffffffffffff021916908373ffffffffffffffffffffffffffffffffffffffff16021790555084601360006101000a81548173ffffffffffffffffffffffffffffffffffffffff021916908373ffffffffffffffffffffffffffffffffffffffff16021790555083601460006101000a81548173ffffffffffffffffffffffffffffffffffffffff021916908373ffffffffffffffffffffffffffffffffffffffff16021790555082601560006101000a81548173ffffffffffffffffffffffffffffffffffffffff021916908373ffffffffffffffffffffffffffffffffffffffff160217905550600160236000601560009054906101000a900473ffffffffffffffffffffffffffffffffffffffff1673ffffffffffffffffffffffffffffffffffffffff1673ffffffffffffffffffffffffffffffffffffffff16815260200190815260200160002060000160006101000a81548160ff021916908315150217905550600082141562000488574291505b600081141562000496574290505b81600181905550806007819055505050505050506200061b565b600080831415620004c5576000905062000535565b6000828402905082848281620004d757fe5b041462000530576040517f08c379a0000000000000000000000000000000000000000000000000000000008152600401808060200182810382526021815260200180620065466021913960400191505060405180910390fd5b809150505b92915050565b600080823b905060008111915050919050565b82805482825590600052602060002090810192821562000592579160200282015b8281111562000591578251829060ff169055916020019190600101906200056f565b5b509050620005a19190620005fc565b5090565b828054828255906000526020600020908101928215620005e9579160200282015b82811115620005e8578251829060ff16905591602001919060010190620005c6565b5b509050620005f89190620005fc565b5090565b5b8082111562000617576000816000905550600101620005fd565b5090565b615f1b806200062b6000396000f3fe6080604052600436106103a25760003560e01c8063841062bd116101e7578063cdd35fbe1161010d578063ee579481116100a0578063f9c23a5b1161006f578063f9c23a5b146114fc578063fbfab74e14611527578063fc6ced5f14611562578063fc77aa481461158d576103a2565b8063ee57948114611430578063f10e1cdf1461145b578063f3c2c3bd14611486578063f4bc8a13146114c1576103a2565b8063d624722d116100dc578063d624722d14611147578063dee120ea14611363578063eba21fdf146113ca578063ebf7301f14611405576103a2565b8063cdd35fbe14611063578063cde31948146110c6578063cf59f86a146110f1578063d321fe291461111c576103a2565b80639f909e4611610185578063aef2afc911610154578063aef2afc914610f91578063b162d5dc14610fbc578063b56d395214610fe7578063c64b4d1b14611038576103a2565b80639f909e4614610dfc578063a4af858414610e27578063aa28229514610e62578063ab2adc0014610f66576103a2565b80638da5cb5b116101c15780638da5cb5b14610cfe57806391cca3db14610d3f578063928076f114610d805780639d76ea5814610dbb576103a2565b8063841062bd14610c5757806385f2aef214610c825780638d02913a14610cc3576103a2565b806343b500e3116102cc57806371b801db1161026a5780637f4f9870116102395780637f4f987014610b6e578063818d8c0414610bda57806382b2e25714610c155780638387570814610c40576103a2565b806371b801db14610ac25780637642c32a14610aed57806376bc102514610b1857806378e9792514610b43576103a2565b806359fb49f9116102a657806359fb49f9146109735780635a9b0b89146109ed578063658e28a414610a425780636a38b64614610a7d576103a2565b806343b500e3146108f25780634fe7edff1461091d578063584c8fc114610948576103a2565b8063344fbb4a116103445780633b7379e2116103135780633b7379e2146107a45780633c376d8e146108135780633e1430af1461084e57806342b39a5e1461088f576103a2565b8063344fbb4a146106d857806334e927d01461070357806335c34d561461072e5780633859577a14610769576103a2565b806316f0115b1161038057806316f0115b146105925780632bcc23f8146105bd5780632ddbd13a146106725780632e1a7d4d1461069d576103a2565b806302bd2ede146103a75780630c51b88f1461050f578063113c98fc14610567575b600080fd5b3480156103b357600080fd5b506103e0600480360360208110156103ca57600080fd5b81019080803590602001909291905050506115b8565b6040518080602001806020018060200180602001858103855289818151815260200191508051906020019060200280838360005b8381101561042f578082015181840152602081019050610414565b50505050905001858103845288818151815260200191508051906020019060200280838360005b83811015610471578082015181840152602081019050610456565b50505050905001858103835287818151815260200191508051906020019060200280838360005b838110156104b3578082015181840152602081019050610498565b50505050905001858103825286818151815260200191508051906020019060200280838360005b838110156104f55780820151818401526020810190506104da565b505050509050019850505050505050505060405180910390f35b6105656004803603606081101561052557600080fd5b81019080803573ffffffffffffffffffffffffffffffffffffffff169060200190929190803590602001909291908035906020019092919050505061187a565b005b34801561057357600080fd5b5061057c611adc565b6040518082815260200191505060405180910390f35b34801561059e57600080fd5b506105a7611ae2565b6040518082815260200191505060405180910390f35b3480156105c957600080fd5b5061060c600480360360208110156105e057600080fd5b81019080803573ffffffffffffffffffffffffffffffffffffffff169060200190929190505050611ae8565b604051808a151581526020018973ffffffffffffffffffffffffffffffffffffffff168152602001888152602001878152602001868152602001858152602001848152602001838152602001828152602001995050505050505050505060405180910390f35b34801561067e57600080fd5b50610687611b63565b6040518082815260200191505060405180910390f35b3480156106a957600080fd5b506106d6600480360360208110156106c057600080fd5b8101908080359060200190929190505050611b69565b005b3480156106e457600080fd5b506106ed611e60565b6040518082815260200191505060405180910390f35b34801561070f57600080fd5b50610718611ed5565b6040518082815260200191505060405180910390f35b34801561073a57600080fd5b506107676004803603602081101561075157600080fd5b8101908080359060200190929190505050611f0b565b005b34801561077557600080fd5b506107a26004803603602081101561078c57600080fd5b8101908080359060200190929190505050611f6f565b005b3480156107b057600080fd5b506107fd600480360360408110156107c757600080fd5b8101908080359060200190929190803573ffffffffffffffffffffffffffffffffffffffff169060200190929190505050611fd3565b6040518082815260200191505060405180910390f35b34801561081f57600080fd5b5061084c6004803603602081101561083657600080fd5b8101908080359060200190929190505050611ff8565b005b34801561085a57600080fd5b5061086361205c565b604051808273ffffffffffffffffffffffffffffffffffffffff16815260200191505060405180910390f35b34801561089b57600080fd5b506108dc600480360360608110156108b257600080fd5b81019080803590602001909291908035906020019092919080359060200190929190505050612082565b6040518082815260200191505060405180910390f35b3480156108fe57600080fd5b50610907612105565b6040518082815260200191505060405180910390f35b34801561092957600080fd5b5061093261215d565b6040518082815260200191505060405180910390f35b34801561095457600080fd5b5061095d612163565b6040518082815260200191505060405180910390f35b34801561097f57600080fd5b506109ac6004803603602081101561099657600080fd5b8101908080359060200190929190505050612169565b604051808573ffffffffffffffffffffffffffffffffffffffff16815260200184815260200183815260200182815260200194505050505060405180910390f35b3480156109f957600080fd5b50610a026121c9565b6040518088815260200187815260200186815260200185815260200184815260200183815260200182815260200197505050505050505060405180910390f35b348015610a4e57600080fd5b50610a7b60048036036020811015610a6557600080fd5b8101908080359060200190929190505050612200565b005b348015610a8957600080fd5b50610ac060048036036040811015610aa057600080fd5b810190808035906020019092919080359060200190929190505050612493565b005b348015610ace57600080fd5b50610ad7612579565b6040518082815260200191505060405180910390f35b348015610af957600080fd5b50610b0261257f565b6040518082815260200191505060405180910390f35b348015610b2457600080fd5b50610b2d612585565b6040518082815260200191505060405180910390f35b348015610b4f57600080fd5b50610b5861258b565b6040518082815260200191505060405180910390f35b348015610b7a57600080fd5b50610b83612591565b6040518080602001828103825283818151815260200191508051906020019060200280838360005b83811015610bc6578082015181840152602081019050610bab565b505050509050019250505060405180910390f35b348015610be657600080fd5b50610c1360048036036020811015610bfd57600080fd5b8101908080359060200190929190505050612729565b005b348015610c2157600080fd5b50610c2a61278d565b6040518082815260200191505060405180910390f35b348015610c4c57600080fd5b50610c5561285b565b005b348015610c6357600080fd5b50610c6c612929565b6040518082815260200191505060405180910390f35b348015610c8e57600080fd5b50610c97612a1e565b604051808273ffffffffffffffffffffffffffffffffffffffff16815260200191505060405180910390f35b348015610ccf57600080fd5b50610cfc60048036036020811015610ce657600080fd5b8101908080359060200190929190505050612a44565b005b348015610d0a57600080fd5b50610d13612aa8565b604051808273ffffffffffffffffffffffffffffffffffffffff16815260200191505060405180910390f35b348015610d4b57600080fd5b50610d54612ace565b604051808273ffffffffffffffffffffffffffffffffffffffff16815260200191505060405180910390f35b348015610d8c57600080fd5b50610db960048036036020811015610da357600080fd5b8101908080359060200190929190505050612af4565b005b348015610dc757600080fd5b50610dd0612b58565b604051808273ffffffffffffffffffffffffffffffffffffffff16815260200191505060405180910390f35b348015610e0857600080fd5b50610e11612b7c565b6040518082815260200191505060405180910390f35b348015610e3357600080fd5b50610e6060048036036020811015610e4a57600080fd5b8101908080359060200190929190505050612bb2565b005b348015610e6e57600080fd5b50610e9b60048036036020811015610e8557600080fd5b8101908080359060200190929190505050612c16565b6040518085600460200280838360005b83811015610ec6578082015181840152602081019050610eab565b5050505090500184600460200280838360005b83811015610ef4578082015181840152602081019050610ed9565b5050505090500183600460200280838360005b83811015610f22578082015181840152602081019050610f07565b5050505090500182600460200280838360005b83811015610f50578082015181840152602081019050610f35565b5050505090500194505050505060405180910390f35b348015610f7257600080fd5b50610f7b612dfc565b6040518082815260200191505060405180910390f35b348015610f9d57600080fd5b50610fa6612e02565b6040518082815260200191505060405180910390f35b348015610fc857600080fd5b50610fd1612e08565b6040518082815260200191505060405180910390f35b348015610ff357600080fd5b506110206004803603602081101561100a57600080fd5b8101908080359060200190929190505050612e0e565b60405180821515815260200191505060405180910390f35b34801561104457600080fd5b5061104d612e2e565b6040518082815260200191505060405180910390f35b34801561106f57600080fd5b506110b06004803603606081101561108657600080fd5b81019080803590602001909291908035906020019092919080359060200190929190505050612e34565b6040518082815260200191505060405180910390f35b3480156110d257600080fd5b506110db612f38565b6040518082815260200191505060405180910390f35b3480156110fd57600080fd5b50611106612f3e565b6040518082815260200191505060405180910390f35b34801561112857600080fd5b50611131612f44565b6040518082815260200191505060405180910390f35b34801561115357600080fd5b5061115c61340b565b604051808060200180602001806020018060200180602001806020018060200188810388528f818151815260200191508051906020019060200280838360005b838110156111b757808201518184015260208101905061119c565b5050505090500188810387528e818151815260200191508051906020019060200280838360005b838110156111f95780820151818401526020810190506111de565b5050505090500188810386528d818151815260200191508051906020019060200280838360005b8381101561123b578082015181840152602081019050611220565b5050505090500188810385528c818151815260200191508051906020019060200280838360005b8381101561127d578082015181840152602081019050611262565b5050505090500188810384528b818151815260200191508051906020019060200280838360005b838110156112bf5780820151818401526020810190506112a4565b5050505090500188810383528a818151815260200191508051906020019060200280838360005b838110156113015780820151818401526020810190506112e6565b50505050905001888103825289818151815260200191508051906020019060200280838360005b83811015611343578082015181840152602081019050611328565b505050509050019e50505050505050505050505050505060405180910390f35b34801561136f57600080fd5b506113a66004803603604081101561138657600080fd5b810190808035906020019092919080359060200190929190505050613894565b60405180848152602001838152602001828152602001935050505060405180910390f35b3480156113d657600080fd5b50611403600480360360208110156113ed57600080fd5b8101908080359060200190929190505050613b18565b005b34801561141157600080fd5b5061141a613b7c565b6040518082815260200191505060405180910390f35b34801561143c57600080fd5b50611445613b82565b6040518082815260200191505060405180910390f35b34801561146757600080fd5b50611470613b88565b6040518082815260200191505060405180910390f35b34801561149257600080fd5b506114bf600480360360208110156114a957600080fd5b8101908080359060200190929190505050613b8e565b005b3480156114cd57600080fd5b506114fa600480360360208110156114e457600080fd5b8101908080359060200190929190505050613bf2565b005b34801561150857600080fd5b50611511613c56565b6040518082815260200191505060405180910390f35b34801561153357600080fd5b506115606004803603602081101561154a57600080fd5b8101908080359060200190929190505050613c5c565b005b34801561156e57600080fd5b50611577613cc0565b6040518082815260200191505060405180910390f35b34801561159957600080fd5b506115a2613cc6565b6040518082815260200191505060405180910390f35b6060806060806000806115d687601d54613d8290919063ffffffff16565b9150506115ee81601d54613daa90919063ffffffff16565b96508667ffffffffffffffff8111801561160757600080fd5b506040519080825280602002602001820160405280156116365781602001602082028036833780820191505090505b5095508667ffffffffffffffff8111801561165057600080fd5b5060405190808252806020026020018201604052801561167f5781602001602082028036833780820191505090505b5094508667ffffffffffffffff8111801561169957600080fd5b506040519080825280602002602001820160405280156116c85781602001602082028036833780820191505090505b5093508667ffffffffffffffff811180156116e257600080fd5b506040519080825280602002602001820160405280156117115781602001602082028036833780820191505090505b5092506000601d5490505b8181111561187057601c600182038154811061173457fe5b906000526020600020906004020160000160009054906101000a900473ffffffffffffffffffffffffffffffffffffffff1687848151811061177257fe5b602002602001019073ffffffffffffffffffffffffffffffffffffffff16908173ffffffffffffffffffffffffffffffffffffffff1681525050601c60018203815481106117bc57fe5b9060005260206000209060040201600101548684815181106117da57fe5b602002602001018181525050601c60018203815481106117f657fe5b90600052602060002090600402016003015484848151811061181457fe5b602002602001018181525050601c600182038154811061183057fe5b90600052602060002090600402016002015485848151811061184e57fe5b602002602001018181525050828060010193505080806001900391505061171c565b5050509193509193565b6001544210156118f2576040517f08c379a00000000000000000000000000000000000000000000000000000000081526004018080602001828103825260098152602001807f4e6f74207374617274000000000000000000000000000000000000000000000081525060200191505060405180910390fd5b60008190506119366040518060400160405280600d81526020017f696e636f6d652d2d2d2d2d2d2d0000000000000000000000000000000000000081525082613e2d565b620f424060095402811015611996576040517f08c379a000000000000000000000000000000000000000000000000000000000815260040180806020018281038252602a815260200180615b9f602a913960400191505060405180910390fd5b620f4240600854028111156119f6576040517f08c379a000000000000000000000000000000000000000000000000000000000815260040180806020018281038252602a815260200180615e2e602a913960400191505060405180910390fd5b611a01333083613f34565b611a73576040517f08c379a00000000000000000000000000000000000000000000000000000000081526004018080602001828103825260158152602001807f546f6b656e207472616e73666572206661696c6564000000000000000000000081525060200191505060405180910390fd5b611a7c8461402e565b611a8883826000614448565b3373ffffffffffffffffffffffffffffffffffffffff167febedb8b3c678666e7f36970bc8f57abf6d8fa2e828c0da91ea5b75bf68ed101a826040518082815260200191505060405180910390a250505050565b600e5481565b60035481565b60236020528060005260406000206000915090508060000160009054906101000a900460ff16908060000160019054906101000a900473ffffffffffffffffffffffffffffffffffffffff16908060010154908060020154908060030154908060040154908060050154908060060154908060070154905089565b60025481565b611b728161516b565b90506000600654118015611b87575042600654105b15611c0d57611b963382615413565b611c08576040517f08c379a00000000000000000000000000000000000000000000000000000000081526004018080602001828103825260158152602001807f546f6b656e207472616e73666572206661696c6564000000000000000000000081525060200191505060405180910390fd5b611e0f565b611c48611c376064611c29601485613cfc90919063ffffffff16565b6154ee90919063ffffffff16565b60055461557790919063ffffffff16565b600581905550611c72604051806060016040528060238152602001615ec360239139600554613e2d565b611ca233611c9d6064611c8f605086613cfc90919063ffffffff16565b6154ee90919063ffffffff16565b615413565b611d14576040517f08c379a00000000000000000000000000000000000000000000000000000000081526004018080602001828103825260158152602001807f546f6b656e207472616e73666572206661696c6564000000000000000000000081525060200191505060405180910390fd5b611d536040518060400160405280600f81526020017f6d73672e73656e6465722d2d2d2d2d0000000000000000000000000000000000815250336155ff565b611da96040518060400160405280601881526020017f6d73672e73656e64657220616d6f756e742d2d2d2d2d2d2d00000000000000008152503373ffffffffffffffffffffffffffffffffffffffff1631613e2d565b611e0e6040518060400160405280601981526020017f7472616e7366657220616d6f756e742d2d2d2d2d2d2d2d2d2d00000000000000815250611e096064611dfb605086613cfc90919063ffffffff16565b6154ee90919063ffffffff16565b613e2d565b5b3373ffffffffffffffffffffffffffffffffffffffff167f884edad9ce6fa2440d8a54cc123490eb96d2768479d49ff9c7366125a9424364826040518082815260200191505060405180910390a250565b600080611e7860015442613d8290919063ffffffff16565b915050611e90601854826154ee90919063ffffffff16565b9150611ed16040518060400160405280601181526020017f706c616e4f6e655063742d2d2d2d2d2d2d00000000000000000000000000000081525083613e2d565b5090565b600080611eed60015442613d8290919063ffffffff16565b915050611f05601854826154ee90919063ffffffff16565b91505090565b601660009054906101000a900473ffffffffffffffffffffffffffffffffffffffff1673ffffffffffffffffffffffffffffffffffffffff163373ffffffffffffffffffffffffffffffffffffffff1614611f6557600080fd5b80600b8190555050565b601660009054906101000a900473ffffffffffffffffffffffffffffffffffffffff1673ffffffffffffffffffffffffffffffffffffffff163373ffffffffffffffffffffffffffffffffffffffff1614611fc957600080fd5b80600e8190555050565b6021602052816000526040600020602052806000526040600020600091509150505481565b601660009054906101000a900473ffffffffffffffffffffffffffffffffffffffff1673ffffffffffffffffffffffffffffffffffffffff163373ffffffffffffffffffffffffffffffffffffffff161461205257600080fd5b80600f8190555050565b601460009054906101000a900473ffffffffffffffffffffffffffffffffffffffff1681565b60006120bd6103e86120af846120a18789613cfc90919063ffffffff16565b613cfc90919063ffffffff16565b6154ee90919063ffffffff16565b90506120fe6040518060400160405280601e81526020017f726577616420696e2073696d706c6520696e7465726573742d2d2d2d2d2d000081525082613e2d565b9392505050565b60008061211d60075442613d8290919063ffffffff16565b915050612135601754826154ee90919063ffffffff16565b9150612159604051806060016040528060268152602001615b4e6026913983613e2d565b5090565b60065481565b60085481565b601c818154811061217957600080fd5b90600052602060002090600402016000915090508060000160009054906101000a900473ffffffffffffffffffffffffffffffffffffffff16908060010154908060020154908060030154905084565b6000806000806000806000600154600254600354600454600554600654600754965096509650965096509650965090919293949596565b6000602360003373ffffffffffffffffffffffffffffffffffffffff1673ffffffffffffffffffffffffffffffffffffffff1681526020019081526020016000209050806009018054905082106122bf576040517f08c379a00000000000000000000000000000000000000000000000000000000081526004018080602001828103825260188152602001807f496e76616c696420696e766573746d656e7420696e646578000000000000000081525060200191505060405180910390fd5b60008160090183815481106122d057fe5b90600052602060002090600802019050806001015442101561233d576040517f08c379a000000000000000000000000000000000000000000000000000000000815260040180806020018281038252603b815260200180615da1603b913960400191505060405180910390fd5b6000816002015490506123503382615413565b6123c2576040517f08c379a00000000000000000000000000000000000000000000000000000000081526004018080602001828103825260158152602001807f546f6b656e207472616e73666572206661696c6564000000000000000000000081525060200191505060405180910390fd5b6123d9818460020154613daa90919063ffffffff16565b83600201819055506123f881846003015461557790919063ffffffff16565b836003018190555042836005018190555061241e81600254613daa90919063ffffffff16565b60028190555061243981600354613daa90919063ffffffff16565b6003819055503373ffffffffffffffffffffffffffffffffffffffff167fee1b5abe14e43ee34008f06f51efca5382c42fb48b0a040fd7a5f5c630cb5580826040518082815260200191505060405180910390a250505050565b61249c8161516b565b90506124a9333083613f34565b61251b576040517f08c379a00000000000000000000000000000000000000000000000000000000081526004018080602001828103825260158152602001807f546f6b656e207472616e73666572206661696c6564000000000000000000000081525060200191505060405180910390fd5b61252782826001614448565b3373ffffffffffffffffffffffffffffffffffffffff167fb4f3774a35ef894e2fa407041b6832aa9df8f4aae5449664eaa08febb13f8c2d826040518082815260200191505060405180910390a25050565b60105481565b601e5481565b60075481565b60015481565b60606000602360003373ffffffffffffffffffffffffffffffffffffffff1673ffffffffffffffffffffffffffffffffffffffff168152602001908152602001600020600901805480602002602001604051908101604052809291908181526020016000905b8282101561268b578382906000526020600020906008020160405180610100016040529081600082015481526020016001820154815260200160028201548152602001600382015481526020016004820154815260200160058201548152602001600682015481526020016007820160009054906101000a900460ff161515151581525050815260200190600101906125f7565b505050509050805167ffffffffffffffff811180156126a957600080fd5b506040519080825280602002602001820160405280156126d85781602001602082028036833780820191505090505b50915060005b8151811015612724578181815181106126f357fe5b60200260200101516080015183828151811061270b57fe5b60200260200101818152505080806001019150506126de565b505090565b601660009054906101000a900473ffffffffffffffffffffffffffffffffffffffff1673ffffffffffffffffffffffffffffffffffffffff163373ffffffffffffffffffffffffffffffffffffffff161461278357600080fd5b8060118190555050565b60008060008054906101000a900473ffffffffffffffffffffffffffffffffffffffff1690508073ffffffffffffffffffffffffffffffffffffffff166370a08231306040518263ffffffff1660e01b8152600401808273ffffffffffffffffffffffffffffffffffffffff16815260200191505060206040518083038186803b15801561281a57600080fd5b505afa15801561282e573d6000803e3d6000fd5b505050506040513d602081101561284457600080fd5b810190808051906020019092919050505091505090565b601660009054906101000a900473ffffffffffffffffffffffffffffffffffffffff1673ffffffffffffffffffffffffffffffffffffffff163373ffffffffffffffffffffffffffffffffffffffff16146128b557600080fd5b601660009054906101000a900473ffffffffffffffffffffffffffffffffffffffff1673ffffffffffffffffffffffffffffffffffffffff167f884edad9ce6fa2440d8a54cc123490eb96d2768479d49ff9c7366125a94243646002546040518082815260200191505060405180910390a2565b60008061294160015442613d8290919063ffffffff16565b9150506129836040518060400160405280600881526020017f74696d653d3d3d3d00000000000000000000000000000000000000000000000081525082613e2d565b6129c46040518060400160405280601281526020017f696e6372656173652074696d652d2d2d2d2d0000000000000000000000000000815250601854613e2d565b6129d9601854826154ee90919063ffffffff16565b9150612a1a6040518060400160405280601181526020017f696e637265617365207063743d3d3d3d3d00000000000000000000000000000081525083613e2d565b5090565b601560009054906101000a900473ffffffffffffffffffffffffffffffffffffffff1681565b601660009054906101000a900473ffffffffffffffffffffffffffffffffffffffff1673ffffffffffffffffffffffffffffffffffffffff163373ffffffffffffffffffffffffffffffffffffffff1614612a9e57600080fd5b8060098190555050565b601660009054906101000a900473ffffffffffffffffffffffffffffffffffffffff1681565b601360009054906101000a900473ffffffffffffffffffffffffffffffffffffffff1681565b601660009054906101000a900473ffffffffffffffffffffffffffffffffffffffff1673ffffffffffffffffffffffffffffffffffffffff163373ffffffffffffffffffffffffffffffffffffffff1614612b4e57600080fd5b80600c8190555050565b60008054906101000a900473ffffffffffffffffffffffffffffffffffffffff1681565b600080612b9460015442613d8290919063ffffffff16565b915050612bac601854826154ee90919063ffffffff16565b91505090565b601660009054906101000a900473ffffffffffffffffffffffffffffffffffffffff1673ffffffffffffffffffffffffffffffffffffffff163373ffffffffffffffffffffffffffffffffffffffff1614612c0c57600080fd5b8060108190555050565b612c1e615a95565b612c26615ab7565b612c2e615ab7565b612c36615ab7565b600060206000878152602001908152602001600020600480602002604051908101604052809291906000905b82821015612cfe578382600402016040518060800160405290816000820160009054906101000a900473ffffffffffffffffffffffffffffffffffffffff1673ffffffffffffffffffffffffffffffffffffffff1673ffffffffffffffffffffffffffffffffffffffff168152602001600182015481526020016002820154815260200160038201548152505081526020019060010190612c62565b50505050905060005b6004811015612df357818160048110612d1c57fe5b602002015160000151868260048110612d3157fe5b602002019073ffffffffffffffffffffffffffffffffffffffff16908173ffffffffffffffffffffffffffffffffffffffff1681525050818160048110612d7457fe5b602002015160200151858260048110612d8957fe5b602002018181525050818160048110612d9e57fe5b602002015160400151848260048110612db357fe5b602002018181525050818160048110612dc857fe5b602002015160600151838260048110612ddd57fe5b6020020181815250508080600101915050612d07565b50509193509193565b60055481565b60045481565b60095481565b60226020528060005260406000206000915054906101000a900460ff1681565b60115481565b6000839050612e5b604051806060016040528060268152602001615e586026913985613e2d565b60005b6012811015612ef95780831115612eaf57612ea882612e9a6103e8612e8c8887613cfc90919063ffffffff16565b6154ee90919063ffffffff16565b61557790919063ffffffff16565b9150612eec565b612ee982612edb6103e8612ecd600087613cfc90919063ffffffff16565b6154ee90919063ffffffff16565b61557790919063ffffffff16565b91505b8080600101915050612e5e565b50612f0d8482613daa90919063ffffffff16565b9050612f31604051806060016040528060308152602001615d716030913982613e2d565b9392505050565b600f5481565b601d5481565b600080602360003373ffffffffffffffffffffffffffffffffffffffff1673ffffffffffffffffffffffffffffffffffffffff168152602001908152602001600020604051806101600160405290816000820160009054906101000a900460ff161515151581526020016000820160019054906101000a900473ffffffffffffffffffffffffffffffffffffffff1673ffffffffffffffffffffffffffffffffffffffff1673ffffffffffffffffffffffffffffffffffffffff16815260200160018201548152602001600282015481526020016003820154815260200160048201548152602001600582015481526020016006820154815260200160078201548152602001600882018054806020026020016040519081016040528092919081815260200182805480156130ce57602002820191906000526020600020905b8160009054906101000a900473ffffffffffffffffffffffffffffffffffffffff1673ffffffffffffffffffffffffffffffffffffffff1681526020019060010190808311613084575b5050505050815260200160098201805480602002602001604051908101604052809291908181526020016000905b82821015613190578382906000526020600020906008020160405180610100016040529081600082015481526020016001820154815260200160028201548152602001600382015481526020016004820154815260200160058201548152602001600682015481526020016007820160009054906101000a900460ff161515151581525050815260200190600101906130fc565b505050508152505090508060a0015191506131a9615ad9565b60005b826101400151518110156134055782610140015181815181106131cb57fe5b602002602001015191506132146040518060400160405280601681526020017f6920696e20676574616d6f756e742d2d2d2d2d2d2d2d0000000000000000000081525082613e2d565b81602001518360c001511115613229576133f8565b60028260c001511115613265578160200151421015613247576133f8565b61325e82606001518561557790919063ffffffff16565b93506133f7565b60006132966132836017548560800151613cfc90919063ffffffff16565b84606001516154ee90919063ffffffff16565b905060006132b58560c00151856000015161571c90919063ffffffff16565b905060006132d042866020015161573690919063ffffffff16565b90506133116040518060400160405280601781526020017f7261746520696e20676574616d6f756e742d2d2d2d2d2d00000000000000000081525084613e2d565b6133506040518060400160405280601881526020017f737461727420696e20676574616d6f756e742d2d2d2d2d2d000000000000000081525083613e2d565b61338f6040518060400160405280601681526020017f656e6420696e20676574616d6f756e742d2d2d2d2d2d0000000000000000000081525082613e2d565b808210156133f3576133ce6133bf846133b18585613daa90919063ffffffff16565b613cfc90919063ffffffff16565b8861557790919063ffffffff16565b96506133f2604051806060016040528060258152602001615c646025913988613e2d565b5b5050505b5b80806001019150506131ac565b50505090565b60608060608060608060606000602360003373ffffffffffffffffffffffffffffffffffffffff1673ffffffffffffffffffffffffffffffffffffffff168152602001908152602001600020600901805480602002602001604051908101604052809291908181526020016000905b8282101561350e578382906000526020600020906008020160405180610100016040529081600082015481526020016001820154815260200160028201548152602001600382015481526020016004820154815260200160058201548152602001600682015481526020016007820160009054906101000a900460ff1615151515815250508152602001906001019061347a565b505050509050805167ffffffffffffffff8111801561352c57600080fd5b5060405190808252806020026020018201604052801561355b5781602001602082028036833780820191505090505b509750805167ffffffffffffffff8111801561357657600080fd5b506040519080825280602002602001820160405280156135a55781602001602082028036833780820191505090505b509650805167ffffffffffffffff811180156135c057600080fd5b506040519080825280602002602001820160405280156135ef5781602001602082028036833780820191505090505b509550805167ffffffffffffffff8111801561360a57600080fd5b506040519080825280602002602001820160405280156136395781602001602082028036833780820191505090505b509450805167ffffffffffffffff8111801561365457600080fd5b506040519080825280602002602001820160405280156136835781602001602082028036833780820191505090505b509350805167ffffffffffffffff8111801561369e57600080fd5b506040519080825280602002602001820160405280156136cd5781602001602082028036833780820191505090505b509250805167ffffffffffffffff811180156136e857600080fd5b506040519080825280602002602001820160405280156137175781602001602082028036833780820191505090505b50915060005b81518110156138895781818151811061373257fe5b60200260200101516020015189828151811061374a57fe5b60200260200101818152505081818151811061376257fe5b60200260200101516000015188828151811061377a57fe5b60200260200101818152505081818151811061379257fe5b6020026020010151604001518782815181106137aa57fe5b6020026020010181815250508181815181106137c257fe5b6020026020010151606001518682815181106137da57fe5b6020026020010181815250508181815181106137f257fe5b602002602001015160a0015185828151811061380a57fe5b60200260200101818152505081818151811061382257fe5b602002602001015160c0015184828151811061383a57fe5b60200260200101818152505081818151811061385257fe5b602002602001015160e0015183828151811061386a57fe5b602002602001019015159081151581525050808060010191505061371d565b505090919293949596565b6000806000600185141561392957600b5492506138c9604051806060016040528060278152602001615c176027913984613e2d565b6138d1612929565b91506138f5604051806060016040528060278152602001615bf06027913983613e2d565b613900848385612e34565b90506139246040518060600160405280602b8152602001615b23602b913982613e2d565b613b11565b60028514156139cc57600c549250613959604051806060016040528060278152602001615c896027913984613e2d565b613974600a61396661574f565b613cfc90919063ffffffff16565b9150613998604051806060016040528060278152602001615d4a6027913983613e2d565b6139a3848385612e34565b90506139c76040518060600160405280602b8152602001615b74602b913982613e2d565b613b10565b6003851415613a6f57600d5492506139fc604051806060016040528060278152602001615bc96027913984613e2d565b613a17600a613a0961574f565b613cfc90919063ffffffff16565b9150613a3b604051806060016040528060278152602001615cb06027913983613e2d565b613a46848385612082565b9050613a6a6040518060600160405280602b8152602001615e03602b913982613e2d565b613b0f565b6004851415613b0e57600e549250613a9f604051806060016040528060278152602001615cd76027913984613e2d565b613aba600a613aac61574f565b613cfc90919063ffffffff16565b9150613ade604051806060016040528060278152602001615ddc6027913983613e2d565b613ae9848385612082565b9050613b0d6040518060600160405280602b8152602001615d1f602b913982613e2d565b5b5b5b5b9250925092565b601660009054906101000a900473ffffffffffffffffffffffffffffffffffffffff1673ffffffffffffffffffffffffffffffffffffffff163373ffffffffffffffffffffffffffffffffffffffff1614613b7257600080fd5b8060088190555050565b60125481565b600c5481565b600d5481565b601660009054906101000a900473ffffffffffffffffffffffffffffffffffffffff1673ffffffffffffffffffffffffffffffffffffffff163373ffffffffffffffffffffffffffffffffffffffff1614613be857600080fd5b80600a8190555050565b601660009054906101000a900473ffffffffffffffffffffffffffffffffffffffff1673ffffffffffffffffffffffffffffffffffffffff163373ffffffffffffffffffffffffffffffffffffffff1614613c4c57600080fd5b80600d8190555050565b600a5481565b601660009054906101000a900473ffffffffffffffffffffffffffffffffffffffff1673ffffffffffffffffffffffffffffffffffffffff163373ffffffffffffffffffffffffffffffffffffffff1614613cb657600080fd5b8060128190555050565b600b5481565b600080613cde60015442613d8290919063ffffffff16565b915050613cf6601854826154ee90919063ffffffff16565b91505090565b600080831415613d0f5760009050613d7c565b6000828402905082848281613d2057fe5b0414613d77576040517f08c379a0000000000000000000000000000000000000000000000000000000008152600401808060200182810382526021815260200180615cfe6021913960400191505060405180910390fd5b809150505b92915050565b60008083831115613d995760008091509150613da3565b6001838503915091505b9250929050565b600082821115613e22576040517f08c379a000000000000000000000000000000000000000000000000000000000815260040180806020018281038252601e8152602001807f536166654d6174683a207375627472616374696f6e206f766572666c6f77000081525060200191505060405180910390fd5b818303905092915050565b613f3082826040516024018080602001838152602001828103825284818151815260200191508051906020019080838360005b83811015613e7b578082015181840152602081019050613e60565b50505050905090810190601f168015613ea85780820380516001836020036101000a031916815260200191505b5093505050506040516020818303038152906040527fb60e72cc000000000000000000000000000000000000000000000000000000007bffffffffffffffffffffffffffffffffffffffffffffffffffffffff19166020820180517bffffffffffffffffffffffffffffffffffffffffffffffffffffffff83818316178352505050506157a8565b5050565b60008060008054906101000a900473ffffffffffffffffffffffffffffffffffffffff1690508073ffffffffffffffffffffffffffffffffffffffff166323b872dd8686866040518463ffffffff1660e01b8152600401808473ffffffffffffffffffffffffffffffffffffffff1681526020018373ffffffffffffffffffffffffffffffffffffffff1681526020018281526020019350505050602060405180830381600087803b158015613fe957600080fd5b505af1158015613ffd573d6000803e3d6000fd5b505050506040513d602081101561401357600080fd5b81019080805190602001909291905050509150509392505050565b61404f604051806060016040528060218152602001615e7e602191396157c2565b61408e6040518060400160405280601281526020017f72656665727265722d2d2d2d2d2d2d2d2d2d0000000000000000000000000000815250826155ff565b602360003373ffffffffffffffffffffffffffffffffffffffff1673ffffffffffffffffffffffffffffffffffffffff16815260200190815260200160002060000160009054906101000a900460ff16156140e857614445565b6001602360003373ffffffffffffffffffffffffffffffffffffffff1673ffffffffffffffffffffffffffffffffffffffff16815260200190815260200160002060000160006101000a81548160ff0219169083151502179055503373ffffffffffffffffffffffffffffffffffffffff168173ffffffffffffffffffffffffffffffffffffffff1614806141ca5750602360008273ffffffffffffffffffffffffffffffffffffffff1673ffffffffffffffffffffffffffffffffffffffff16815260200190815260200160002060000160009054906101000a900460ff16155b156141f557601560009054906101000a900473ffffffffffffffffffffffffffffffffffffffff1690505b80602360003373ffffffffffffffffffffffffffffffffffffffff1673ffffffffffffffffffffffffffffffffffffffff16815260200190815260200160002060000160016101000a81548173ffffffffffffffffffffffffffffffffffffffff021916908373ffffffffffffffffffffffffffffffffffffffff160217905550602360008273ffffffffffffffffffffffffffffffffffffffff1673ffffffffffffffffffffffffffffffffffffffff168152602001908152602001600020600801339080600181540180825580915050600190039060005260206000200160009091909190916101000a81548173ffffffffffffffffffffffffffffffffffffffff021916908373ffffffffffffffffffffffffffffffffffffffff16021790555060005b600381101561444357602360008373ffffffffffffffffffffffffffffffffffffffff1673ffffffffffffffffffffffffffffffffffffffff16815260200190815260200160002060060160008154809291906001019190505550602360008373ffffffffffffffffffffffffffffffffffffffff1673ffffffffffffffffffffffffffffffffffffffff16815260200190815260200160002060000160019054906101000a900473ffffffffffffffffffffffffffffffffffffffff169150602360008373ffffffffffffffffffffffffffffffffffffffff1673ffffffffffffffffffffffffffffffffffffffff16815260200190815260200160002060000160009054906101000a900460ff166144365750614445565b808060010191505061431c565b505b50565b6000602360003373ffffffffffffffffffffffffffffffffffffffff1673ffffffffffffffffffffffffffffffffffffffff1681526020019081526020016000209050600083905082156144c0576144bd60646144af606687613cfc90919063ffffffff16565b6154ee90919063ffffffff16565b90505b60008060006144cf8885613894565b92509250925060006144fe426144f086601754613cfc90919063ffffffff16565b61557790919063ffffffff16565b905061453f6040518060400160405280601a81526020017f7261746520616464496e766573746d656e742d2d2d2d2d2d2d2d00000000000081525084613e2d565b61457e6040518060400160405280601381526020017f7261746520696e636f6d652d2d2d2d2d2d2d2d0000000000000000000000000081525089613e2d565b6145a0604051806060016040528060248152602001615e9f6024913983613e2d565b6145df6040518060400160405280601e81526020017f706572696f6420616464496e766573746d656e742d2d2d2d2d2d2d2d2d2d000081525085613e2d565b61461e6040518060400160405280601d81526020017f66696e69736820616464496e766573746d656e742d2d2d2d2d2d2d2d2d00000081525082613e2d565b60008411156151605761467a601360009054906101000a900473ffffffffffffffffffffffffffffffffffffffff166146756103e861466760468d613cfc90919063ffffffff16565b6154ee90919063ffffffff16565b615413565b6146ec576040517f08c379a000000000000000000000000000000000000000000000000000000000815260040180806020018281038252601c8152602001807f546f6b656e207472616e7366657220746f20646576206661696c65640000000081525060200191505060405180910390fd5b61473f601460009054906101000a900473ffffffffffffffffffffffffffffffffffffffff1661473a6103e861472c60468d613cfc90919063ffffffff16565b6154ee90919063ffffffff16565b615413565b6147b1576040517f08c379a000000000000000000000000000000000000000000000000000000000815260040180806020018281038252601b8152602001807f546f6b656e207472616e7366657220746f206164206661696c6564000000000081525060200191505060405180910390fd5b6147c860195460015461557790919063ffffffff16565b4211156148d85761480a6147f960646147eb60538c613cfc90919063ffffffff16565b6154ee90919063ffffffff16565b60035461557790919063ffffffff16565b60038190555061484b61483a606461482c60038c613cfc90919063ffffffff16565b6154ee90919063ffffffff16565b60045461557790919063ffffffff16565b6004819055506148926040518060400160405280600c81526020017f696620706f6f6c2d2d2d2d2d0000000000000000000000000000000000000000815250600354613e2d565b6148d36040518060400160405280601381526020017f69662072616e6b20706f6f6c2d2d2d2d2d2d2d00000000000000000000000000815250600454613e2d565b6149dd565b61491361490260646148f460548c613cfc90919063ffffffff16565b6154ee90919063ffffffff16565b60035461557790919063ffffffff16565b600381905550614954614943606461493560028c613cfc90919063ffffffff16565b6154ee90919063ffffffff16565b60045461557790919063ffffffff16565b60048190555061499b6040518060400160405280600e81526020017f656c736520706f6f6c2d2d2d2d2d000000000000000000000000000000000000815250600354613e2d565b6149dc6040518060400160405280601581526020017f656c73652072616e6b20706f6f6c2d2d2d2d2d2d2d0000000000000000000000815250600454613e2d565b5b6149f28860025461557790919063ffffffff16565b600281905550614a396040518060400160405280600981526020017f746f74616c2d2d2d2d0000000000000000000000000000000000000000000000815250600254613e2d565b614a5088876002015461557790919063ffffffff16565b866002018190555060008660000160019054906101000a900473ffffffffffffffffffffffffffffffffffffffff1690506000614a8b612105565b9050614acc6040518060400160405280600f81526020017f72616e6b20696e6465782d2d2d2d2d000000000000000000000000000000000081525082613e2d565b60005b6003811015614f8e57602360008473ffffffffffffffffffffffffffffffffffffffff1673ffffffffffffffffffffffffffffffffffffffff16815260200190815260200160002060000160009054906101000a900460ff16614b3157614f8e565b614b706040518060400160405280601581526020017f696e6465782061667465723d3d3d3d3d3d3d3d3d3d000000000000000000000081525082613e2d565b6000614baf6064614ba1601b8581548110614b8757fe5b90600052602060002001548f613cfc90919063ffffffff16565b6154ee90919063ffffffff16565b9050614bf06040518060400160405280601981526020017f72657761726420696e7369646520696e766573743d3d3d3d3d0000000000000081525082613e2d565b614c4581602360008773ffffffffffffffffffffffffffffffffffffffff1673ffffffffffffffffffffffffffffffffffffffff1681526020019081526020016000206001015461557790919063ffffffff16565b602360008673ffffffffffffffffffffffffffffffffffffffff1673ffffffffffffffffffffffffffffffffffffffff16815260200190815260200160002060010181905550614ce081602360008773ffffffffffffffffffffffffffffffffffffffff1673ffffffffffffffffffffffffffffffffffffffff1681526020019081526020016000206004015461557790919063ffffffff16565b602360008673ffffffffffffffffffffffffffffffffffffffff1673ffffffffffffffffffffffffffffffffffffffff16815260200190815260200160002060040181905550614d7b8c602360008773ffffffffffffffffffffffffffffffffffffffff1673ffffffffffffffffffffffffffffffffffffffff1681526020019081526020016000206007015461557790919063ffffffff16565b602360008673ffffffffffffffffffffffffffffffffffffffff1673ffffffffffffffffffffffffffffffffffffffff168152602001908152602001600020600701819055506000821415614edc57614e2d8c6021600086815260200190815260200160002060008773ffffffffffffffffffffffffffffffffffffffff1673ffffffffffffffffffffffffffffffffffffffff1681526020019081526020016000205461557790919063ffffffff16565b6021600085815260200190815260200160002060008673ffffffffffffffffffffffffffffffffffffffff1673ffffffffffffffffffffffffffffffffffffffff16815260200190815260200160002081905550614edb846021600086815260200190815260200160002060008773ffffffffffffffffffffffffffffffffffffffff1673ffffffffffffffffffffffffffffffffffffffff168152602001908152602001600020546158c0565b5b602360008573ffffffffffffffffffffffffffffffffffffffff1673ffffffffffffffffffffffffffffffffffffffff16815260200190815260200160002060000160019054906101000a900473ffffffffffffffffffffffffffffffffffffffff169350614f806040518060400160405280601e81526020017f696e766573746d656e742072656665727265722d2d2d2d2d2d2d2d2d2d2d0000815250856155ff565b508080600101915050614acf565b50876009016040518061010001604052804281526020018581526020018981526020018681526020018881526020018781526020018d81526020018b15158152509080600181540180825580915050600190039060005260206000209060080201600090919091909150600082015181600001556020820151816001015560408201518160020155606082015181600301556080820151816004015560a0820151816005015560c0820151816006015560e08201518160070160006101000a81548160ff021916908315150217905550505060006006541480615072575042600654115b1561515d57601c60405180608001604052803373ffffffffffffffffffffffffffffffffffffffff1681526020018c81526020016000815260200142815250908060018154018082558091505060019003906000526020600020906004020160009091909190915060008201518160000160006101000a81548173ffffffffffffffffffffffffffffffffffffffff021916908373ffffffffffffffffffffffffffffffffffffffff1602179055506020820151816001015560408201518160020155606082015181600301555050601d60008154809291906001019190505550601d54601e819055505b50505b505050505050505050565b600080615176612f44565b90506151b76040518060400160405280601d81526020017f696e636f6d6520696e20757064617465207265776172642d2d2d2d2d2d00000081525082613e2d565b6151f86040518060400160405280601981526020017f706f6f6c207570646174657265776172642d2d2d2d2d2d2d2d00000000000000815250600354613e2d565b6000602360003373ffffffffffffffffffffffffffffffffffffffff1673ffffffffffffffffffffffffffffffffffffffff1681526020019081526020016000209050600084148061524957508184115b15615252578193505b6003548411156152625760035493505b600084116152d8576040517f08c379a000000000000000000000000000000000000000000000000000000000815260040180806020018281038252600c8152602001807f4572726f7220616d6f756e74000000000000000000000000000000000000000081525060200191505060405180910390fd5b6152eb8483613daa90919063ffffffff16565b816004018190555061530a84826003015461557790919063ffffffff16565b816003018190555042816005018190555061533084600354613daa90919063ffffffff16565b6003819055506000600654148015615370575061536d61535c6002601754613cfc90919063ffffffff16565b60015461557790919063ffffffff16565b42115b80156153855750601a54600a0a600a02600354105b156153a65761539f6017544261557790919063ffffffff16565b6006819055505b6153ca604051806060016040528060268152602001615c3e60269139600654613e2d565b6154096040518060400160405280601d81526020017f616d6f756e7420696e20757064617465207265776172642d2d2d2d2d2d00000081525085613e2d565b8392505050919050565b60008060008054906101000a900473ffffffffffffffffffffffffffffffffffffffff1690508073ffffffffffffffffffffffffffffffffffffffff1663a9059cbb85856040518363ffffffff1660e01b8152600401808373ffffffffffffffffffffffffffffffffffffffff16815260200182815260200192505050602060405180830381600087803b1580156154aa57600080fd5b505af11580156154be573d6000803e3d6000fd5b505050506040513d60208110156154d457600080fd5b810190808051906020019092919050505091505092915050565b6000808211615565576040517f08c379a000000000000000000000000000000000000000000000000000000000815260040180806020018281038252601a8152602001807f536166654d6174683a206469766973696f6e206279207a65726f00000000000081525060200191505060405180910390fd5b81838161556e57fe5b04905092915050565b6000808284019050838110156155f5576040517f08c379a000000000000000000000000000000000000000000000000000000000815260040180806020018281038252601b8152602001807f536166654d6174683a206164646974696f6e206f766572666c6f77000000000081525060200191505060405180910390fd5b8091505092915050565b615718828260405160240180806020018373ffffffffffffffffffffffffffffffffffffffff168152602001828103825284818151815260200191508051906020019080838360005b83811015615663578082015181840152602081019050615648565b50505050905090810190601f1680156156905780820380516001836020036101000a031916815260200191505b5093505050506040516020818303038152906040527f319af333000000000000000000000000000000000000000000000000000000007bffffffffffffffffffffffffffffffffffffffffffffffffffffffff19166020820180517bffffffffffffffffffffffffffffffffffffffffffffffffffffffff83818316178352505050506157a8565b5050565b60008183101561572c578161572e565b825b905092915050565b60008183106157455781615747565b825b905092915050565b6000806002546003548161575f57fe5b0490506157a16040518060400160405280601981526020017f726174696f20696e2067657420726174696f2d2d2d2d2d2d2d0000000000000081525082613e2d565b8091505090565b6157bf816157b7615a69615a8a565b63ffffffff16565b50565b6158bd816040516024018080602001828103825283818151815260200191508051906020019080838360005b838110156158095780820151818401526020810190506157ee565b50505050905090810190601f1680156158365780820380516001836020036101000a031916815260200191505b50925050506040516020818303038152906040527f41304fac000000000000000000000000000000000000000000000000000000007bffffffffffffffffffffffffffffffffffffffffffffffffffffffff19166020820180517bffffffffffffffffffffffffffffffffffffffffffffffffffffffff83818316178352505050506157a8565b50565b60006158ca612105565b905060008060008086905060005b60206000878152602001908152602001600020506004811015615a5e5760206000878152602001908152602001600020816004811061591357fe5b6004020194508460000160009054906101000a900473ffffffffffffffffffffffffffffffffffffffff1673ffffffffffffffffffffffffffffffffffffffff168873ffffffffffffffffffffffffffffffffffffffff16141561598557868560010181905550505050505050615a65565b8460010154871115615a51578460000160009054906101000a900473ffffffffffffffffffffffffffffffffffffffff16935084600101549250878560000160006101000a81548173ffffffffffffffffffffffffffffffffffffffff021916908373ffffffffffffffffffffffffffffffffffffffff1602179055508685600101819055508373ffffffffffffffffffffffffffffffffffffffff168273ffffffffffffffffffffffffffffffffffffffff161415615a4a57505050505050615a65565b8397508296505b80806001019150506158d8565b5050505050505b5050565b60006a636f6e736f6c652e6c6f679050600080835160208501845afa505050565b615b20819050919050565b6040518060800160405280600490602082028036833780820191505090505090565b6040518060800160405280600490602082028036833780820191505090505090565b604051806101000160405280600081526020016000815260200160008152602001600081526020016000815260200160008152602001600081526020016000151581525090565bfefe3120746f74616c5265776172642020696e7369646520676574706572696f64726174652d2d2d2d2d2d2d2d72616e6b20696e64657820696e206765742072616e6b20696e6465782d2d2d2d2d2d2d2d2d2d3220746f74616c5265776172642020696e7369646520676574706572696f64726174652d2d2d2d2d2d2d2d506c6561736520696e76657374206d6f7265207468616e20746865206d696e696d756d20616d6f756e743320706572696f6420696e7369646520676574706572696f64726174653d3d3d3d3d3d3d3d3d3d31207261746520696e7369646520676574706572696f64726174653d3d3d3d3d3d3d3d3d3d3d3d3120706572696f6420696e7369646520676574706572696f64726174653d3d3d3d3d3d3d3d3d3d696e737572616e63652074696d6520696e20757064617465207265776172642d2d2d2d2d2d2d616d6f756e7420696e20676574616d6f756e7420696620636f6e646974696f6e2d2d2d2d2d3220706572696f6420696e7369646520676574706572696f64726174653d3d3d3d3d3d3d3d3d3d33207261746520696e7369646520676574706572696f64726174653d3d3d3d3d3d3d3d3d3d3d3d3420706572696f6420696e7369646520676574706572696f64726174653d3d3d3d3d3d3d3d3d3d536166654d6174683a206d756c7469706c69636174696f6e206f766572666c6f773420746f74616c5265776172642020696e7369646520676574706572696f64726174652d2d2d2d2d2d2d2d32207261746520696e7369646520676574706572696f64726174653d3d3d3d3d3d3d3d3d3d3d3d72657761726420696e7369646520636f6d706f756e642063616c63756c6174652066756e6374696f6e202d2d2d2d2d2d43616e6e6f74207769746864726177207072696e636970616c206265666f72652074686520696e766573746d656e7420706572696f6420656e647334207261746520696e7369646520676574706572696f64726174653d3d3d3d3d3d3d3d3d3d3d3d3320746f74616c5265776172642020696e7369646520676574706572696f64726174652d2d2d2d2d2d2d2d506c6561736520696e76657374206c657373207468616e20746865206d6178696d756d20616d6f756e74696e636f6d6520696e736964652063616c63756c6174652066756e6374696f6e2d2d2d2d2d2d696e736964652062696e642072656c6174696f6e736869702d2d2d2d2d2d2d2d2d746f74616c52657761726420616464496e766573746d656e742d2d2d2d2d2d2d2d2d2d2d696e737572616e636520706f6f6c20696e2077697468647261772d2d2d2d2d2d2d2d2da2646970667358221220af68d0d478816c0cccd98e6d206a4426402c315ecbdc3c3027a358b479aa3ae664736f6c63430007060033536166654d6174683a206d756c7469706c69636174696f6e206f766572666c6f77",
  "linkReferences": {},
  "deployedLinkReferences": {}
}