{
  "_format": "hh-sol-artifact-1",
  "contractName": "YieldGivers",
  "sourceName": "contracts/YieldGivers.sol",
  "abi": [
    {
      "inputs": [
        {
          "internalType": "address",
          "name": "_tokenAddress",
          "type": "address"
        },
        {
          "internalType": "address payable",
          "name": "dev_",
          "type": "address"
        },
        {
          "internalType": "address payable",
          "name": "ad_",
          "type": "address"
        },
        {
          "internalType": "address payable",
          "name": "team_",
          "type": "address"
        },
        {
          "internalType": "uint256",
          "name": "startTime_",
          "type": "uint256"
        },
        {
          "internalType": "uint256",
          "name": "rankTime_",
          "type": "uint256"
        }
      ],
      "stateMutability": "nonpayable",
      "type": "constructor"
    },
    {
      "anonymous": false,
      "inputs": [
        {
          "indexed": true,
          "internalType": "address",
          "name": "user",
          "type": "address"
        },
        {
          "indexed": false,
          "internalType": "uint256",
          "name": "amount",
          "type": "uint256"
        }
      ],
      "name": "Insurance",
      "type": "event"
    },
    {
      "anonymous": false,
      "inputs": [
        {
          "indexed": true,
          "internalType": "address",
          "name": "user",
          "type": "address"
        },
        {
          "indexed": false,
          "internalType": "uint256",
          "name": "amount",
          "type": "uint256"
        }
      ],
      "name": "Rank",
      "type": "event"
    },
    {
      "anonymous": false,
      "inputs": [
        {
          "indexed": true,
          "internalType": "address",
          "name": "user",
          "type": "address"
        },
        {
          "indexed": false,
          "internalType": "uint256",
          "name": "amount",
          "type": "uint256"
        }
      ],
      "name": "Retake",
      "type": "event"
    },
    {
      "anonymous": false,
      "inputs": [
        {
          "indexed": true,
          "internalType": "address",
          "name": "user",
          "type": "address"
        },
        {
          "indexed": false,
          "internalType": "uint256",
          "name": "amount",
          "type": "uint256"
        }
      ],
      "name": "Stake",
      "type": "event"
    },
    {
      "anonymous": false,
      "inputs": [
        {
          "indexed": true,
          "internalType": "address",
          "name": "user",
          "type": "address"
        },
        {
          "indexed": false,
          "internalType": "uint256",
          "name": "amount",
          "type": "uint256"
        }
      ],
      "name": "Withdraw",
      "type": "event"
    },
    {
      "anonymous": false,
      "inputs": [
        {
          "indexed": true,
          "internalType": "address",
          "name": "user",
          "type": "address"
        },
        {
          "indexed": false,
          "internalType": "uint256",
          "name": "amount",
          "type": "uint256"
        }
      ],
      "name": "WithdrawPrincipal",
      "type": "event"
    },
    {
      "inputs": [],
      "name": "ad",
      "outputs": [
        {
          "internalType": "address payable",
          "name": "",
          "type": "address"
        }
      ],
      "stateMutability": "view",
      "type": "function"
    },
    {
      "inputs": [
        {
          "internalType": "uint256",
          "name": "income",
          "type": "uint256"
        },
        {
          "internalType": "uint256",
          "name": "rate",
          "type": "uint256"
        },
        {
          "internalType": "uint256",
          "name": "period",
          "type": "uint256"
        }
      ],
      "name": "calcReward",
      "outputs": [
        {
          "internalType": "uint256",
          "name": "reward",
          "type": "uint256"
        }
      ],
      "stateMutability": "pure",
      "type": "function"
    },
    {
      "inputs": [
        {
          "internalType": "uint256",
          "name": "income",
          "type": "uint256"
        },
        {
          "internalType": "uint256",
          "name": "rate",
          "type": "uint256"
        },
        {
          "internalType": "uint256",
          "name": "period",
          "type": "uint256"
        }
      ],
      "name": "calcRewardCompound",
      "outputs": [
        {
          "internalType": "uint256",
          "name": "reward",
          "type": "uint256"
        }
      ],
      "stateMutability": "pure",
      "type": "function"
    },
    {
      "inputs": [],
      "name": "dev",
      "outputs": [
        {
          "internalType": "address payable",
          "name": "",
          "type": "address"
        }
      ],
      "stateMutability": "view",
      "type": "function"
    },
    {
      "inputs": [],
      "name": "getAmount",
      "outputs": [
        {
          "internalType": "uint256",
          "name": "amount",
          "type": "uint256"
        }
      ],
      "stateMutability": "view",
      "type": "function"
    },
    {
      "inputs": [],
      "name": "getIncreasePct",
      "outputs": [
        {
          "internalType": "uint256",
          "name": "increasePct",
          "type": "uint256"
        }
      ],
      "stateMutability": "view",
      "type": "function"
    },
    {
      "inputs": [],
      "name": "getInfo",
      "outputs": [
        {
          "internalType": "uint256",
          "name": "",
          "type": "uint256"
        },
        {
          "internalType": "uint256",
          "name": "",
          "type": "uint256"
        },
        {
          "internalType": "uint256",
          "name": "",
          "type": "uint256"
        },
        {
          "internalType": "uint256",
          "name": "",
          "type": "uint256"
        },
        {
          "internalType": "uint256",
          "name": "",
          "type": "uint256"
        },
        {
          "internalType": "uint256",
          "name": "",
          "type": "uint256"
        },
        {
          "internalType": "uint256",
          "name": "",
          "type": "uint256"
        }
      ],
      "stateMutability": "view",
      "type": "function"
    },
    {
      "inputs": [
        {
          "internalType": "uint256",
          "name": "length",
          "type": "uint256"
        }
      ],
      "name": "getInsurances",
      "outputs": [
        {
          "internalType": "address[]",
          "name": "addresses",
          "type": "address[]"
        },
        {
          "internalType": "uint256[]",
          "name": "values",
          "type": "uint256[]"
        },
        {
          "internalType": "uint256[]",
          "name": "rewards",
          "type": "uint256[]"
        },
        {
          "internalType": "uint256[]",
          "name": "times",
          "type": "uint256[]"
        }
      ],
      "stateMutability": "view",
      "type": "function"
    },
    {
      "inputs": [],
      "name": "getInvestments",
      "outputs": [
        {
          "internalType": "uint256[]",
          "name": "times",
          "type": "uint256[]"
        },
        {
          "internalType": "uint256[]",
          "name": "starts",
          "type": "uint256[]"
        },
        {
          "internalType": "uint256[]",
          "name": "values",
          "type": "uint256[]"
        },
        {
          "internalType": "uint256[]",
          "name": "totalRewards",
          "type": "uint256[]"
        },
        {
          "internalType": "uint256[]",
          "name": "rates",
          "type": "uint256[]"
        },
        {
          "internalType": "uint256[]",
          "name": "typeNums",
          "type": "uint256[]"
        },
        {
          "internalType": "bool[]",
          "name": "isReStakes",
          "type": "bool[]"
        }
      ],
      "stateMutability": "view",
      "type": "function"
    },
    {
      "inputs": [],
      "name": "getInvestmentsEx",
      "outputs": [
        {
          "internalType": "uint256[]",
          "name": "periods",
          "type": "uint256[]"
        }
      ],
      "stateMutability": "view",
      "type": "function"
    },
    {
      "inputs": [
        {
          "internalType": "uint256",
          "name": "typeNum",
          "type": "uint256"
        },
        {
          "internalType": "uint256",
          "name": "income",
          "type": "uint256"
        }
      ],
      "name": "getPeriodAndRate",
      "outputs": [
        {
          "internalType": "uint256",
          "name": "period",
          "type": "uint256"
        },
        {
          "internalType": "uint256",
          "name": "rate",
          "type": "uint256"
        },
        {
          "internalType": "uint256",
          "name": "totalReward",
          "type": "uint256"
        }
      ],
      "stateMutability": "view",
      "type": "function"
    },
    {
      "inputs": [],
      "name": "getPlanFourRate",
      "outputs": [
        {
          "internalType": "uint256",
          "name": "planFourPct",
          "type": "uint256"
        }
      ],
      "stateMutability": "view",
      "type": "function"
    },
    {
      "inputs": [],
      "name": "getPlanOneRate",
      "outputs": [
        {
          "internalType": "uint256",
          "name": "planOnePct",
          "type": "uint256"
        }
      ],
      "stateMutability": "view",
      "type": "function"
    },
    {
      "inputs": [],
      "name": "getPlanThreeRate",
      "outputs": [
        {
          "internalType": "uint256",
          "name": "planThreePct",
          "type": "uint256"
        }
      ],
      "stateMutability": "view",
      "type": "function"
    },
    {
      "inputs": [],
      "name": "getPlanTwoRate",
      "outputs": [
        {
          "internalType": "uint256",
          "name": "planTwoPct",
          "type": "uint256"
        }
      ],
      "stateMutability": "view",
      "type": "function"
    },
    {
      "inputs": [
        {
          "internalType": "uint256",
          "name": "typeNum",
          "type": "uint256"
        }
      ],
      "name": "getPoolMinMax",
      "outputs": [
        {
          "internalType": "uint256",
          "name": "",
          "type": "uint256"
        },
        {
          "internalType": "uint256",
          "name": "",
          "type": "uint256"
        }
      ],
      "stateMutability": "view",
      "type": "function"
    },
    {
      "inputs": [],
      "name": "getRankIndex",
      "outputs": [
        {
          "internalType": "uint256",
          "name": "index",
          "type": "uint256"
        }
      ],
      "stateMutability": "view",
      "type": "function"
    },
    {
      "inputs": [
        {
          "internalType": "uint256",
          "name": "index",
          "type": "uint256"
        }
      ],
      "name": "getRanks",
      "outputs": [
        {
          "internalType": "address[4]",
          "name": "addresses",
          "type": "address[4]"
        },
        {
          "internalType": "uint256[4]",
          "name": "values",
          "type": "uint256[4]"
        },
        {
          "internalType": "uint256[4]",
          "name": "rewards",
          "type": "uint256[4]"
        },
        {
          "internalType": "uint256[4]",
          "name": "times",
          "type": "uint256[4]"
        }
      ],
      "stateMutability": "view",
      "type": "function"
    },
    {
      "inputs": [],
      "name": "getTokenBalance",
      "outputs": [
        {
          "internalType": "uint256",
          "name": "",
          "type": "uint256"
        }
      ],
      "stateMutability": "view",
      "type": "function"
    },
    {
      "inputs": [],
      "name": "insuranceIndex",
      "outputs": [
        {
          "internalType": "uint256",
          "name": "",
          "type": "uint256"
        }
      ],
      "stateMutability": "view",
      "type": "function"
    },
    {
      "inputs": [],
      "name": "insurancePool",
      "outputs": [
        {
          "internalType": "uint256",
          "name": "",
          "type": "uint256"
        }
      ],
      "stateMutability": "view",
      "type": "function"
    },
    {
      "inputs": [],
      "name": "insuranceRewardIndex",
      "outputs": [
        {
          "internalType": "uint256",
          "name": "",
          "type": "uint256"
        }
      ],
      "stateMutability": "view",
      "type": "function"
    },
    {
      "inputs": [],
      "name": "insuranceTime",
      "outputs": [
        {
          "internalType": "uint256",
          "name": "",
          "type": "uint256"
        }
      ],
      "stateMutability": "view",
      "type": "function"
    },
    {
      "inputs": [
        {
          "internalType": "uint256",
          "name": "",
          "type": "uint256"
        }
      ],
      "name": "insurances",
      "outputs": [
        {
          "internalType": "address",
          "name": "addr",
          "type": "address"
        },
        {
          "internalType": "uint256",
          "name": "value",
          "type": "uint256"
        },
        {
          "internalType": "uint256",
          "name": "reward",
          "type": "uint256"
        },
        {
          "internalType": "uint256",
          "name": "time",
          "type": "uint256"
        }
      ],
      "stateMutability": "view",
      "type": "function"
    },
    {
      "inputs": [],
      "name": "maxInvestAmount",
      "outputs": [
        {
          "internalType": "uint256",
          "name": "",
          "type": "uint256"
        }
      ],
      "stateMutability": "view",
      "type": "function"
    },
    {
      "inputs": [],
      "name": "minInvestAmount",
      "outputs": [
        {
          "internalType": "uint256",
          "name": "",
          "type": "uint256"
        }
      ],
      "stateMutability": "view",
      "type": "function"
    },
    {
      "inputs": [],
      "name": "owner",
      "outputs": [
        {
          "internalType": "address",
          "name": "",
          "type": "address"
        }
      ],
      "stateMutability": "view",
      "type": "function"
    },
    {
      "inputs": [],
      "name": "percentMultiplier",
      "outputs": [
        {
          "internalType": "uint256",
          "name": "",
          "type": "uint256"
        }
      ],
      "stateMutability": "view",
      "type": "function"
    },
    {
      "inputs": [],
      "name": "planFourDays",
      "outputs": [
        {
          "internalType": "uint256",
          "name": "",
          "type": "uint256"
        }
      ],
      "stateMutability": "view",
      "type": "function"
    },
    {
      "inputs": [],
      "name": "planFourMultiplier",
      "outputs": [
        {
          "internalType": "uint256",
          "name": "",
          "type": "uint256"
        }
      ],
      "stateMutability": "view",
      "type": "function"
    },
    {
      "inputs": [
        {
          "internalType": "uint256",
          "name": "planFourPct",
          "type": "uint256"
        }
      ],
      "name": "planFourRate",
      "outputs": [],
      "stateMutability": "nonpayable",
      "type": "function"
    },
    {
      "inputs": [],
      "name": "planOneDays",
      "outputs": [
        {
          "internalType": "uint256",
          "name": "",
          "type": "uint256"
        }
      ],
      "stateMutability": "view",
      "type": "function"
    },
    {
      "inputs": [],
      "name": "planOneMultiplier",
      "outputs": [
        {
          "internalType": "uint256",
          "name": "",
          "type": "uint256"
        }
      ],
      "stateMutability": "view",
      "type": "function"
    },
    {
      "inputs": [
        {
          "internalType": "uint256",
          "name": "planOnePct",
          "type": "uint256"
        }
      ],
      "name": "planOneRate",
      "outputs": [],
      "stateMutability": "nonpayable",
      "type": "function"
    },
    {
      "inputs": [],
      "name": "planThreeDays",
      "outputs": [
        {
          "internalType": "uint256",
          "name": "",
          "type": "uint256"
        }
      ],
      "stateMutability": "view",
      "type": "function"
    },
    {
      "inputs": [],
      "name": "planThreeMultiplier",
      "outputs": [
        {
          "internalType": "uint256",
          "name": "",
          "type": "uint256"
        }
      ],
      "stateMutability": "view",
      "type": "function"
    },
    {
      "inputs": [
        {
          "internalType": "uint256",
          "name": "planThreePct",
          "type": "uint256"
        }
      ],
      "name": "planThreeRate",
      "outputs": [],
      "stateMutability": "nonpayable",
      "type": "function"
    },
    {
      "inputs": [],
      "name": "planTwoDays",
      "outputs": [
        {
          "internalType": "uint256",
          "name": "",
          "type": "uint256"
        }
      ],
      "stateMutability": "view",
      "type": "function"
    },
    {
      "inputs": [],
      "name": "planTwoMultiplier",
      "outputs": [
        {
          "internalType": "uint256",
          "name": "",
          "type": "uint256"
        }
      ],
      "stateMutability": "view",
      "type": "function"
    },
    {
      "inputs": [
        {
          "internalType": "uint256",
          "name": "planTwoPct",
          "type": "uint256"
        }
      ],
      "name": "planTwoRate",
      "outputs": [],
      "stateMutability": "nonpayable",
      "type": "function"
    },
    {
      "inputs": [],
      "name": "pool",
      "outputs": [
        {
          "internalType": "uint256",
          "name": "",
          "type": "uint256"
        }
      ],
      "stateMutability": "view",
      "type": "function"
    },
    {
      "inputs": [
        {
          "internalType": "uint256",
          "name": "",
          "type": "uint256"
        }
      ],
      "name": "pools",
      "outputs": [
        {
          "internalType": "uint256",
          "name": "minInvestAmountPool",
          "type": "uint256"
        },
        {
          "internalType": "uint256",
          "name": "maxInvestAmountPool",
          "type": "uint256"
        }
      ],
      "stateMutability": "view",
      "type": "function"
    },
    {
      "inputs": [
        {
          "internalType": "uint256",
          "name": "",
          "type": "uint256"
        }
      ],
      "name": "rankFlag",
      "outputs": [
        {
          "internalType": "bool",
          "name": "",
          "type": "bool"
        }
      ],
      "stateMutability": "view",
      "type": "function"
    },
    {
      "inputs": [
        {
          "internalType": "uint256",
          "name": "",
          "type": "uint256"
        },
        {
          "internalType": "address",
          "name": "",
          "type": "address"
        }
      ],
      "name": "rankMap",
      "outputs": [
        {
          "internalType": "uint256",
          "name": "",
          "type": "uint256"
        }
      ],
      "stateMutability": "view",
      "type": "function"
    },
    {
      "inputs": [],
      "name": "rankPool",
      "outputs": [
        {
          "internalType": "uint256",
          "name": "",
          "type": "uint256"
        }
      ],
      "stateMutability": "view",
      "type": "function"
    },
    {
      "inputs": [],
      "name": "rankTime",
      "outputs": [
        {
          "internalType": "uint256",
          "name": "",
          "type": "uint256"
        }
      ],
      "stateMutability": "view",
      "type": "function"
    },
    {
      "inputs": [
        {
          "internalType": "uint256",
          "name": "typeNum",
          "type": "uint256"
        },
        {
          "internalType": "uint256",
          "name": "amount",
          "type": "uint256"
        }
      ],
      "name": "reStake",
      "outputs": [],
      "stateMutability": "nonpayable",
      "type": "function"
    },
    {
      "inputs": [
        {
          "internalType": "uint256",
          "name": "maxInvAmnt",
          "type": "uint256"
        }
      ],
      "name": "setMaxInvestAmount",
      "outputs": [],
      "stateMutability": "nonpayable",
      "type": "function"
    },
    {
      "inputs": [
        {
          "internalType": "uint256",
          "name": "minInvAmnt",
          "type": "uint256"
        }
      ],
      "name": "setMinInvestAmount",
      "outputs": [],
      "stateMutability": "nonpayable",
      "type": "function"
    },
    {
      "inputs": [
        {
          "internalType": "uint256",
          "name": "increasePct",
          "type": "uint256"
        }
      ],
      "name": "setPercentMultiplier",
      "outputs": [],
      "stateMutability": "nonpayable",
      "type": "function"
    },
    {
      "inputs": [
        {
          "internalType": "uint256",
          "name": "planFourPeriod",
          "type": "uint256"
        }
      ],
      "name": "setPlanFourPeriod",
      "outputs": [],
      "stateMutability": "nonpayable",
      "type": "function"
    },
    {
      "inputs": [
        {
          "internalType": "uint256",
          "name": "planOnePeriod",
          "type": "uint256"
        }
      ],
      "name": "setPlanOnePeriod",
      "outputs": [],
      "stateMutability": "nonpayable",
      "type": "function"
    },
    {
      "inputs": [
        {
          "internalType": "uint256",
          "name": "planThreePeriod",
          "type": "uint256"
        }
      ],
      "name": "setPlanThreePeriod",
      "outputs": [],
      "stateMutability": "nonpayable",
      "type": "function"
    },
    {
      "inputs": [
        {
          "internalType": "uint256",
          "name": "planTwoPeriod",
          "type": "uint256"
        }
      ],
      "name": "setPlanTwoPeriod",
      "outputs": [],
      "stateMutability": "nonpayable",
      "type": "function"
    },
    {
      "inputs": [
        {
          "internalType": "uint256",
          "name": "poolId",
          "type": "uint256"
        },
        {
          "internalType": "uint256",
          "name": "minInvestAmountPool",
          "type": "uint256"
        },
        {
          "internalType": "uint256",
          "name": "maxInvestAmountPool",
          "type": "uint256"
        }
      ],
      "name": "setPoolInvestmentLimits",
      "outputs": [],
      "stateMutability": "nonpayable",
      "type": "function"
    },
    {
      "inputs": [
        {
          "internalType": "address",
          "name": "referrer",
          "type": "address"
        },
        {
          "internalType": "uint256",
          "name": "typeNum",
          "type": "uint256"
        },
        {
          "internalType": "uint256",
          "name": "Amount",
          "type": "uint256"
        }
      ],
      "name": "stake",
      "outputs": [],
      "stateMutability": "payable",
      "type": "function"
    },
    {
      "inputs": [],
      "name": "startTime",
      "outputs": [
        {
          "internalType": "uint256",
          "name": "",
          "type": "uint256"
        }
      ],
      "stateMutability": "view",
      "type": "function"
    },
    {
      "inputs": [],
      "name": "team",
      "outputs": [
        {
          "internalType": "address payable",
          "name": "",
          "type": "address"
        }
      ],
      "stateMutability": "view",
      "type": "function"
    },
    {
      "inputs": [],
      "name": "tokenAddress",
      "outputs": [
        {
          "internalType": "address",
          "name": "",
          "type": "address"
        }
      ],
      "stateMutability": "view",
      "type": "function"
    },
    {
      "inputs": [],
      "name": "total",
      "outputs": [
        {
          "internalType": "uint256",
          "name": "",
          "type": "uint256"
        }
      ],
      "stateMutability": "view",
      "type": "function"
    },
    {
      "inputs": [
        {
          "internalType": "uint256",
          "name": "",
          "type": "uint256"
        }
      ],
      "name": "totalInvestmentByPool",
      "outputs": [
        {
          "internalType": "uint256",
          "name": "",
          "type": "uint256"
        }
      ],
      "stateMutability": "view",
      "type": "function"
    },
    {
      "inputs": [
        {
          "internalType": "address",
          "name": "",
          "type": "address"
        }
      ],
      "name": "userMap",
      "outputs": [
        {
          "internalType": "bool",
          "name": "active",
          "type": "bool"
        },
        {
          "internalType": "address",
          "name": "referrer",
          "type": "address"
        },
        {
          "internalType": "uint256",
          "name": "recommendReward",
          "type": "uint256"
        },
        {
          "internalType": "uint256",
          "name": "investment",
          "type": "uint256"
        },
        {
          "internalType": "uint256",
          "name": "totalWithdraw",
          "type": "uint256"
        },
        {
          "internalType": "uint256",
          "name": "totalReward",
          "type": "uint256"
        },
        {
          "internalType": "uint256",
          "name": "checkpoint",
          "type": "uint256"
        },
        {
          "internalType": "uint256",
          "name": "subNum",
          "type": "uint256"
        },
        {
          "internalType": "uint256",
          "name": "subStake",
          "type": "uint256"
        }
      ],
      "stateMutability": "view",
      "type": "function"
    },
    {
      "inputs": [
        {
          "internalType": "uint256",
          "name": "amount",
          "type": "uint256"
        }
      ],
      "name": "withdraw",
      "outputs": [],
      "stateMutability": "nonpayable",
      "type": "function"
    },
    {
      "inputs": [],
      "name": "withdrawContractbalance",
      "outputs": [],
      "stateMutability": "nonpayable",
      "type": "function"
    },
    {
      "inputs": [
        {
          "internalType": "uint256",
          "name": "investmentIndex",
          "type": "uint256"
        }
      ],
      "name": "withdrawPrincipal",
      "outputs": [],
      "stateMutability": "nonpayable",
      "type": "function"
    }
  ],
  "bytecode": "0x608060405233601660006101000a81548173ffffffffffffffffffffffffffffffffffffffff021916908373ffffffffffffffffffffffffffffffffffffffff160217905550620151806017556146506018556200006f6007601754620004b060201b620040c81790919060201c565b6019556012601a556040518060600160405280600360ff168152602001600260ff168152602001600160ff16815250601b906003620000b09291906200054e565b506040518060800160405280602860ff168152602001601e60ff168152602001601460ff168152602001600a60ff168152506021906004620000f4929190620005a5565b503480156200010257600080fd5b506040516200651b3803806200651b833981810160405260c08110156200012857600080fd5b810190808051906020019092919080519060200190929190805190602001909291908051906020019092919080519060200190929190805190602001909291905050506200017c856200053b60201b60201c565b15620001f0576040517f08c379a000000000000000000000000000000000000000000000000000000000815260040180806020018281038252600b8152602001807f216465764164647265737300000000000000000000000000000000000000000081525060200191505060405180910390fd5b62000201846200053b60201b60201c565b1562000275576040517f08c379a000000000000000000000000000000000000000000000000000000000815260040180806020018281038252600a8152602001807f216164416464726573730000000000000000000000000000000000000000000081525060200191505060405180910390fd5b62000286836200053b60201b60201c565b15620002fa576040517f08c379a000000000000000000000000000000000000000000000000000000000815260040180806020018281038252600c8152602001807f217465616d41646472657373000000000000000000000000000000000000000081525060200191505060405180910390fd5b856000806101000a81548173ffffffffffffffffffffffffffffffffffffffff021916908373ffffffffffffffffffffffffffffffffffffffff16021790555084601360006101000a81548173ffffffffffffffffffffffffffffffffffffffff021916908373ffffffffffffffffffffffffffffffffffffffff16021790555083601460006101000a81548173ffffffffffffffffffffffffffffffffffffffff021916908373ffffffffffffffffffffffffffffffffffffffff16021790555082601560006101000a81548173ffffffffffffffffffffffffffffffffffffffff021916908373ffffffffffffffffffffffffffffffffffffffff160217905550600160256000601560009054906101000a900473ffffffffffffffffffffffffffffffffffffffff1673ffffffffffffffffffffffffffffffffffffffff1673ffffffffffffffffffffffffffffffffffffffff16815260200190815260200160002060000160006101000a81548160ff021916908315150217905550600082141562000488574291505b600081141562000496574290505b81600181905550806007819055505050505050506200061b565b600080831415620004c5576000905062000535565b6000828402905082848281620004d757fe5b041462000530576040517f08c379a0000000000000000000000000000000000000000000000000000000008152600401808060200182810382526021815260200180620064fa6021913960400191505060405180910390fd5b809150505b92915050565b600080823b905060008111915050919050565b82805482825590600052602060002090810192821562000592579160200282015b8281111562000591578251829060ff169055916020019190600101906200056f565b5b509050620005a19190620005fc565b5090565b828054828255906000526020600020908101928215620005e9579160200282015b82811115620005e8578251829060ff16905591602001919060010190620005c6565b5b509050620005f89190620005fc565b5090565b5b8082111562000617576000816000905550600101620005fd565b5090565b615ecf806200062b6000396000f3fe6080604052600436106103ce5760003560e01c8063841062bd116101fd578063c64b4d1b11610118578063ebf7301f116100ab578063f4bc8a131161007a578063f4bc8a1314611637578063f9c23a5b14611672578063fbfab74e1461169d578063fc6ced5f146116d8578063fc77aa4814611703576103ce565b8063ebf7301f1461157b578063ee579481146115a6578063f10e1cdf146115d1578063f3c2c3bd146115fc576103ce565b8063d321fe29116100e7578063d321fe2914611292578063d624722d146112bd578063dee120ea146114d9578063eba21fdf14611540576103ce565b8063c64b4d1b146111ae578063cdd35fbe146111d9578063cde319481461123c578063cf59f86a14611267576103ce565b8063a4af858411610190578063ade7d3911161015f578063ade7d391146110b8578063aef2afc914611107578063b162d5dc14611132578063b56d39521461115d576103ce565b8063a4af858414610ef8578063aa28229514610f33578063ab2adc0014611037578063ac4afa3814611062576103ce565b806391cca3db116101cc57806391cca3db14610e10578063928076f114610e515780639d76ea5814610e8c5780639f909e4614610ecd576103ce565b8063841062bd14610d2857806385f2aef214610d535780638d02913a14610d945780638da5cb5b14610dcf576103ce565b806343b500e3116102ed57806371b801db116102805780637f4f98701161024f5780637f4f987014610c3f578063818d8c0414610cab57806382b2e25714610ce65780638387570814610d11576103ce565b806371b801db14610b935780637642c32a14610bbe57806376bc102514610be957806378e9792514610c14576103ce565b80635a9b0b89116102bc5780635a9b0b8914610a68578063658e28a414610abd57806368860d9f14610af85780636a38b64614610b4e576103ce565b806343b500e31461096d5780634fe7edff14610998578063584c8fc1146109c357806359fb49f9146109ee576103ce565b806334e927d0116103655780633b7da889116103345780633b7da8891461083f5780633c376d8e1461088e5780633e1430af146108c957806342b39a5e1461090a576103ce565b806334e927d01461072f57806335c34d561461075a5780633859577a146107955780633b7379e2146107d0576103ce565b80632bcc23f8116103a15780632bcc23f8146105e95780632ddbd13a1461069e5780632e1a7d4d146106c9578063344fbb4a14610704576103ce565b806302bd2ede146103d35780630c51b88f1461053b578063113c98fc1461059357806316f0115b146105be575b600080fd5b3480156103df57600080fd5b5061040c600480360360208110156103f657600080fd5b810190808035906020019092919050505061172e565b6040518080602001806020018060200180602001858103855289818151815260200191508051906020019060200280838360005b8381101561045b578082015181840152602081019050610440565b50505050905001858103845288818151815260200191508051906020019060200280838360005b8381101561049d578082015181840152602081019050610482565b50505050905001858103835287818151815260200191508051906020019060200280838360005b838110156104df5780820151818401526020810190506104c4565b50505050905001858103825286818151815260200191508051906020019060200280838360005b83811015610521578082015181840152602081019050610506565b505050509050019850505050505050505060405180910390f35b6105916004803603606081101561055157600080fd5b81019080803573ffffffffffffffffffffffffffffffffffffffff16906020019092919080359060200190929190803590602001909291905050506119f0565b005b34801561059f57600080fd5b506105a8611cf1565b6040518082815260200191505060405180910390f35b3480156105ca57600080fd5b506105d3611cf7565b6040518082815260200191505060405180910390f35b3480156105f557600080fd5b506106386004803603602081101561060c57600080fd5b81019080803573ffffffffffffffffffffffffffffffffffffffff169060200190929190505050611cfd565b604051808a151581526020018973ffffffffffffffffffffffffffffffffffffffff168152602001888152602001878152602001868152602001858152602001848152602001838152602001828152602001995050505050505050505060405180910390f35b3480156106aa57600080fd5b506106b3611d78565b6040518082815260200191505060405180910390f35b3480156106d557600080fd5b50610702600480360360208110156106ec57600080fd5b8101908080359060200190929190505050611d7e565b005b34801561071057600080fd5b50610719612075565b6040518082815260200191505060405180910390f35b34801561073b57600080fd5b506107446120ea565b6040518082815260200191505060405180910390f35b34801561076657600080fd5b506107936004803603602081101561077d57600080fd5b8101908080359060200190929190505050612120565b005b3480156107a157600080fd5b506107ce600480360360208110156107b857600080fd5b8101908080359060200190929190505050612184565b005b3480156107dc57600080fd5b50610829600480360360408110156107f357600080fd5b8101908080359060200190929190803573ffffffffffffffffffffffffffffffffffffffff1690602001909291905050506121e8565b6040518082815260200191505060405180910390f35b34801561084b57600080fd5b5061088c6004803603606081101561086257600080fd5b8101908080359060200190929190803590602001909291908035906020019092919050505061220d565b005b34801561089a57600080fd5b506108c7600480360360208110156108b157600080fd5b81019080803590602001909291905050506122b5565b005b3480156108d557600080fd5b506108de612319565b604051808273ffffffffffffffffffffffffffffffffffffffff16815260200191505060405180910390f35b34801561091657600080fd5b506109576004803603606081101561092d57600080fd5b8101908080359060200190929190803590602001909291908035906020019092919050505061233f565b6040518082815260200191505060405180910390f35b34801561097957600080fd5b506109826123c2565b6040518082815260200191505060405180910390f35b3480156109a457600080fd5b506109ad61241a565b6040518082815260200191505060405180910390f35b3480156109cf57600080fd5b506109d8612420565b6040518082815260200191505060405180910390f35b3480156109fa57600080fd5b50610a2760048036036020811015610a1157600080fd5b8101908080359060200190929190505050612426565b604051808573ffffffffffffffffffffffffffffffffffffffff16815260200184815260200183815260200182815260200194505050505060405180910390f35b348015610a7457600080fd5b50610a7d612486565b6040518088815260200187815260200186815260200185815260200184815260200183815260200182815260200197505050505050505060405180910390f35b348015610ac957600080fd5b50610af660048036036020811015610ae057600080fd5b81019080803590602001909291905050506124bd565b005b348015610b0457600080fd5b50610b3160048036036020811015610b1b57600080fd5b8101908080359060200190929190505050612735565b604051808381526020018281526020019250505060405180910390f35b348015610b5a57600080fd5b50610b9160048036036040811015610b7157600080fd5b81019080803590602001909291908035906020019092919050505061276f565b005b348015610b9f57600080fd5b50610ba8612855565b6040518082815260200191505060405180910390f35b348015610bca57600080fd5b50610bd361285b565b6040518082815260200191505060405180910390f35b348015610bf557600080fd5b50610bfe612861565b6040518082815260200191505060405180910390f35b348015610c2057600080fd5b50610c29612867565b6040518082815260200191505060405180910390f35b348015610c4b57600080fd5b50610c5461286d565b6040518080602001828103825283818151815260200191508051906020019060200280838360005b83811015610c97578082015181840152602081019050610c7c565b505050509050019250505060405180910390f35b348015610cb757600080fd5b50610ce460048036036020811015610cce57600080fd5b8101908080359060200190929190505050612a05565b005b348015610cf257600080fd5b50610cfb612a69565b6040518082815260200191505060405180910390f35b348015610d1d57600080fd5b50610d26612b37565b005b348015610d3457600080fd5b50610d3d612caf565b6040518082815260200191505060405180910390f35b348015610d5f57600080fd5b50610d68612da4565b604051808273ffffffffffffffffffffffffffffffffffffffff16815260200191505060405180910390f35b348015610da057600080fd5b50610dcd60048036036020811015610db757600080fd5b8101908080359060200190929190505050612dca565b005b348015610ddb57600080fd5b50610de4612e33565b604051808273ffffffffffffffffffffffffffffffffffffffff16815260200191505060405180910390f35b348015610e1c57600080fd5b50610e25612e59565b604051808273ffffffffffffffffffffffffffffffffffffffff16815260200191505060405180910390f35b348015610e5d57600080fd5b50610e8a60048036036020811015610e7457600080fd5b8101908080359060200190929190505050612e7f565b005b348015610e9857600080fd5b50610ea1612ee3565b604051808273ffffffffffffffffffffffffffffffffffffffff16815260200191505060405180910390f35b348015610ed957600080fd5b50610ee2612f07565b6040518082815260200191505060405180910390f35b348015610f0457600080fd5b50610f3160048036036020811015610f1b57600080fd5b8101908080359060200190929190505050612f3d565b005b348015610f3f57600080fd5b50610f6c60048036036020811015610f5657600080fd5b8101908080359060200190929190505050612fa1565b6040518085600460200280838360005b83811015610f97578082015181840152602081019050610f7c565b5050505090500184600460200280838360005b83811015610fc5578082015181840152602081019050610faa565b5050505090500183600460200280838360005b83811015610ff3578082015181840152602081019050610fd8565b5050505090500182600460200280838360005b83811015611021578082015181840152602081019050611006565b5050505090500194505050505060405180910390f35b34801561104357600080fd5b5061104c613187565b6040518082815260200191505060405180910390f35b34801561106e57600080fd5b5061109b6004803603602081101561108557600080fd5b810190808035906020019092919050505061318d565b604051808381526020018281526020019250505060405180910390f35b3480156110c457600080fd5b506110f1600480360360208110156110db57600080fd5b81019080803590602001909291905050506131b1565b6040518082815260200191505060405180910390f35b34801561111357600080fd5b5061111c6131c9565b6040518082815260200191505060405180910390f35b34801561113e57600080fd5b506111476131cf565b6040518082815260200191505060405180910390f35b34801561116957600080fd5b506111966004803603602081101561118057600080fd5b81019080803590602001909291905050506131d5565b60405180821515815260200191505060405180910390f35b3480156111ba57600080fd5b506111c36131f5565b6040518082815260200191505060405180910390f35b3480156111e557600080fd5b50611226600480360360608110156111fc57600080fd5b810190808035906020019092919080359060200190929190803590602001909291905050506131fb565b6040518082815260200191505060405180910390f35b34801561124857600080fd5b506112516132ff565b6040518082815260200191505060405180910390f35b34801561127357600080fd5b5061127c613305565b6040518082815260200191505060405180910390f35b34801561129e57600080fd5b506112a761330b565b6040518082815260200191505060405180910390f35b3480156112c957600080fd5b506112d26137d2565b604051808060200180602001806020018060200180602001806020018060200188810388528f818151815260200191508051906020019060200280838360005b8381101561132d578082015181840152602081019050611312565b5050505090500188810387528e818151815260200191508051906020019060200280838360005b8381101561136f578082015181840152602081019050611354565b5050505090500188810386528d818151815260200191508051906020019060200280838360005b838110156113b1578082015181840152602081019050611396565b5050505090500188810385528c818151815260200191508051906020019060200280838360005b838110156113f35780820151818401526020810190506113d8565b5050505090500188810384528b818151815260200191508051906020019060200280838360005b8381101561143557808201518184015260208101905061141a565b5050505090500188810383528a818151815260200191508051906020019060200280838360005b8381101561147757808201518184015260208101905061145c565b50505050905001888103825289818151815260200191508051906020019060200280838360005b838110156114b957808201518184015260208101905061149e565b505050509050019e50505050505050505050505050505060405180910390f35b3480156114e557600080fd5b5061151c600480360360408110156114fc57600080fd5b810190808035906020019092919080359060200190929190505050613c5b565b60405180848152602001838152602001828152602001935050505060405180910390f35b34801561154c57600080fd5b506115796004803603602081101561156357600080fd5b8101908080359060200190929190505050613edf565b005b34801561158757600080fd5b50611590613f48565b6040518082815260200191505060405180910390f35b3480156115b257600080fd5b506115bb613f4e565b6040518082815260200191505060405180910390f35b3480156115dd57600080fd5b506115e6613f54565b6040518082815260200191505060405180910390f35b34801561160857600080fd5b506116356004803603602081101561161f57600080fd5b8101908080359060200190929190505050613f5a565b005b34801561164357600080fd5b506116706004803603602081101561165a57600080fd5b8101908080359060200190929190505050613fbe565b005b34801561167e57600080fd5b50611687614022565b6040518082815260200191505060405180910390f35b3480156116a957600080fd5b506116d6600480360360208110156116c057600080fd5b8101908080359060200190929190505050614028565b005b3480156116e457600080fd5b506116ed61408c565b6040518082815260200191505060405180910390f35b34801561170f57600080fd5b50611718614092565b6040518082815260200191505060405180910390f35b60608060608060008061174c87601f5461414e90919063ffffffff16565b91505061176481601f5461417690919063ffffffff16565b96508667ffffffffffffffff8111801561177d57600080fd5b506040519080825280602002602001820160405280156117ac5781602001602082028036833780820191505090505b5095508667ffffffffffffffff811180156117c657600080fd5b506040519080825280602002602001820160405280156117f55781602001602082028036833780820191505090505b5094508667ffffffffffffffff8111801561180f57600080fd5b5060405190808252806020026020018201604052801561183e5781602001602082028036833780820191505090505b5093508667ffffffffffffffff8111801561185857600080fd5b506040519080825280602002602001820160405280156118875781602001602082028036833780820191505090505b5092506000601f5490505b818111156119e657601e60018203815481106118aa57fe5b906000526020600020906004020160000160009054906101000a900473ffffffffffffffffffffffffffffffffffffffff168784815181106118e857fe5b602002602001019073ffffffffffffffffffffffffffffffffffffffff16908173ffffffffffffffffffffffffffffffffffffffff1681525050601e600182038154811061193257fe5b90600052602060002090600402016001015486848151811061195057fe5b602002602001018181525050601e600182038154811061196c57fe5b90600052602060002090600402016003015484848151811061198a57fe5b602002602001018181525050601e60018203815481106119a657fe5b9060005260206000209060040201600201548584815181106119c457fe5b6020026020010181815250508280600101935050808060019003915050611892565b5050509193509193565b600154421015611a68576040517f08c379a00000000000000000000000000000000000000000000000000000000081526004018080602001828103825260098152602001807f4e6f74207374617274000000000000000000000000000000000000000000000081525060200191505060405180910390fd5b600954811015611ac3576040517f08c379a000000000000000000000000000000000000000000000000000000000815260040180806020018281038252602a815260200180615b9d602a913960400191505060405180910390fd5b600854811115611b1e576040517f08c379a000000000000000000000000000000000000000000000000000000000815260040180806020018281038252602a815260200180615e06602a913960400191505060405180910390fd5b601d600083815260200190815260200160002060010154611b5b82601c6000868152602001908152602001600020546141f990919063ffffffff16565b1115611bcf576040517f08c379a000000000000000000000000000000000000000000000000000000000815260040180806020018281038252601d8152602001807f4578636565647320706f6f6c20696e766573746d656e74206c696d697400000081525060200191505060405180910390fd5b611bda333083614281565b611c4c576040517f08c379a00000000000000000000000000000000000000000000000000000000081526004018080602001828103825260158152602001807f546f6b656e207472616e73666572206661696c6564000000000000000000000081525060200191505060405180910390fd5b611c7281601c6000858152602001908152602001600020546141f990919063ffffffff16565b601c600084815260200190815260200160002081905550611c928361437b565b611c9e82826000614795565b3373ffffffffffffffffffffffffffffffffffffffff167febedb8b3c678666e7f36970bc8f57abf6d8fa2e828c0da91ea5b75bf68ed101a826040518082815260200191505060405180910390a2505050565b600e5481565b60035481565b60256020528060005260406000206000915090508060000160009054906101000a900460ff16908060000160019054906101000a900473ffffffffffffffffffffffffffffffffffffffff16908060010154908060020154908060030154908060040154908060050154908060060154908060070154905089565b60025481565b611d87816151cd565b90506000600654118015611d9c575042600654105b15611e2257611dab3382615392565b611e1d576040517f08c379a00000000000000000000000000000000000000000000000000000000081526004018080602001828103825260158152602001807f546f6b656e207472616e73666572206661696c6564000000000000000000000081525060200191505060405180910390fd5b612024565b611e5d611e4c6064611e3e6014856140c890919063ffffffff16565b61546d90919063ffffffff16565b6005546141f990919063ffffffff16565b600581905550611e87604051806060016040528060238152602001615e77602391396005546154f6565b611eb733611eb26064611ea46050866140c890919063ffffffff16565b61546d90919063ffffffff16565b615392565b611f29576040517f08c379a00000000000000000000000000000000000000000000000000000000081526004018080602001828103825260158152602001807f546f6b656e207472616e73666572206661696c6564000000000000000000000081525060200191505060405180910390fd5b611f686040518060400160405280600f81526020017f6d73672e73656e6465722d2d2d2d2d0000000000000000000000000000000000815250336155fd565b611fbe6040518060400160405280601881526020017f6d73672e73656e64657220616d6f756e742d2d2d2d2d2d2d00000000000000008152503373ffffffffffffffffffffffffffffffffffffffff16316154f6565b6120236040518060400160405280601981526020017f7472616e7366657220616d6f756e742d2d2d2d2d2d2d2d2d2d0000000000000081525061201e60646120106050866140c890919063ffffffff16565b61546d90919063ffffffff16565b6154f6565b5b3373ffffffffffffffffffffffffffffffffffffffff167f884edad9ce6fa2440d8a54cc123490eb96d2768479d49ff9c7366125a9424364826040518082815260200191505060405180910390a250565b60008061208d6001544261414e90919063ffffffff16565b9150506120a56018548261546d90919063ffffffff16565b91506120e66040518060400160405280601181526020017f706c616e4f6e655063742d2d2d2d2d2d2d000000000000000000000000000000815250836154f6565b5090565b6000806121026001544261414e90919063ffffffff16565b91505061211a6018548261546d90919063ffffffff16565b91505090565b601660009054906101000a900473ffffffffffffffffffffffffffffffffffffffff1673ffffffffffffffffffffffffffffffffffffffff163373ffffffffffffffffffffffffffffffffffffffff161461217a57600080fd5b80600b8190555050565b601660009054906101000a900473ffffffffffffffffffffffffffffffffffffffff1673ffffffffffffffffffffffffffffffffffffffff163373ffffffffffffffffffffffffffffffffffffffff16146121de57600080fd5b80600e8190555050565b6023602052816000526040600020602052806000526040600020600091509150505481565b601660009054906101000a900473ffffffffffffffffffffffffffffffffffffffff1673ffffffffffffffffffffffffffffffffffffffff163373ffffffffffffffffffffffffffffffffffffffff161461226757600080fd5b6040518060400160405280620f424084028152602001620f42408302815250601d60008581526020019081526020016000206000820151816000015560208201518160010155905050505050565b601660009054906101000a900473ffffffffffffffffffffffffffffffffffffffff1673ffffffffffffffffffffffffffffffffffffffff163373ffffffffffffffffffffffffffffffffffffffff161461230f57600080fd5b80600f8190555050565b601460009054906101000a900473ffffffffffffffffffffffffffffffffffffffff1681565b600061237a6103e861236c8461235e87896140c890919063ffffffff16565b6140c890919063ffffffff16565b61546d90919063ffffffff16565b90506123bb6040518060400160405280601e81526020017f726577616420696e2073696d706c6520696e7465726573742d2d2d2d2d2d0000815250826154f6565b9392505050565b6000806123da6007544261414e90919063ffffffff16565b9150506123f26017548261546d90919063ffffffff16565b9150612416604051806060016040528060268152602001615b4c60269139836154f6565b5090565b60065481565b60085481565b601e818154811061243657600080fd5b90600052602060002090600402016000915090508060000160009054906101000a900473ffffffffffffffffffffffffffffffffffffffff16908060010154908060020154908060030154905084565b6000806000806000806000600154600254600354600454600554600654600754965096509650965096509650965090919293949596565b6000602560003373ffffffffffffffffffffffffffffffffffffffff1673ffffffffffffffffffffffffffffffffffffffff16815260200190815260200160002090508060090180549050821061257c576040517f08c379a00000000000000000000000000000000000000000000000000000000081526004018080602001828103825260188152602001807f496e76616c696420696e766573746d656e7420696e646578000000000000000081525060200191505060405180910390fd5b600081600901838154811061258d57fe5b9060005260206000209060080201905080600101544210156125fa576040517f08c379a000000000000000000000000000000000000000000000000000000000815260040180806020018281038252603b815260200180615d79603b913960400191505060405180910390fd5b60008160020154905061260d3382615392565b61267f576040517f08c379a00000000000000000000000000000000000000000000000000000000081526004018080602001828103825260158152602001807f546f6b656e207472616e73666572206661696c6564000000000000000000000081525060200191505060405180910390fd5b61269681846002015461417690919063ffffffff16565b83600201819055506126b58184600301546141f990919063ffffffff16565b83600301819055504283600501819055506126db8160025461417690919063ffffffff16565b6002819055503373ffffffffffffffffffffffffffffffffffffffff167fee1b5abe14e43ee34008f06f51efca5382c42fb48b0a040fd7a5f5c630cb5580826040518082815260200191505060405180910390a250505050565b600080601d600084815260200190815260200160002060000154601d60008581526020019081526020016000206001015491509150915091565b612778816151cd565b9050612785333083614281565b6127f7576040517f08c379a00000000000000000000000000000000000000000000000000000000081526004018080602001828103825260158152602001807f546f6b656e207472616e73666572206661696c6564000000000000000000000081525060200191505060405180910390fd5b61280382826001614795565b3373ffffffffffffffffffffffffffffffffffffffff167fb4f3774a35ef894e2fa407041b6832aa9df8f4aae5449664eaa08febb13f8c2d826040518082815260200191505060405180910390a25050565b60105481565b60205481565b60075481565b60015481565b60606000602560003373ffffffffffffffffffffffffffffffffffffffff1673ffffffffffffffffffffffffffffffffffffffff168152602001908152602001600020600901805480602002602001604051908101604052809291908181526020016000905b82821015612967578382906000526020600020906008020160405180610100016040529081600082015481526020016001820154815260200160028201548152602001600382015481526020016004820154815260200160058201548152602001600682015481526020016007820160009054906101000a900460ff161515151581525050815260200190600101906128d3565b505050509050805167ffffffffffffffff8111801561298557600080fd5b506040519080825280602002602001820160405280156129b45781602001602082028036833780820191505090505b50915060005b8151811015612a00578181815181106129cf57fe5b6020026020010151608001518382815181106129e757fe5b60200260200101818152505080806001019150506129ba565b505090565b601660009054906101000a900473ffffffffffffffffffffffffffffffffffffffff1673ffffffffffffffffffffffffffffffffffffffff163373ffffffffffffffffffffffffffffffffffffffff1614612a5f57600080fd5b8060118190555050565b60008060008054906101000a900473ffffffffffffffffffffffffffffffffffffffff1690508073ffffffffffffffffffffffffffffffffffffffff166370a08231306040518263ffffffff1660e01b8152600401808273ffffffffffffffffffffffffffffffffffffffff16815260200191505060206040518083038186803b158015612af657600080fd5b505afa158015612b0a573d6000803e3d6000fd5b505050506040513d6020811015612b2057600080fd5b810190808051906020019092919050505091505090565b601660009054906101000a900473ffffffffffffffffffffffffffffffffffffffff1673ffffffffffffffffffffffffffffffffffffffff163373ffffffffffffffffffffffffffffffffffffffff1614612b9157600080fd5b612bc4601660009054906101000a900473ffffffffffffffffffffffffffffffffffffffff16612bbf612a69565b615392565b612c36576040517f08c379a00000000000000000000000000000000000000000000000000000000081526004018080602001828103825260158152602001807f546f6b656e207472616e73666572206661696c6564000000000000000000000081525060200191505060405180910390fd5b601660009054906101000a900473ffffffffffffffffffffffffffffffffffffffff1673ffffffffffffffffffffffffffffffffffffffff167f884edad9ce6fa2440d8a54cc123490eb96d2768479d49ff9c7366125a9424364612c98612a69565b6040518082815260200191505060405180910390a2565b600080612cc76001544261414e90919063ffffffff16565b915050612d096040518060400160405280600881526020017f74696d653d3d3d3d000000000000000000000000000000000000000000000000815250826154f6565b612d4a6040518060400160405280601281526020017f696e6372656173652074696d652d2d2d2d2d00000000000000000000000000008152506018546154f6565b612d5f6018548261546d90919063ffffffff16565b9150612da06040518060400160405280601181526020017f696e637265617365207063743d3d3d3d3d000000000000000000000000000000815250836154f6565b5090565b601560009054906101000a900473ffffffffffffffffffffffffffffffffffffffff1681565b601660009054906101000a900473ffffffffffffffffffffffffffffffffffffffff1673ffffffffffffffffffffffffffffffffffffffff163373ffffffffffffffffffffffffffffffffffffffff1614612e2457600080fd5b620f4240810260098190555050565b601660009054906101000a900473ffffffffffffffffffffffffffffffffffffffff1681565b601360009054906101000a900473ffffffffffffffffffffffffffffffffffffffff1681565b601660009054906101000a900473ffffffffffffffffffffffffffffffffffffffff1673ffffffffffffffffffffffffffffffffffffffff163373ffffffffffffffffffffffffffffffffffffffff1614612ed957600080fd5b80600c8190555050565b60008054906101000a900473ffffffffffffffffffffffffffffffffffffffff1681565b600080612f1f6001544261414e90919063ffffffff16565b915050612f376018548261546d90919063ffffffff16565b91505090565b601660009054906101000a900473ffffffffffffffffffffffffffffffffffffffff1673ffffffffffffffffffffffffffffffffffffffff163373ffffffffffffffffffffffffffffffffffffffff1614612f9757600080fd5b8060108190555050565b612fa9615a93565b612fb1615ab5565b612fb9615ab5565b612fc1615ab5565b600060226000878152602001908152602001600020600480602002604051908101604052809291906000905b82821015613089578382600402016040518060800160405290816000820160009054906101000a900473ffffffffffffffffffffffffffffffffffffffff1673ffffffffffffffffffffffffffffffffffffffff1673ffffffffffffffffffffffffffffffffffffffff168152602001600182015481526020016002820154815260200160038201548152505081526020019060010190612fed565b50505050905060005b600481101561317e578181600481106130a757fe5b6020020151600001518682600481106130bc57fe5b602002019073ffffffffffffffffffffffffffffffffffffffff16908173ffffffffffffffffffffffffffffffffffffffff16815250508181600481106130ff57fe5b60200201516020015185826004811061311457fe5b60200201818152505081816004811061312957fe5b60200201516040015184826004811061313e57fe5b60200201818152505081816004811061315357fe5b60200201516060015183826004811061316857fe5b6020020181815250508080600101915050613092565b50509193509193565b60055481565b601d6020528060005260406000206000915090508060000154908060010154905082565b601c6020528060005260406000206000915090505481565b60045481565b60095481565b60246020528060005260406000206000915054906101000a900460ff1681565b60115481565b6000839050613222604051806060016040528060268152602001615e3060269139856154f6565b60005b60128110156132c057808311156132765761326f826132616103e861325388876140c890919063ffffffff16565b61546d90919063ffffffff16565b6141f990919063ffffffff16565b91506132b3565b6132b0826132a26103e86132946000876140c890919063ffffffff16565b61546d90919063ffffffff16565b6141f990919063ffffffff16565b91505b8080600101915050613225565b506132d4848261417690919063ffffffff16565b90506132f8604051806060016040528060308152602001615d4960309139826154f6565b9392505050565b600f5481565b601f5481565b600080602560003373ffffffffffffffffffffffffffffffffffffffff1673ffffffffffffffffffffffffffffffffffffffff168152602001908152602001600020604051806101600160405290816000820160009054906101000a900460ff161515151581526020016000820160019054906101000a900473ffffffffffffffffffffffffffffffffffffffff1673ffffffffffffffffffffffffffffffffffffffff1673ffffffffffffffffffffffffffffffffffffffff168152602001600182015481526020016002820154815260200160038201548152602001600482015481526020016005820154815260200160068201548152602001600782015481526020016008820180548060200260200160405190810160405280929190818152602001828054801561349557602002820191906000526020600020905b8160009054906101000a900473ffffffffffffffffffffffffffffffffffffffff1673ffffffffffffffffffffffffffffffffffffffff168152602001906001019080831161344b575b5050505050815260200160098201805480602002602001604051908101604052809291908181526020016000905b82821015613557578382906000526020600020906008020160405180610100016040529081600082015481526020016001820154815260200160028201548152602001600382015481526020016004820154815260200160058201548152602001600682015481526020016007820160009054906101000a900460ff161515151581525050815260200190600101906134c3565b505050508152505090508060a001519150613570615ad7565b60005b826101400151518110156137cc57826101400151818151811061359257fe5b602002602001015191506135db6040518060400160405280601681526020017f6920696e20676574616d6f756e742d2d2d2d2d2d2d2d00000000000000000000815250826154f6565b81602001518360c0015111156135f0576137bf565b60028260c00151111561362c57816020015142101561360e576137bf565b6136258260600151856141f990919063ffffffff16565b93506137be565b600061365d61364a60175485608001516140c890919063ffffffff16565b846060015161546d90919063ffffffff16565b9050600061367c8560c00151856000015161571a90919063ffffffff16565b9050600061369742866020015161573490919063ffffffff16565b90506136d86040518060400160405280601781526020017f7261746520696e20676574616d6f756e742d2d2d2d2d2d000000000000000000815250846154f6565b6137176040518060400160405280601881526020017f737461727420696e20676574616d6f756e742d2d2d2d2d2d0000000000000000815250836154f6565b6137566040518060400160405280601681526020017f656e6420696e20676574616d6f756e742d2d2d2d2d2d00000000000000000000815250826154f6565b808210156137ba5761379561378684613778858561417690919063ffffffff16565b6140c890919063ffffffff16565b886141f990919063ffffffff16565b96506137b9604051806060016040528060258152602001615c3c60259139886154f6565b5b5050505b5b8080600101915050613573565b50505090565b60608060608060608060606000602560003373ffffffffffffffffffffffffffffffffffffffff1673ffffffffffffffffffffffffffffffffffffffff168152602001908152602001600020600901805480602002602001604051908101604052809291908181526020016000905b828210156138d5578382906000526020600020906008020160405180610100016040529081600082015481526020016001820154815260200160028201548152602001600382015481526020016004820154815260200160058201548152602001600682015481526020016007820160009054906101000a900460ff16151515158152505081526020019060010190613841565b505050509050805167ffffffffffffffff811180156138f357600080fd5b506040519080825280602002602001820160405280156139225781602001602082028036833780820191505090505b509750805167ffffffffffffffff8111801561393d57600080fd5b5060405190808252806020026020018201604052801561396c5781602001602082028036833780820191505090505b509650805167ffffffffffffffff8111801561398757600080fd5b506040519080825280602002602001820160405280156139b65781602001602082028036833780820191505090505b509550805167ffffffffffffffff811180156139d157600080fd5b50604051908082528060200260200182016040528015613a005781602001602082028036833780820191505090505b509450805167ffffffffffffffff81118015613a1b57600080fd5b50604051908082528060200260200182016040528015613a4a5781602001602082028036833780820191505090505b509350805167ffffffffffffffff81118015613a6557600080fd5b50604051908082528060200260200182016040528015613a945781602001602082028036833780820191505090505b509250805167ffffffffffffffff81118015613aaf57600080fd5b50604051908082528060200260200182016040528015613ade5781602001602082028036833780820191505090505b50915060005b8151811015613c5057818181518110613af957fe5b602002602001015160200151898281518110613b1157fe5b602002602001018181525050818181518110613b2957fe5b602002602001015160000151888281518110613b4157fe5b602002602001018181525050818181518110613b5957fe5b602002602001015160400151878281518110613b7157fe5b602002602001018181525050818181518110613b8957fe5b602002602001015160600151868281518110613ba157fe5b602002602001018181525050818181518110613bb957fe5b602002602001015160a00151858281518110613bd157fe5b602002602001018181525050818181518110613be957fe5b602002602001015160c00151848281518110613c0157fe5b602002602001018181525050818181518110613c1957fe5b602002602001015160e00151838281518110613c3157fe5b6020026020010190151590811515815250508080600101915050613ae4565b505090919293949596565b60008060006001851415613cf057600b549250613c90604051806060016040528060278152602001615c1560279139846154f6565b613c98612caf565b9150613cbc604051806060016040528060278152602001615bee60279139836154f6565b613cc78483856131fb565b9050613ceb6040518060600160405280602b8152602001615b21602b9139826154f6565b613ed8565b6002851415613d9357600c549250613d20604051806060016040528060278152602001615c6160279139846154f6565b613d3b600a613d2d61574d565b6140c890919063ffffffff16565b9150613d5f604051806060016040528060278152602001615d2260279139836154f6565b613d6a8483856131fb565b9050613d8e6040518060600160405280602b8152602001615b72602b9139826154f6565b613ed7565b6003851415613e3657600d549250613dc3604051806060016040528060278152602001615bc760279139846154f6565b613dde600a613dd061574d565b6140c890919063ffffffff16565b9150613e02604051806060016040528060278152602001615c8860279139836154f6565b613e0d84838561233f565b9050613e316040518060600160405280602b8152602001615ddb602b9139826154f6565b613ed6565b6004851415613ed557600e549250613e66604051806060016040528060278152602001615caf60279139846154f6565b613e81600a613e7361574d565b6140c890919063ffffffff16565b9150613ea5604051806060016040528060278152602001615db460279139836154f6565b613eb084838561233f565b9050613ed46040518060600160405280602b8152602001615cf7602b9139826154f6565b5b5b5b5b9250925092565b601660009054906101000a900473ffffffffffffffffffffffffffffffffffffffff1673ffffffffffffffffffffffffffffffffffffffff163373ffffffffffffffffffffffffffffffffffffffff1614613f3957600080fd5b620f4240810260088190555050565b60125481565b600c5481565b600d5481565b601660009054906101000a900473ffffffffffffffffffffffffffffffffffffffff1673ffffffffffffffffffffffffffffffffffffffff163373ffffffffffffffffffffffffffffffffffffffff1614613fb457600080fd5b80600a8190555050565b601660009054906101000a900473ffffffffffffffffffffffffffffffffffffffff1673ffffffffffffffffffffffffffffffffffffffff163373ffffffffffffffffffffffffffffffffffffffff161461401857600080fd5b80600d8190555050565b600a5481565b601660009054906101000a900473ffffffffffffffffffffffffffffffffffffffff1673ffffffffffffffffffffffffffffffffffffffff163373ffffffffffffffffffffffffffffffffffffffff161461408257600080fd5b8060128190555050565b600b5481565b6000806140aa6001544261414e90919063ffffffff16565b9150506140c26018548261546d90919063ffffffff16565b91505090565b6000808314156140db5760009050614148565b60008284029050828482816140ec57fe5b0414614143576040517f08c379a0000000000000000000000000000000000000000000000000000000008152600401808060200182810382526021815260200180615cd66021913960400191505060405180910390fd5b809150505b92915050565b60008083831115614165576000809150915061416f565b6001838503915091505b9250929050565b6000828211156141ee576040517f08c379a000000000000000000000000000000000000000000000000000000000815260040180806020018281038252601e8152602001807f536166654d6174683a207375627472616374696f6e206f766572666c6f77000081525060200191505060405180910390fd5b818303905092915050565b600080828401905083811015614277576040517f08c379a000000000000000000000000000000000000000000000000000000000815260040180806020018281038252601b8152602001807f536166654d6174683a206164646974696f6e206f766572666c6f77000000000081525060200191505060405180910390fd5b8091505092915050565b60008060008054906101000a900473ffffffffffffffffffffffffffffffffffffffff1690508073ffffffffffffffffffffffffffffffffffffffff166323b872dd8686866040518463ffffffff1660e01b8152600401808473ffffffffffffffffffffffffffffffffffffffff1681526020018373ffffffffffffffffffffffffffffffffffffffff1681526020018281526020019350505050602060405180830381600087803b15801561433657600080fd5b505af115801561434a573d6000803e3d6000fd5b505050506040513d602081101561436057600080fd5b81019080805190602001909291905050509150509392505050565b61439c604051806060016040528060218152602001615e56602191396157a6565b6143db6040518060400160405280601281526020017f72656665727265722d2d2d2d2d2d2d2d2d2d0000000000000000000000000000815250826155fd565b602560003373ffffffffffffffffffffffffffffffffffffffff1673ffffffffffffffffffffffffffffffffffffffff16815260200190815260200160002060000160009054906101000a900460ff161561443557614792565b6001602560003373ffffffffffffffffffffffffffffffffffffffff1673ffffffffffffffffffffffffffffffffffffffff16815260200190815260200160002060000160006101000a81548160ff0219169083151502179055503373ffffffffffffffffffffffffffffffffffffffff168173ffffffffffffffffffffffffffffffffffffffff1614806145175750602560008273ffffffffffffffffffffffffffffffffffffffff1673ffffffffffffffffffffffffffffffffffffffff16815260200190815260200160002060000160009054906101000a900460ff16155b1561454257601560009054906101000a900473ffffffffffffffffffffffffffffffffffffffff1690505b80602560003373ffffffffffffffffffffffffffffffffffffffff1673ffffffffffffffffffffffffffffffffffffffff16815260200190815260200160002060000160016101000a81548173ffffffffffffffffffffffffffffffffffffffff021916908373ffffffffffffffffffffffffffffffffffffffff160217905550602560008273ffffffffffffffffffffffffffffffffffffffff1673ffffffffffffffffffffffffffffffffffffffff168152602001908152602001600020600801339080600181540180825580915050600190039060005260206000200160009091909190916101000a81548173ffffffffffffffffffffffffffffffffffffffff021916908373ffffffffffffffffffffffffffffffffffffffff16021790555060005b600381101561479057602560008373ffffffffffffffffffffffffffffffffffffffff1673ffffffffffffffffffffffffffffffffffffffff16815260200190815260200160002060060160008154809291906001019190505550602560008373ffffffffffffffffffffffffffffffffffffffff1673ffffffffffffffffffffffffffffffffffffffff16815260200190815260200160002060000160019054906101000a900473ffffffffffffffffffffffffffffffffffffffff169150602560008373ffffffffffffffffffffffffffffffffffffffff1673ffffffffffffffffffffffffffffffffffffffff16815260200190815260200160002060000160009054906101000a900460ff166147835750614792565b8080600101915050614669565b505b50565b6000602560003373ffffffffffffffffffffffffffffffffffffffff1673ffffffffffffffffffffffffffffffffffffffff16815260200190815260200160002090506000839050821561480d5761480a60646147fc6066876140c890919063ffffffff16565b61546d90919063ffffffff16565b90505b600080600061481c8885613c5b565b925092509250600061484b4261483d866017546140c890919063ffffffff16565b6141f990919063ffffffff16565b905061488c6040518060400160405280601a81526020017f7261746520616464496e766573746d656e742d2d2d2d2d2d2d2d000000000000815250846154f6565b60008411156151c2576148ac6019546001546141f990919063ffffffff16565b42111561493a576148ee6148dd60646148cf60538c6140c890919063ffffffff16565b61546d90919063ffffffff16565b6003546141f990919063ffffffff16565b60038190555061492f61491e606461491060038c6140c890919063ffffffff16565b61546d90919063ffffffff16565b6004546141f990919063ffffffff16565b600481905550614a3f565b614975614964606461495660548c6140c890919063ffffffff16565b61546d90919063ffffffff16565b6003546141f990919063ffffffff16565b6003819055506149b66149a5606461499760028c6140c890919063ffffffff16565b61546d90919063ffffffff16565b6004546141f990919063ffffffff16565b6004819055506149fd6040518060400160405280600e81526020017f656c736520706f6f6c2d2d2d2d2d0000000000000000000000000000000000008152506003546154f6565b614a3e6040518060400160405280601581526020017f656c73652072616e6b20706f6f6c2d2d2d2d2d2d2d00000000000000000000008152506004546154f6565b5b614a54886002546141f990919063ffffffff16565b600281905550614a9b6040518060400160405280600981526020017f746f74616c2d2d2d2d00000000000000000000000000000000000000000000008152506002546154f6565b614ab28887600201546141f990919063ffffffff16565b866002018190555060008660000160019054906101000a900473ffffffffffffffffffffffffffffffffffffffff1690506000614aed6123c2565b9050614b2e6040518060400160405280600f81526020017f72616e6b20696e6465782d2d2d2d2d0000000000000000000000000000000000815250826154f6565b60005b6003811015614ff057602560008473ffffffffffffffffffffffffffffffffffffffff1673ffffffffffffffffffffffffffffffffffffffff16815260200190815260200160002060000160009054906101000a900460ff16614b9357614ff0565b614bd26040518060400160405280601581526020017f696e6465782061667465723d3d3d3d3d3d3d3d3d3d0000000000000000000000815250826154f6565b6000614c116064614c03601b8581548110614be957fe5b90600052602060002001548f6140c890919063ffffffff16565b61546d90919063ffffffff16565b9050614c526040518060400160405280601981526020017f72657761726420696e7369646520696e766573743d3d3d3d3d00000000000000815250826154f6565b614ca781602560008773ffffffffffffffffffffffffffffffffffffffff1673ffffffffffffffffffffffffffffffffffffffff168152602001908152602001600020600101546141f990919063ffffffff16565b602560008673ffffffffffffffffffffffffffffffffffffffff1673ffffffffffffffffffffffffffffffffffffffff16815260200190815260200160002060010181905550614d4281602560008773ffffffffffffffffffffffffffffffffffffffff1673ffffffffffffffffffffffffffffffffffffffff168152602001908152602001600020600401546141f990919063ffffffff16565b602560008673ffffffffffffffffffffffffffffffffffffffff1673ffffffffffffffffffffffffffffffffffffffff16815260200190815260200160002060040181905550614ddd8c602560008773ffffffffffffffffffffffffffffffffffffffff1673ffffffffffffffffffffffffffffffffffffffff168152602001908152602001600020600701546141f990919063ffffffff16565b602560008673ffffffffffffffffffffffffffffffffffffffff1673ffffffffffffffffffffffffffffffffffffffff168152602001908152602001600020600701819055506000821415614f3e57614e8f8c6023600086815260200190815260200160002060008773ffffffffffffffffffffffffffffffffffffffff1673ffffffffffffffffffffffffffffffffffffffff168152602001908152602001600020546141f990919063ffffffff16565b6023600085815260200190815260200160002060008673ffffffffffffffffffffffffffffffffffffffff1673ffffffffffffffffffffffffffffffffffffffff16815260200190815260200160002081905550614f3d846023600086815260200190815260200160002060008773ffffffffffffffffffffffffffffffffffffffff1673ffffffffffffffffffffffffffffffffffffffff168152602001908152602001600020546158a4565b5b602560008573ffffffffffffffffffffffffffffffffffffffff1673ffffffffffffffffffffffffffffffffffffffff16815260200190815260200160002060000160019054906101000a900473ffffffffffffffffffffffffffffffffffffffff169350614fe26040518060400160405280601e81526020017f696e766573746d656e742072656665727265722d2d2d2d2d2d2d2d2d2d2d0000815250856155fd565b508080600101915050614b31565b50876009016040518061010001604052804281526020018581526020018981526020018681526020018881526020018781526020018d81526020018b15158152509080600181540180825580915050600190039060005260206000209060080201600090919091909150600082015181600001556020820151816001015560408201518160020155606082015181600301556080820151816004015560a0820151816005015560c0820151816006015560e08201518160070160006101000a81548160ff0219169083151502179055505050600060065414806150d4575042600654115b156151bf57601e60405180608001604052803373ffffffffffffffffffffffffffffffffffffffff1681526020018c81526020016000815260200142815250908060018154018082558091505060019003906000526020600020906004020160009091909190915060008201518160000160006101000a81548173ffffffffffffffffffffffffffffffffffffffff021916908373ffffffffffffffffffffffffffffffffffffffff1602179055506020820151816001015560408201518160020155606082015181600301555050601f60008154809291906001019190505550601f546020819055505b50505b505050505050505050565b6000806151d861330b565b90506000602560003373ffffffffffffffffffffffffffffffffffffffff1673ffffffffffffffffffffffffffffffffffffffff1681526020019081526020016000209050600084148061522b57508184115b15615234578193505b6003548411156152445760035493505b600084116152ba576040517f08c379a000000000000000000000000000000000000000000000000000000000815260040180806020018281038252600c8152602001807f4572726f7220616d6f756e74000000000000000000000000000000000000000081525060200191505060405180910390fd5b6152cd848361417690919063ffffffff16565b81600401819055506152ec8482600301546141f990919063ffffffff16565b81600301819055504281600501819055506153128460035461417690919063ffffffff16565b6003819055506000600654148015615352575061534f61533e60026017546140c890919063ffffffff16565b6001546141f990919063ffffffff16565b42115b80156153675750601a54600a0a600a02600354105b1561538857615381601754426141f990919063ffffffff16565b6006819055505b8392505050919050565b60008060008054906101000a900473ffffffffffffffffffffffffffffffffffffffff1690508073ffffffffffffffffffffffffffffffffffffffff1663a9059cbb85856040518363ffffffff1660e01b8152600401808373ffffffffffffffffffffffffffffffffffffffff16815260200182815260200192505050602060405180830381600087803b15801561542957600080fd5b505af115801561543d573d6000803e3d6000fd5b505050506040513d602081101561545357600080fd5b810190808051906020019092919050505091505092915050565b60008082116154e4576040517f08c379a000000000000000000000000000000000000000000000000000000000815260040180806020018281038252601a8152602001807f536166654d6174683a206469766973696f6e206279207a65726f00000000000081525060200191505060405180910390fd5b8183816154ed57fe5b04905092915050565b6155f982826040516024018080602001838152602001828103825284818151815260200191508051906020019080838360005b83811015615544578082015181840152602081019050615529565b50505050905090810190601f1680156155715780820380516001836020036101000a031916815260200191505b5093505050506040516020818303038152906040527fb60e72cc000000000000000000000000000000000000000000000000000000007bffffffffffffffffffffffffffffffffffffffffffffffffffffffff19166020820180517bffffffffffffffffffffffffffffffffffffffffffffffffffffffff8381831617835250505050615a4d565b5050565b615716828260405160240180806020018373ffffffffffffffffffffffffffffffffffffffff168152602001828103825284818151815260200191508051906020019080838360005b83811015615661578082015181840152602081019050615646565b50505050905090810190601f16801561568e5780820380516001836020036101000a031916815260200191505b5093505050506040516020818303038152906040527f319af333000000000000000000000000000000000000000000000000000000007bffffffffffffffffffffffffffffffffffffffffffffffffffffffff19166020820180517bffffffffffffffffffffffffffffffffffffffffffffffffffffffff8381831617835250505050615a4d565b5050565b60008183101561572a578161572c565b825b905092915050565b60008183106157435781615745565b825b905092915050565b6000806002546003548161575d57fe5b04905061579f6040518060400160405280601981526020017f726174696f20696e2067657420726174696f2d2d2d2d2d2d2d00000000000000815250826154f6565b8091505090565b6158a1816040516024018080602001828103825283818151815260200191508051906020019080838360005b838110156157ed5780820151818401526020810190506157d2565b50505050905090810190601f16801561581a5780820380516001836020036101000a031916815260200191505b50925050506040516020818303038152906040527f41304fac000000000000000000000000000000000000000000000000000000007bffffffffffffffffffffffffffffffffffffffffffffffffffffffff19166020820180517bffffffffffffffffffffffffffffffffffffffffffffffffffffffff8381831617835250505050615a4d565b50565b60006158ae6123c2565b905060008060008086905060005b60226000878152602001908152602001600020506004811015615a42576022600087815260200190815260200160002081600481106158f757fe5b6004020194508460000160009054906101000a900473ffffffffffffffffffffffffffffffffffffffff1673ffffffffffffffffffffffffffffffffffffffff168873ffffffffffffffffffffffffffffffffffffffff16141561596957868560010181905550505050505050615a49565b8460010154871115615a35578460000160009054906101000a900473ffffffffffffffffffffffffffffffffffffffff16935084600101549250878560000160006101000a81548173ffffffffffffffffffffffffffffffffffffffff021916908373ffffffffffffffffffffffffffffffffffffffff1602179055508685600101819055508373ffffffffffffffffffffffffffffffffffffffff168273ffffffffffffffffffffffffffffffffffffffff161415615a2e57505050505050615a49565b8397508296505b80806001019150506158bc565b5050505050505b5050565b615a6481615a5c615a67615a88565b63ffffffff16565b50565b60006a636f6e736f6c652e6c6f679050600080835160208501845afa505050565b615b1e819050919050565b6040518060800160405280600490602082028036833780820191505090505090565b6040518060800160405280600490602082028036833780820191505090505090565b604051806101000160405280600081526020016000815260200160008152602001600081526020016000815260200160008152602001600081526020016000151581525090565bfefe3120746f74616c5265776172642020696e7369646520676574706572696f64726174652d2d2d2d2d2d2d2d72616e6b20696e64657820696e206765742072616e6b20696e6465782d2d2d2d2d2d2d2d2d2d3220746f74616c5265776172642020696e7369646520676574706572696f64726174652d2d2d2d2d2d2d2d506c6561736520696e76657374206d6f7265207468616e20746865206d696e696d756d20616d6f756e743320706572696f6420696e7369646520676574706572696f64726174653d3d3d3d3d3d3d3d3d3d31207261746520696e7369646520676574706572696f64726174653d3d3d3d3d3d3d3d3d3d3d3d3120706572696f6420696e7369646520676574706572696f64726174653d3d3d3d3d3d3d3d3d3d616d6f756e7420696e20676574616d6f756e7420696620636f6e646974696f6e2d2d2d2d2d3220706572696f6420696e7369646520676574706572696f64726174653d3d3d3d3d3d3d3d3d3d33207261746520696e7369646520676574706572696f64726174653d3d3d3d3d3d3d3d3d3d3d3d3420706572696f6420696e7369646520676574706572696f64726174653d3d3d3d3d3d3d3d3d3d536166654d6174683a206d756c7469706c69636174696f6e206f766572666c6f773420746f74616c5265776172642020696e7369646520676574706572696f64726174652d2d2d2d2d2d2d2d32207261746520696e7369646520676574706572696f64726174653d3d3d3d3d3d3d3d3d3d3d3d72657761726420696e7369646520636f6d706f756e642063616c63756c6174652066756e6374696f6e202d2d2d2d2d2d43616e6e6f74207769746864726177207072696e636970616c206265666f72652074686520696e766573746d656e7420706572696f6420656e647334207261746520696e7369646520676574706572696f64726174653d3d3d3d3d3d3d3d3d3d3d3d3320746f74616c5265776172642020696e7369646520676574706572696f64726174652d2d2d2d2d2d2d2d506c6561736520696e76657374206c657373207468616e20746865206d6178696d756d20616d6f756e74696e636f6d6520696e736964652063616c63756c6174652066756e6374696f6e2d2d2d2d2d2d696e736964652062696e642072656c6174696f6e736869702d2d2d2d2d2d2d2d2d696e737572616e636520706f6f6c20696e2077697468647261772d2d2d2d2d2d2d2d2da26469706673582212201a055b0b5d4b2046798cf6abca0ad7128eeb2fb1ab628c1c36808b188a18365464736f6c63430007060033536166654d6174683a206d756c7469706c69636174696f6e206f766572666c6f77",
  "linkReferences": {},
  "deployedLinkReferences": {}
}